{"project/contracts/CodeforcesDailyChallenge.sol":{"CodeforcesDailyChallenge":{"abi":[{"inputs":[{"internalType":"address","name":"initialOracle","type":"address"},{"internalType":"address","name":"initialTreasury","type":"address"},{"internalType":"address","name":"initialPenaltyRecipient","type":"address"}],"stateMutability":"nonpayable","type":"constructor"},{"inputs":[],"name":"EnforcedPause","type":"error"},{"inputs":[],"name":"ExpectedPause","type":"error"},{"inputs":[{"internalType":"address","name":"owner","type":"address"}],"name":"OwnableInvalidOwner","type":"error"},{"inputs":[{"internalType":"address","name":"account","type":"address"}],"name":"OwnableUnauthorizedAccount","type":"error"},{"inputs":[],"name":"ReentrancyGuardReentrantCall","type":"error"},{"anonymous":false,"inputs":[{"indexed":true,"internalType":"uint256","name":"challengeId","type":"uint256"},{"indexed":true,"internalType":"address","name":"user","type":"address"},{"indexed":false,"internalType":"uint256","name":"refundedAmount","type":"uint256"}],"name":"ChallengeCanceled","type":"event"},{"anonymous":false,"inputs":[{"indexed":true,"internalType":"uint256","name":"challengeId","type":"uint256"},{"indexed":true,"internalType":"address","name":"user","type":"address"},{"indexed":false,"internalType":"string","name":"handle","type":"string"},{"indexed":false,"internalType":"uint64","name":"startAt","type":"uint64"},{"indexed":false,"internalType":"uint64","name":"periodDuration","type":"uint64"},{"indexed":false,"internalType":"uint64","name":"cycleDuration","type":"uint64"},{"indexed":false,"internalType":"uint32","name":"totalPeriods","type":"uint32"},{"indexed":false,"internalType":"uint32","name":"minRating","type":"uint32"},{"indexed":false,"internalType":"uint256","name":"penaltyNoSubmission","type":"uint256"},{"indexed":false,"internalType":"uint256","name":"penaltyNoOk","type":"uint256"},{"indexed":false,"internalType":"uint256","name":"deposit","type":"uint256"}],"name":"ChallengeCreated","type":"event"},{"anonymous":false,"inputs":[{"indexed":true,"internalType":"address","name":"oldOracle","type":"address"},{"indexed":true,"internalType":"address","name":"newOracle","type":"address"}],"name":"OracleUpdated","type":"event"},{"anonymous":false,"inputs":[{"indexed":true,"internalType":"address","name":"previousOwner","type":"address"},{"indexed":true,"internalType":"address","name":"newOwner","type":"address"}],"name":"OwnershipTransferred","type":"event"},{"anonymous":false,"inputs":[{"indexed":false,"internalType":"address","name":"account","type":"address"}],"name":"Paused","type":"event"},{"anonymous":false,"inputs":[{"indexed":true,"internalType":"uint256","name":"challengeId","type":"uint256"},{"indexed":true,"internalType":"uint256","name":"periodIndex","type":"uint256"},{"indexed":true,"internalType":"address","name":"user","type":"address"},{"indexed":false,"internalType":"uint256","name":"amount","type":"uint256"}],"name":"PenaltyPaid","type":"event"},{"anonymous":false,"inputs":[{"indexed":true,"internalType":"address","name":"oldPenaltyRecipient","type":"address"},{"indexed":true,"internalType":"address","name":"newPenaltyRecipient","type":"address"}],"name":"PenaltyRecipientUpdated","type":"event"},{"anonymous":false,"inputs":[{"indexed":true,"internalType":"uint256","name":"challengeId","type":"uint256"},{"indexed":true,"internalType":"uint256","name":"periodIndex","type":"uint256"},{"indexed":false,"internalType":"uint256","name":"submissionId","type":"uint256"},{"indexed":false,"internalType":"uint256","name":"acceptedAt","type":"uint256"},{"indexed":false,"internalType":"uint256","name":"rating","type":"uint256"},{"indexed":false,"internalType":"bytes32","name":"proofHash","type":"bytes32"}],"name":"PeriodCompleted","type":"event"},{"anonymous":false,"inputs":[{"indexed":true,"internalType":"uint256","name":"challengeId","type":"uint256"},{"indexed":true,"internalType":"uint256","name":"periodIndex","type":"uint256"},{"indexed":false,"internalType":"enum CodeforcesDailyChallenge.PeriodStatus","name":"status","type":"uint8"},{"indexed":false,"internalType":"uint256","name":"penaltyApplied","type":"uint256"},{"indexed":false,"internalType":"bytes32","name":"proofHash","type":"bytes32"}],"name":"PeriodSlashed","type":"event"},{"anonymous":false,"inputs":[{"indexed":true,"internalType":"uint256","name":"challengeId","type":"uint256"},{"indexed":true,"internalType":"address","name":"user","type":"address"},{"indexed":false,"internalType":"uint256","name":"amount","type":"uint256"}],"name":"RemainingWithdrawn","type":"event"},{"anonymous":false,"inputs":[{"indexed":true,"internalType":"address","name":"oldTreasury","type":"address"},{"indexed":true,"internalType":"address","name":"newTreasury","type":"address"}],"name":"TreasuryUpdated","type":"event"},{"anonymous":false,"inputs":[{"indexed":true,"internalType":"address","name":"treasury","type":"address"},{"indexed":false,"internalType":"uint256","name":"amount","type":"uint256"}],"name":"TreasuryWithdrawn","type":"event"},{"anonymous":false,"inputs":[{"indexed":false,"internalType":"address","name":"account","type":"address"}],"name":"Unpaused","type":"event"},{"inputs":[{"internalType":"address","name":"","type":"address"}],"name":"activeChallengeOf","outputs":[{"internalType":"uint256","name":"","type":"uint256"}],"stateMutability":"view","type":"function"},{"inputs":[{"internalType":"uint256","name":"challengeId","type":"uint256"}],"name":"cancelBeforeStart","outputs":[],"stateMutability":"nonpayable","type":"function"},{"inputs":[{"internalType":"uint256","name":"challengeId","type":"uint256"}],"name":"challengeEndAt","outputs":[{"internalType":"uint256","name":"","type":"uint256"}],"stateMutability":"view","type":"function"},{"inputs":[{"internalType":"string","name":"handle","type":"string"},{"internalType":"uint64","name":"startAt","type":"uint64"},{"internalType":"uint64","name":"periodDuration","type":"uint64"},{"internalType":"uint64","name":"cycleDuration","type":"uint64"},{"internalType":"uint32","name":"totalPeriods","type":"uint32"},{"internalType":"uint32","name":"minRating","type":"uint32"},{"internalType":"uint256","name":"penaltyNoSubmission","type":"uint256"},{"internalType":"uint256","name":"penaltyNoOk","type":"uint256"}],"name":"createChallenge","outputs":[{"internalType":"uint256","name":"challengeId","type":"uint256"}],"stateMutability":"payable","type":"function"},{"inputs":[{"internalType":"uint256","name":"challengeId","type":"uint256"}],"name":"getChallenge","outputs":[{"internalType":"address","name":"user","type":"address"},{"internalType":"string","name":"handle","type":"string"},{"internalType":"uint64","name":"startAt","type":"uint64"},{"internalType":"uint64","name":"periodDuration","type":"uint64"},{"internalType":"uint64","name":"cycleDuration","type":"uint64"},{"internalType":"uint32","name":"totalPeriods","type":"uint32"},{"internalType":"uint32","name":"minRating","type":"uint32"},{"internalType":"uint256","name":"penaltyNoSubmission","type":"uint256"},{"internalType":"uint256","name":"penaltyNoOk","type":"uint256"},{"internalType":"uint256","name":"deposit","type":"uint256"},{"internalType":"uint256","name":"slashedAmount","type":"uint256"},{"internalType":"uint32","name":"resolvedPeriods","type":"uint32"},{"internalType":"bool","name":"withdrawn","type":"bool"},{"internalType":"bool","name":"canceled","type":"bool"},{"internalType":"bool","name":"active","type":"bool"}],"stateMutability":"view","type":"function"},{"inputs":[{"internalType":"uint256","name":"challengeId","type":"uint256"},{"internalType":"uint256","name":"periodIndex","type":"uint256"}],"name":"getPeriodRecord","outputs":[{"internalType":"enum CodeforcesDailyChallenge.PeriodStatus","name":"status","type":"uint8"},{"internalType":"uint256","name":"resolvedAt","type":"uint256"},{"internalType":"uint256","name":"penaltyApplied","type":"uint256"},{"internalType":"bool","name":"penaltySettled","type":"bool"},{"internalType":"uint256","name":"submissionId","type":"uint256"},{"internalType":"uint256","name":"acceptedAt","type":"uint256"},{"internalType":"uint256","name":"rating","type":"uint256"},{"internalType":"bytes32","name":"proofHash","type":"bytes32"}],"stateMutability":"view","type":"function"},{"inputs":[{"internalType":"uint256","name":"challengeId","type":"uint256"},{"internalType":"uint256","name":"periodIndex","type":"uint256"}],"name":"getPeriodWindow","outputs":[{"internalType":"uint256","name":"periodStart","type":"uint256"},{"internalType":"uint256","name":"periodEnd","type":"uint256"}],"stateMutability":"view","type":"function"},{"inputs":[{"internalType":"uint256","name":"challengeId","type":"uint256"},{"internalType":"uint256","name":"periodIndex","type":"uint256"},{"internalType":"uint256","name":"submissionId","type":"uint256"},{"internalType":"uint256","name":"acceptedAt","type":"uint256"},{"internalType":"uint256","name":"rating","type":"uint256"},{"internalType":"bytes32","name":"proofHash","type":"bytes32"}],"name":"markPeriodCompleted","outputs":[],"stateMutability":"nonpayable","type":"function"},{"inputs":[],"name":"nextChallengeId","outputs":[{"internalType":"uint256","name":"","type":"uint256"}],"stateMutability":"view","type":"function"},{"inputs":[],"name":"oracle","outputs":[{"internalType":"address","name":"","type":"address"}],"stateMutability":"view","type":"function"},{"inputs":[{"internalType":"address","name":"","type":"address"}],"name":"outstandingPenaltyOf","outputs":[{"internalType":"uint256","name":"","type":"uint256"}],"stateMutability":"view","type":"function"},{"inputs":[],"name":"owner","outputs":[{"internalType":"address","name":"","type":"address"}],"stateMutability":"view","type":"function"},{"inputs":[],"name":"pause","outputs":[],"stateMutability":"nonpayable","type":"function"},{"inputs":[],"name":"paused","outputs":[{"internalType":"bool","name":"","type":"bool"}],"stateMutability":"view","type":"function"},{"inputs":[{"internalType":"uint256","name":"challengeId","type":"uint256"},{"internalType":"uint256","name":"periodIndex","type":"uint256"}],"name":"payPeriodPenalty","outputs":[],"stateMutability":"payable","type":"function"},{"inputs":[],"name":"penaltyRecipient","outputs":[{"internalType":"address","name":"","type":"address"}],"stateMutability":"view","type":"function"},{"inputs":[],"name":"renounceOwnership","outputs":[],"stateMutability":"nonpayable","type":"function"},{"inputs":[{"internalType":"address","name":"newOracle","type":"address"}],"name":"setOracle","outputs":[],"stateMutability":"nonpayable","type":"function"},{"inputs":[{"internalType":"address","name":"newPenaltyRecipient","type":"address"}],"name":"setPenaltyRecipient","outputs":[],"stateMutability":"nonpayable","type":"function"},{"inputs":[{"internalType":"address","name":"newTreasury","type":"address"}],"name":"setTreasury","outputs":[],"stateMutability":"nonpayable","type":"function"},{"inputs":[{"internalType":"uint256","name":"challengeId","type":"uint256"},{"internalType":"uint256","name":"periodIndex","type":"uint256"},{"internalType":"bytes32","name":"proofHash","type":"bytes32"}],"name":"slashPeriodNoOk","outputs":[],"stateMutability":"nonpayable","type":"function"},{"inputs":[{"internalType":"uint256","name":"challengeId","type":"uint256"},{"internalType":"uint256","name":"periodIndex","type":"uint256"},{"internalType":"bytes32","name":"proofHash","type":"bytes32"}],"name":"slashPeriodNoSubmission","outputs":[],"stateMutability":"nonpayable","type":"function"},{"inputs":[{"internalType":"address","name":"newOwner","type":"address"}],"name":"transferOwnership","outputs":[],"stateMutability":"nonpayable","type":"function"},{"inputs":[],"name":"treasury","outputs":[{"internalType":"address","name":"","type":"address"}],"stateMutability":"view","type":"function"},{"inputs":[],"name":"treasuryBalance","outputs":[{"internalType":"uint256","name":"","type":"uint256"}],"stateMutability":"view","type":"function"},{"inputs":[],"name":"unpause","outputs":[],"stateMutability":"nonpayable","type":"function"},{"inputs":[{"internalType":"uint256","name":"challengeId","type":"uint256"}],"name":"withdrawRemaining","outputs":[],"stateMutability":"nonpayable","type":"function"},{"inputs":[{"internalType":"uint256","name":"amount","type":"uint256"}],"name":"withdrawTreasury","outputs":[],"stateMutability":"nonpayable","type":"function"}],"evm":{"bytecode":{"linkReferences":{},"object":"60803461022757601f61290438819003918201601f19168301916001600160401b0383118484101761022b57808492606094604052833981010312610227576100478161023f565b9061006060406100596020840161023f565b920161023f565b903315610214575f8054336001600160a01b0319821681178355604051959290916001600160a01b0316907f8be0079c531659141344cd1fd0a4f28419497f9722a3daafe3b4186f6b6457e09080a360017f9b779b17422d0df92223018b32b4d1fa46e071723d6817e2486d003becc55f008190556004556001600160a01b03169283156101d257506001600160a01b031690811561018d576001600160a01b03169182156101485760018060a01b0319600154161760015560018060a01b0319600254161760025560018060a01b031960035416176003556040516126b090816102548239f35b60405162461bcd60e51b815260206004820152601960248201527f50656e616c747920726563697069656e74206973207a65726f000000000000006044820152606490fd5b60405162461bcd60e51b815260206004820152601860248201527f54726561737572792061646472657373206973207a65726f00000000000000006044820152606490fd5b62461bcd60e51b815260206004820152601660248201527f4f7261636c652061646472657373206973207a65726f000000000000000000006044820152606490fd5b631e4fbdf760e01b5f525f60045260245ffd5b5f80fd5b634e487b7160e01b5f52604160045260245ffd5b51906001600160a01b03821682036102275756fe6080806040526004361015610012575f80fd5b5f3560e01c908163012caae114612210575080630eb6e220146121d457806311f1fc99146120b15780631bdd4b7414611ed3578063313dab2014611eb65780633f4ba83a14611e4a5780635c975abb14611e2657806361d027b314611dfe5780636fbc4e5714611c1b578063715018a614611bc45780637753ddcf146118a35780637adbf973146117ee5780637dc0d1d0146117c65780638456cb591461176657806386fc0541146115965780638da5cb5b1461156f578063953d26e0146113825780639d8ec12914611117578063b25a7a181461105b578063b28476fa14610fd0578063b6f7d2b414610f43578063c2c94a3914610e99578063d7376ed014610e5d578063dbf9613d146104de578063e8903954146102b6578063f0f44260146101fa578063f2fde38b146101715763fc67aa5014610150575f80fd5b3461016d575f36600319011261016d576020600454604051908152f35b5f80fd5b3461016d57602036600319011261016d576004356001600160a01b0381169081900361016d5761019f61255d565b80156101e7575f80546001600160a01b03198116831782556001600160a01b0316907f8be0079c531659141344cd1fd0a4f28419497f9722a3daafe3b4186f6b6457e09080a3005b631e4fbdf760e01b5f525f60045260245ffd5b3461016d57602036600319011261016d576004356001600160a01b0381169081900361016d5761022861255d565b801561027157600280546001600160a01b0319811683179091556001600160a01b03167f4ab5be82436d353e61ca18726e984e561f5c1cc7c6d38b29d2553c790434705a5f80a3005b60405162461bcd60e51b815260206004820152601860248201527f54726561737572792061646472657373206973207a65726f00000000000000006044820152606490fd5b3461016d576102c436612233565b6102cf929192612583565b6102d761263d565b6102ec60018060a01b036001541633146123a5565b5f8281526007602052604090205461030e906001600160a01b0316151561227d565b5f828152600760208190526040909120600481015491810180546103389060281c60ff16156123df565b61035063ffffffff600284015460c01c168710612420565b845f52600860205260405f20865f5260205260405f2060ff81541660048110156104ca57859161038260079215612463565b5f888152602083905260409020546103a4906001600160a01b0316151561227d565b875f52816020526104046103fc8a6001600160401b036103f16103e9600260405f200154936103dd63ffffffff8660c01c168210612420565b838560801c169061252f565b828416612522565b9160401c1690612522565b4210156124af565b61040f6003826124f2565b4260018201558560028201556003810160ff1981541690555f60048201555f60058201555f6006820155015563ffffffff61044c8183541661250a565b825463ffffffff19169116179055546001600160a01b03165f908152600660205260409020805461047e908390612522565b90556040517fd388b3cee0096e9de51027ccef7addcc2ea1426463a17d76e5222a06b13eb8e5926060926003835260208301526040820152a360015f51602061265b5f395f51905f5255005b634e487b7160e01b5f52602160045260245ffd5b61010036600319011261016d576004356001600160401b03811161016d573660238201121561016d576001600160401b0381600401351161016d5736602482600401358301011161016d576024356001600160401b038116810361016d57604435916001600160401b038316830361016d576064356001600160401b038116810361016d576084359063ffffffff8216820361016d5760a4359063ffffffff8216820361016d5761058d612583565b61059561263d565b836004013515610e2657426001600160401b0386161115610de1576001600160401b03861615610d9c576001600160401b0386166001600160401b03821610610d455763ffffffff831615610d005763ffffffff821615610cc25760c43515610c7d5760e43515610c385760e43560c43510610be457335f52600960205260405f205480610b76575b5061063160c43563ffffffff851661252f565b958615610b3f57863403610b0257600454955f198714610aee57600187016004556040516101e081018181106001600160401b03821117610ada5760405233815261067f8760040135612542565b61068c60405191826122f7565b60048801358082526024890160208301375f602089600401358301015260208201526001600160401b03821660408201526001600160401b03831660608201526001600160401b038416608082015263ffffffff861660a082015263ffffffff851660c082015260c43560e082015260e435610100820152886101208201525f6101408201525f6101608201525f6101808201525f6101a082015260016101c0820152875f52600760205260405f2060018060a01b038251166bffffffffffffffffffffffff60a01b82541617815560208201518051906001600160401b038211610ada5761077e60018401546122bf565b601f8111610a92575b509260209b95928b9895928b98958e90601f83116001146109cb577fb9836def0fedf1c3230f4db465b2811c5417bc5b4dfce8ee3c8a846f531eb21e9b9c956001600160401b03956101c0600763ffffffff9c9b97878a988f9d988a985f926109c0575b50508160011b915f199060031b1c19161760018201555b60028101866040860151168154906fffffffffffffffff0000000000000000606088015160401b16908960801b608089015160801b169063ffffffff60c01b60a08a015160c01b169263ffffffff60e01b60c08b015160e01b169460018060e01b039263ffffffff60c01b19918e60c01b1617161716171717905560e0840151600382015561010084015160048201556101208401516005820155610140840151600682015501918a8061016083015116168b19845416178355610180810151151564ff0000000084549160201b169064ff0000000019161783556101a0810151151565ff000000000084549160281b169065ff000000000019161783550151151566ff00000000000082549160301b169066ff0000000000001916179055335f526020600990528d60405f20555f610140604051809e610120825280600401356101208301528060040135602482018484013760040135010152168f8b01521660408901521660608701521660808501521660a083015260c43560c083015260e43560e0830152610100820152610140813395601f8019916004013501168101030190a360015f51602061265b5f395f51905f5255604051908152f35b015190505f806107eb565b90600184015f52805f20915f5b601f1985168110610a5e5750956001600160401b03956101c07fb9836def0fedf1c3230f4db465b2811c5417bc5b4dfce8ee3c8a846f531eb21e9e9f9863ffffffff9c9b976001888f9d988c9a986007958c9a601f19811610610a46575b505050811b016001820155610802565b01515f1960f88460031b161c191690555f8080610a36565b939597999c50916020919496989a9d9b50600182918685015181550194019201918d9a9c99979593918f9c999795936109d8565b600184015f5260205f20601f840160051c81019160208510610ad0575b601f0160051c01905b818110610ac55750610787565b5f8155600101610ab8565b9091508190610aaf565b634e487b7160e01b5f52604160045260245ffd5b634e487b7160e01b5f52601160045260245ffd5b60405162461bcd60e51b8152602060048201526015602482015274125b98dbdc9c9958dd081155120819195c1bdcda5d605a1b6044820152606490fd5b60405162461bcd60e51b815260206004820152600f60248201526e125b9d985b1a590819195c1bdcda5d608a1b6044820152606490fd5b5f52600760205260ff600760405f20015460301c16610b95578661061e565b60405162461bcd60e51b815260206004820152602160248201527f5573657220616c72656164792068617320616374697665206368616c6c656e676044820152606560f81b6064820152608490fd5b60405162461bcd60e51b815260206004820152602660248201527f4d6973732070656e616c7479206d757374206265203e3d206661696c65642070604482015265656e616c747960d01b6064820152608490fd5b60405162461bcd60e51b815260206004820152601760248201527f50656e616c74794e6f4f6b206d757374206265203e20300000000000000000006044820152606490fd5b60405162461bcd60e51b815260206004820152601f60248201527f50656e616c74794e6f5375626d697373696f6e206d757374206265203e2030006044820152606490fd5b60405162461bcd60e51b815260206004820152601660248201527504d696e20726174696e67206d757374206265203e20360541b6044820152606490fd5b60405162461bcd60e51b815260206004820152601960248201527f546f74616c20706572696f6473206d757374206265203e2030000000000000006044820152606490fd5b60405162461bcd60e51b815260206004820152602960248201527f4379636c65206475726174696f6e206d757374206265203e3d20706572696f6460448201526810323ab930ba34b7b760b91b6064820152608490fd5b60405162461bcd60e51b815260206004820152601b60248201527f506572696f64206475726174696f6e206d757374206265203e203000000000006044820152606490fd5b60405162461bcd60e51b815260206004820152601b60248201527f5374617274206d75737420626520696e207468652066757475726500000000006044820152606490fd5b60405162461bcd60e51b815260206004820152600f60248201526e48616e646c6520697320656d70747960881b6044820152606490fd5b3461016d57602036600319011261016d576004356001600160a01b0381169081900361016d575f526009602052602060405f2054604051908152f35b3461016d57610ea73661224d565b90805f526007602052610ec760018060a01b0360405f205416151561227d565b5f52600860205260405f20905f5260205261010060405f2060ff81541690600181015490600281015460ff6003830154166004830154906005840154926007600686015495015495610f1c6040518099612263565b6020880152604087015215156060860152608085015260a084015260c083015260e0820152f35b3461016d576040610f533661224d565b90805f526007602052610f7260018060a01b03845f205416151561227d565b5f526007602052610fc46001600160401b03610fba610fb26002865f20015494610fa663ffffffff8760c01c168210612420565b838660801c169061252f565b828516612522565b92841c1682612522565b82519182526020820152f35b3461016d57602036600319011261016d576004355f81815260076020526040902054611006906001600160a01b0316151561227d565b5f526007602052600260405f2001545f1963ffffffff8260c01c160163ffffffff8111610aee576020916001600160401b036103f16103e963ffffffff6110539516838560801c1661252f565b604051908152f35b3461016d57602036600319011261016d576004356001600160a01b0381169081900361016d5761108961255d565b80156110d257600380546001600160a01b0319811683179091556001600160a01b03167fe40b8d8791a61c2b5a40ebae4d5fb64e9784b219d22b828c1f6c4edd7f6fd8f55f80a3005b60405162461bcd60e51b815260206004820152601960248201527f50656e616c747920726563697069656e74206973207a65726f000000000000006044820152606490fd5b6111203661224d565b611128612583565b5f8281526007602052604090205461114a906001600160a01b0316151561227d565b815f52600760205261116960018060a01b0360405f2054163314612318565b815f52600760205260405f2061118960ff600783015460281c16156123df565b825f52600860205260405f20825f5260205260405f209060ff82541660048110156104ca5760028114908115611377575b501561133a57600382019182549060ff82166112f5576002019283549182156112be578234036112795760019060ff19161790556111fd60068301918254612522565b9055815490546001600160a01b03165f9081526006602052604090208054909161122691612270565b90556112358154600554612522565b60055554916040519283527f902c8b11f9469d230448ab4b893f16ffe871e2ea6bb425774c6dfa1ad3ec804c60203394a460015f51602061265b5f395f51905f5255005b60405162461bcd60e51b815260206004820152601960248201527f496e636f72726563742070656e616c7479207061796d656e74000000000000006044820152606490fd5b60405162461bcd60e51b815260206004820152600f60248201526e50656e616c7479206973207a65726f60881b6044820152606490fd5b60405162461bcd60e51b815260206004820152601760248201527f50656e616c747920616c726561647920736574746c65640000000000000000006044820152606490fd5b60405162461bcd60e51b815260206004820152601560248201527414195c9a5bd9081a5cc81b9bdd081cdb185cda1959605a1b6044820152606490fd5b6003915014856111ba565b3461016d5761139036612233565b61139b929192612583565b6113a361263d565b6113b860018060a01b036001541633146123a5565b5f828152600760205260409020546113da906001600160a01b0316151561227d565b5f828152600760208190526040909120600381015491810180546114049060281c60ff16156123df565b61141c63ffffffff600284015460c01c168710612420565b845f52600860205260405f20865f5260205260405f2060ff81541660048110156104ca57859161144e60079215612463565b5f88815260208390526040902054611470906001600160a01b0316151561227d565b875f52816020526114a96103fc8a6001600160401b036103f16103e9600260405f200154936103dd63ffffffff8660c01c168210612420565b6114b46002826124f2565b4260018201558560028201556003810160ff1981541690555f60048201555f60058201555f6006820155015563ffffffff6114f18183541661250a565b825463ffffffff19169116179055546001600160a01b03165f9081526006602052604090208054611523908390612522565b90556040517fd388b3cee0096e9de51027ccef7addcc2ea1426463a17d76e5222a06b13eb8e5926060926002835260208301526040820152a360015f51602061265b5f395f51905f5255005b3461016d575f36600319011261016d575f546040516001600160a01b039091168152602090f35b3461016d57602036600319011261016d576004356115b2612583565b5f818152600760205260409020546115d4906001600160a01b0316151561227d565b805f5260076020526115f360018060a01b0360405f2054163314612318565b805f52600760205260405f209060078201805461161560ff8260301c16612359565b61162560ff8260281c16156123df565b60ff8160201c166117215763ffffffff600285015460c01c1663ffffffff8216036116dc576401000000009066ff00ff00000000191617905560018060a01b038254165f5260096020525f60408120557f4381c4ff301f4803259d996fd5ef93c9573568f5f59e2f4d584d73decc89caec602060018060a01b03845416936116b360058201958654906125bb565b5493546040519081526001600160a01b0390941693a360015f51602061265b5f395f51905f5255005b60405162461bcd60e51b815260206004820152601860248201527f4e6f7420616c6c20706572696f6473207265736f6c76656400000000000000006044820152606490fd5b60405162461bcd60e51b815260206004820152601b60248201527f52656d61696e696e6720616c72656164792077697468647261776e00000000006044820152606490fd5b3461016d575f36600319011261016d5761177e61255d565b61178661263d565b5f805460ff60a01b1916600160a01b1790556040513381527f62e78cea01bee320cd4e420270b5ea74000d11b0c9f74754ebdbfc544b05a25890602090a1005b3461016d575f36600319011261016d576001546040516001600160a01b039091168152602090f35b3461016d57602036600319011261016d576004356001600160a01b0381169081900361016d5761181c61255d565b801561186557600180546001600160a01b0319811683179091556001600160a01b03167f078c3b417dadf69374a59793b829c52001247130433427049317bde56607b1b75f80a3005b60405162461bcd60e51b81526020600482015260166024820152754f7261636c652061646472657373206973207a65726f60501b6044820152606490fd5b3461016d5760c036600319011261016d5760243560043560843560643560443560a4356118ce61263d565b6118e360018060a01b036001541633146123a5565b5f85815260076020526040902054611905906001600160a01b0316151561227d565b845f52600760205260405f2093600785019460ff8654611929828260301c16612359565b611938828260281c16156123df565b60201c16611b89576002015461195863ffffffff8260c01c168910612420565b60e01c8110611b4d578215611b0857855f52600860205260405f20875f5260205260405f209360ff85541660048110156104ca576119969015612463565b5f878152600760205260409020546119b8906001600160a01b0316151561227d565b865f526007602052600260405f2001546119dc63ffffffff8260c01c168a10612420565b611a046001600160401b036119f9610fb2828560801c168d61252f565b9260401c1682612522565b90611a11824210156124af565b8210159081611afe575b5015611ab9577ff71ffb44e9ffc964db62374983d76eaa14b53c8d33bc2f9dfd371800090ceb7195836007608097600160ff198254161781554260018201555f600282015560038101600160ff19825416179055876004820155846005820155856006820155015563ffffffff611a948183541661250a565b1663ffffffff19825416179055604051938452602084015260408301526060820152a3005b60405162461bcd60e51b815260206004820152601960248201527f61636365707465644174206f75747369646520706572696f64000000000000006044820152606490fd5b9050811089611a1b565b60405162461bcd60e51b815260206004820152601960248201527f5375626d697373696f6e206964206d757374206265203e2030000000000000006044820152606490fd5b60405162461bcd60e51b8152602060048201526014602482015273526174696e672062656c6f77206d696e696d756d60601b6044820152606490fd5b60405162461bcd60e51b815260206004820152601360248201527221b430b63632b733b2903bb4ba34323930bbb760691b6044820152606490fd5b3461016d575f36600319011261016d57611bdc61255d565b5f80546001600160a01b0319811682556001600160a01b03167f8be0079c531659141344cd1fd0a4f28419497f9722a3daafe3b4186f6b6457e08280a3005b3461016d57602036600319011261016d57600435611c37612583565b5f81815260076020526040902054611c59906001600160a01b0316151561227d565b805f526007602052611c7860018060a01b0360405f2054163314612318565b805f52600760205260405f2090600782018054611c9a60ff8260301c16612359565b60ff8160281c16611db95760ff8160201c16611d74576001600160401b03600285015416421015611d2f57650100000000009066ffff0000000000191617905560018060a01b038254165f5260096020525f60408120557f6f3468a095154788e69ed719ee418416c1e338ac2348ccb3531bb97a0ed6ed9d602060018060a01b03845416936116b360058201958654906125bb565b60405162461bcd60e51b815260206004820152601960248201527f4368616c6c656e676520616c72656164792073746172746564000000000000006044820152606490fd5b60405162461bcd60e51b815260206004820152601b60248201527f4368616c6c656e676520616c72656164792077697468647261776e00000000006044820152606490fd5b60405162461bcd60e51b815260206004820152601a60248201527f4368616c6c656e676520616c72656164792063616e63656c65640000000000006044820152606490fd5b3461016d575f36600319011261016d576002546040516001600160a01b039091168152602090f35b3461016d575f36600319011261016d57602060ff5f5460a01c166040519015158152f35b3461016d575f36600319011261016d57611e6261255d565b5f5460ff8160a01c1615611ea75760ff60a01b19165f556040513381527f5db9ee0a495bf2e6ff9c91a7834c1ba4fdd244a5e8aa4e537bd38aeae4b073aa90602090a1005b638dfc202b60e01b5f5260045ffd5b3461016d575f36600319011261016d576020600554604051908152f35b3461016d57602036600319011261016d576004355f81815260076020526040902054611f09906001600160a01b0316151561227d565b5f52600760205260405f2060018060a01b0381541690600181019160028201549260038301549260048101549060058101546007600683015492015492604051965f98865496611f58886122bf565b90818b5260208b01986001811690815f146120945750600114612059575b50509060ff9594939291611f908a6102009b9c038c6122f7565b6040519a8b998a526101e060208b0152518098816101e08c01528b8b015e5f8a898b0101526001600160401b03811660408a01526001600160401b038160401c1660608a01526001600160401b038160801c1660808a015263ffffffff8160c01c1660a08a015260e01c60c089015260e088015261010087015261012086015261014085015263ffffffff8116610160850152818160201c161515610180850152818160281c1615156101a085015260301c1615156101c0830152601f80199101168101030190f35b909a505f5260205f205f905b8b821061207d57508901602001995080611f90611f76565b6001818c6020858195549201015201910190612065565b60ff19168a525050151560051b8901602001995080611f90611f76565b3461016d57602036600319011261016d576004356120cd61255d565b6120d5612583565b801561219a5760055480821161215557816120ef91612270565b6005556002546121099082906001600160a01b03166125bb565b6002546040519182526001600160a01b0316907f41fdd680478135993bc53fb2ffaf9560951b57ef62ff6badd02b61e018b4f17f90602090a260015f51602061265b5f395f51905f5255005b60405162461bcd60e51b815260206004820152601f60248201527f416d6f756e7420657863656564732074726561737572792062616c616e6365006044820152606490fd5b60405162461bcd60e51b81526020600482015260126024820152710416d6f756e74206d757374206265203e20360741b6044820152606490fd5b3461016d57602036600319011261016d576004356001600160a01b0381169081900361016d575f526006602052602060405f2054604051908152f35b3461016d575f36600319011261016d576003546001600160a01b03168152602090f35b606090600319011261016d57600435906024359060443590565b604090600319011261016d576004359060243590565b9060048210156104ca5752565b91908203918211610aee57565b1561228457565b60405162461bcd60e51b815260206004820152601360248201527210da185b1b195b99d9481b9bdd08199bdd5b99606a1b6044820152606490fd5b90600182811c921680156122ed575b60208310146122d957565b634e487b7160e01b5f52602260045260245ffd5b91607f16916122ce565b90601f801991011681019081106001600160401b03821117610ada57604052565b1561231f57565b60405162461bcd60e51b81526020600482015260126024820152712737ba1031b430b63632b733b2903ab9b2b960711b6044820152606490fd5b1561236057565b60405162461bcd60e51b815260206004820152601760248201527f4368616c6c656e6765206973206e6f74206163746976650000000000000000006044820152606490fd5b156123ac57565b60405162461bcd60e51b815260206004820152600b60248201526a4f6e6c79206f7261636c6560a81b6044820152606490fd5b156123e657565b60405162461bcd60e51b815260206004820152601260248201527110da185b1b195b99d94818d85b98d95b195960721b6044820152606490fd5b1561242757565b60405162461bcd60e51b8152602060048201526014602482015273092dcecc2d8d2c840e0cae4d2dec840d2dcc8caf60631b6044820152606490fd5b1561246a57565b60405162461bcd60e51b815260206004820152601760248201527f506572696f6420616c7265616479207265736f6c7665640000000000000000006044820152606490fd5b156124b657565b60405162461bcd60e51b815260206004820152601460248201527314195c9a5bd9081b9bdd08195b991959081e595d60621b6044820152606490fd5b9060048110156104ca5760ff80198354169116179055565b63ffffffff60019116019063ffffffff8211610aee57565b91908201809211610aee57565b81810292918115918404141715610aee57565b6001600160401b038111610ada57601f01601f191660200190565b5f546001600160a01b0316330361257057565b63118cdaa760e01b5f523360045260245ffd5b60025f51602061265b5f395f51905f5254146125ac5760025f51602061265b5f395f51905f5255565b633ee5aeb560e01b5f5260045ffd5b5f918291829182916001600160a01b03165af13d15612638573d6125de81612542565b906125ec60405192836122f7565b81525f60203d92013e5b156125fd57565b60405162461bcd60e51b8152602060048201526013602482015272115512081d1c985b9cd9995c8819985a5b1959606a1b6044820152606490fd5b6125f6565b60ff5f5460a01c1661264b57565b63d93c066560e01b5f5260045ffdfe9b779b17422d0df92223018b32b4d1fa46e071723d6817e2486d003becc55f00a2646970667358221220aa454056477ae22a1767cfabafd23aeab811fccaf8a1fc79bf75ddece1ec1f4964736f6c634300081c0033","opcodes":"PUSH1 0x80 CALLVALUE PUSH2 0x227 JUMPI PUSH1 0x1F PUSH2 0x2904 CODESIZE DUP2 SWAP1 SUB SWAP2 DUP3 ADD PUSH1 0x1F NOT AND DUP4 ADD SWAP2 PUSH1 0x1 PUSH1 0x1 PUSH1 0x40 SHL SUB DUP4 GT DUP5 DUP5 LT OR PUSH2 0x22B JUMPI DUP1 DUP5 SWAP3 PUSH1 0x60 SWAP5 PUSH1 0x40 MSTORE DUP4 CODECOPY DUP2 ADD SUB SLT PUSH2 0x227 JUMPI PUSH2 0x47 DUP2 PUSH2 0x23F JUMP JUMPDEST SWAP1 PUSH2 0x60 PUSH1 0x40 PUSH2 0x59 PUSH1 0x20 DUP5 ADD PUSH2 0x23F JUMP JUMPDEST SWAP3 ADD PUSH2 0x23F JUMP JUMPDEST SWAP1 CALLER ISZERO PUSH2 0x214 JUMPI PUSH0 DUP1 SLOAD CALLER PUSH1 0x1 PUSH1 0x1 PUSH1 0xA0 SHL SUB NOT DUP3 AND DUP2 OR DUP4 SSTORE PUSH1 0x40 MLOAD SWAP6 SWAP3 SWAP1 SWAP2 PUSH1 0x1 PUSH1 0x1 PUSH1 0xA0 SHL SUB AND SWAP1 PUSH32 0x8BE0079C531659141344CD1FD0A4F28419497F9722A3DAAFE3B4186F6B6457E0 SWAP1 DUP1 LOG3 PUSH1 0x1 PUSH32 0x9B779B17422D0DF92223018B32B4D1FA46E071723D6817E2486D003BECC55F00 DUP2 SWAP1 SSTORE PUSH1 0x4 SSTORE PUSH1 0x1 PUSH1 0x1 PUSH1 0xA0 SHL SUB AND SWAP3 DUP4 ISZERO PUSH2 0x1D2 JUMPI POP PUSH1 0x1 PUSH1 0x1 PUSH1 0xA0 SHL SUB AND SWAP1 DUP2 ISZERO PUSH2 0x18D JUMPI PUSH1 0x1 PUSH1 0x1 PUSH1 0xA0 SHL SUB AND SWAP2 DUP3 ISZERO PUSH2 0x148 JUMPI PUSH1 0x1 DUP1 PUSH1 0xA0 SHL SUB NOT PUSH1 0x1 SLOAD AND OR PUSH1 0x1 SSTORE PUSH1 0x1 DUP1 PUSH1 0xA0 SHL SUB NOT PUSH1 0x2 SLOAD AND OR PUSH1 0x2 SSTORE PUSH1 0x1 DUP1 PUSH1 0xA0 SHL SUB NOT PUSH1 0x3 SLOAD AND OR PUSH1 0x3 SSTORE PUSH1 0x40 MLOAD PUSH2 0x26B0 SWAP1 DUP2 PUSH2 0x254 DUP3 CODECOPY RETURN JUMPDEST PUSH1 0x40 MLOAD PUSH3 0x461BCD PUSH1 0xE5 SHL DUP2 MSTORE PUSH1 0x20 PUSH1 0x4 DUP3 ADD MSTORE PUSH1 0x19 PUSH1 0x24 DUP3 ADD MSTORE PUSH32 0x50656E616C747920726563697069656E74206973207A65726F00000000000000 PUSH1 0x44 DUP3 ADD MSTORE PUSH1 0x64 SWAP1 REVERT JUMPDEST PUSH1 0x40 MLOAD PUSH3 0x461BCD PUSH1 0xE5 SHL DUP2 MSTORE PUSH1 0x20 PUSH1 0x4 DUP3 ADD MSTORE PUSH1 0x18 PUSH1 0x24 DUP3 ADD MSTORE PUSH32 0x54726561737572792061646472657373206973207A65726F0000000000000000 PUSH1 0x44 DUP3 ADD MSTORE PUSH1 0x64 SWAP1 REVERT JUMPDEST PUSH3 0x461BCD PUSH1 0xE5 SHL DUP2 MSTORE PUSH1 0x20 PUSH1 0x4 DUP3 ADD MSTORE PUSH1 0x16 PUSH1 0x24 DUP3 ADD MSTORE PUSH32 0x4F7261636C652061646472657373206973207A65726F00000000000000000000 PUSH1 0x44 DUP3 ADD MSTORE PUSH1 0x64 SWAP1 REVERT JUMPDEST PUSH4 0x1E4FBDF7 PUSH1 0xE0 SHL PUSH0 MSTORE PUSH0 PUSH1 0x4 MSTORE PUSH1 0x24 PUSH0 REVERT JUMPDEST PUSH0 DUP1 REVERT JUMPDEST PUSH4 0x4E487B71 PUSH1 0xE0 SHL PUSH0 MSTORE PUSH1 0x41 PUSH1 0x4 MSTORE PUSH1 0x24 PUSH0 REVERT JUMPDEST MLOAD SWAP1 PUSH1 0x1 PUSH1 0x1 PUSH1 0xA0 SHL SUB DUP3 AND DUP3 SUB PUSH2 0x227 JUMPI JUMP INVALID PUSH1 0x80 DUP1 PUSH1 0x40 MSTORE PUSH1 0x4 CALLDATASIZE LT ISZERO PUSH2 0x12 JUMPI PUSH0 DUP1 REVERT JUMPDEST PUSH0 CALLDATALOAD PUSH1 0xE0 SHR SWAP1 DUP2 PUSH4 0x12CAAE1 EQ PUSH2 0x2210 JUMPI POP DUP1 PUSH4 0xEB6E220 EQ PUSH2 0x21D4 JUMPI DUP1 PUSH4 0x11F1FC99 EQ PUSH2 0x20B1 JUMPI DUP1 PUSH4 0x1BDD4B74 EQ PUSH2 0x1ED3 JUMPI DUP1 PUSH4 0x313DAB20 EQ PUSH2 0x1EB6 JUMPI DUP1 PUSH4 0x3F4BA83A EQ PUSH2 0x1E4A JUMPI DUP1 PUSH4 0x5C975ABB EQ PUSH2 0x1E26 JUMPI DUP1 PUSH4 0x61D027B3 EQ PUSH2 0x1DFE JUMPI DUP1 PUSH4 0x6FBC4E57 EQ PUSH2 0x1C1B JUMPI DUP1 PUSH4 0x715018A6 EQ PUSH2 0x1BC4 JUMPI DUP1 PUSH4 0x7753DDCF EQ PUSH2 0x18A3 JUMPI DUP1 PUSH4 0x7ADBF973 EQ PUSH2 0x17EE JUMPI DUP1 PUSH4 0x7DC0D1D0 EQ PUSH2 0x17C6 JUMPI DUP1 PUSH4 0x8456CB59 EQ PUSH2 0x1766 JUMPI DUP1 PUSH4 0x86FC0541 EQ PUSH2 0x1596 JUMPI DUP1 PUSH4 0x8DA5CB5B EQ PUSH2 0x156F JUMPI DUP1 PUSH4 0x953D26E0 EQ PUSH2 0x1382 JUMPI DUP1 PUSH4 0x9D8EC129 EQ PUSH2 0x1117 JUMPI DUP1 PUSH4 0xB25A7A18 EQ PUSH2 0x105B JUMPI DUP1 PUSH4 0xB28476FA EQ PUSH2 0xFD0 JUMPI DUP1 PUSH4 0xB6F7D2B4 EQ PUSH2 0xF43 JUMPI DUP1 PUSH4 0xC2C94A39 EQ PUSH2 0xE99 JUMPI DUP1 PUSH4 0xD7376ED0 EQ PUSH2 0xE5D JUMPI DUP1 PUSH4 0xDBF9613D EQ PUSH2 0x4DE JUMPI DUP1 PUSH4 0xE8903954 EQ PUSH2 0x2B6 JUMPI DUP1 PUSH4 0xF0F44260 EQ PUSH2 0x1FA JUMPI DUP1 PUSH4 0xF2FDE38B EQ PUSH2 0x171 JUMPI PUSH4 0xFC67AA50 EQ PUSH2 0x150 JUMPI PUSH0 DUP1 REVERT JUMPDEST CALLVALUE PUSH2 0x16D JUMPI PUSH0 CALLDATASIZE PUSH1 0x3 NOT ADD SLT PUSH2 0x16D JUMPI PUSH1 0x20 PUSH1 0x4 SLOAD PUSH1 0x40 MLOAD SWAP1 DUP2 MSTORE RETURN JUMPDEST PUSH0 DUP1 REVERT JUMPDEST CALLVALUE PUSH2 0x16D JUMPI PUSH1 0x20 CALLDATASIZE PUSH1 0x3 NOT ADD SLT PUSH2 0x16D JUMPI PUSH1 0x4 CALLDATALOAD PUSH1 0x1 PUSH1 0x1 PUSH1 0xA0 SHL SUB DUP2 AND SWAP1 DUP2 SWAP1 SUB PUSH2 0x16D JUMPI PUSH2 0x19F PUSH2 0x255D JUMP JUMPDEST DUP1 ISZERO PUSH2 0x1E7 JUMPI PUSH0 DUP1 SLOAD PUSH1 0x1 PUSH1 0x1 PUSH1 0xA0 SHL SUB NOT DUP2 AND DUP4 OR DUP3 SSTORE PUSH1 0x1 PUSH1 0x1 PUSH1 0xA0 SHL SUB AND SWAP1 PUSH32 0x8BE0079C531659141344CD1FD0A4F28419497F9722A3DAAFE3B4186F6B6457E0 SWAP1 DUP1 LOG3 STOP JUMPDEST PUSH4 0x1E4FBDF7 PUSH1 0xE0 SHL PUSH0 MSTORE PUSH0 PUSH1 0x4 MSTORE PUSH1 0x24 PUSH0 REVERT JUMPDEST CALLVALUE PUSH2 0x16D JUMPI PUSH1 0x20 CALLDATASIZE PUSH1 0x3 NOT ADD SLT PUSH2 0x16D JUMPI PUSH1 0x4 CALLDATALOAD PUSH1 0x1 PUSH1 0x1 PUSH1 0xA0 SHL SUB DUP2 AND SWAP1 DUP2 SWAP1 SUB PUSH2 0x16D JUMPI PUSH2 0x228 PUSH2 0x255D JUMP JUMPDEST DUP1 ISZERO PUSH2 0x271 JUMPI PUSH1 0x2 DUP1 SLOAD PUSH1 0x1 PUSH1 0x1 PUSH1 0xA0 SHL SUB NOT DUP2 AND DUP4 OR SWAP1 SWAP2 SSTORE PUSH1 0x1 PUSH1 0x1 PUSH1 0xA0 SHL SUB AND PUSH32 0x4AB5BE82436D353E61CA18726E984E561F5C1CC7C6D38B29D2553C790434705A PUSH0 DUP1 LOG3 STOP JUMPDEST PUSH1 0x40 MLOAD PUSH3 0x461BCD PUSH1 0xE5 SHL DUP2 MSTORE PUSH1 0x20 PUSH1 0x4 DUP3 ADD MSTORE PUSH1 0x18 PUSH1 0x24 DUP3 ADD MSTORE PUSH32 0x54726561737572792061646472657373206973207A65726F0000000000000000 PUSH1 0x44 DUP3 ADD MSTORE PUSH1 0x64 SWAP1 REVERT JUMPDEST CALLVALUE PUSH2 0x16D JUMPI PUSH2 0x2C4 CALLDATASIZE PUSH2 0x2233 JUMP JUMPDEST PUSH2 0x2CF SWAP3 SWAP2 SWAP3 PUSH2 0x2583 JUMP JUMPDEST PUSH2 0x2D7 PUSH2 0x263D JUMP JUMPDEST PUSH2 0x2EC PUSH1 0x1 DUP1 PUSH1 0xA0 SHL SUB PUSH1 0x1 SLOAD AND CALLER EQ PUSH2 0x23A5 JUMP JUMPDEST PUSH0 DUP3 DUP2 MSTORE PUSH1 0x7 PUSH1 0x20 MSTORE PUSH1 0x40 SWAP1 KECCAK256 SLOAD PUSH2 0x30E SWAP1 PUSH1 0x1 PUSH1 0x1 PUSH1 0xA0 SHL SUB AND ISZERO ISZERO PUSH2 0x227D JUMP JUMPDEST PUSH0 DUP3 DUP2 MSTORE PUSH1 0x7 PUSH1 0x20 DUP2 SWAP1 MSTORE PUSH1 0x40 SWAP1 SWAP2 KECCAK256 PUSH1 0x4 DUP2 ADD SLOAD SWAP2 DUP2 ADD DUP1 SLOAD PUSH2 0x338 SWAP1 PUSH1 0x28 SHR PUSH1 0xFF AND ISZERO PUSH2 0x23DF JUMP JUMPDEST PUSH2 0x350 PUSH4 0xFFFFFFFF PUSH1 0x2 DUP5 ADD SLOAD PUSH1 0xC0 SHR AND DUP8 LT PUSH2 0x2420 JUMP JUMPDEST DUP5 PUSH0 MSTORE PUSH1 0x8 PUSH1 0x20 MSTORE PUSH1 0x40 PUSH0 KECCAK256 DUP7 PUSH0 MSTORE PUSH1 0x20 MSTORE PUSH1 0x40 PUSH0 KECCAK256 PUSH1 0xFF DUP2 SLOAD AND PUSH1 0x4 DUP2 LT ISZERO PUSH2 0x4CA JUMPI DUP6 SWAP2 PUSH2 0x382 PUSH1 0x7 SWAP3 ISZERO PUSH2 0x2463 JUMP JUMPDEST PUSH0 DUP9 DUP2 MSTORE PUSH1 0x20 DUP4 SWAP1 MSTORE PUSH1 0x40 SWAP1 KECCAK256 SLOAD PUSH2 0x3A4 SWAP1 PUSH1 0x1 PUSH1 0x1 PUSH1 0xA0 SHL SUB AND ISZERO ISZERO PUSH2 0x227D JUMP JUMPDEST DUP8 PUSH0 MSTORE DUP2 PUSH1 0x20 MSTORE PUSH2 0x404 PUSH2 0x3FC DUP11 PUSH1 0x1 PUSH1 0x1 PUSH1 0x40 SHL SUB PUSH2 0x3F1 PUSH2 0x3E9 PUSH1 0x2 PUSH1 0x40 PUSH0 KECCAK256 ADD SLOAD SWAP4 PUSH2 0x3DD PUSH4 0xFFFFFFFF DUP7 PUSH1 0xC0 SHR AND DUP3 LT PUSH2 0x2420 JUMP JUMPDEST DUP4 DUP6 PUSH1 0x80 SHR AND SWAP1 PUSH2 0x252F JUMP JUMPDEST DUP3 DUP5 AND PUSH2 0x2522 JUMP JUMPDEST SWAP2 PUSH1 0x40 SHR AND SWAP1 PUSH2 0x2522 JUMP JUMPDEST TIMESTAMP LT ISZERO PUSH2 0x24AF JUMP JUMPDEST PUSH2 0x40F PUSH1 0x3 DUP3 PUSH2 0x24F2 JUMP JUMPDEST TIMESTAMP PUSH1 0x1 DUP3 ADD SSTORE DUP6 PUSH1 0x2 DUP3 ADD SSTORE PUSH1 0x3 DUP2 ADD PUSH1 0xFF NOT DUP2 SLOAD AND SWAP1 SSTORE PUSH0 PUSH1 0x4 DUP3 ADD SSTORE PUSH0 PUSH1 0x5 DUP3 ADD SSTORE PUSH0 PUSH1 0x6 DUP3 ADD SSTORE ADD SSTORE PUSH4 0xFFFFFFFF PUSH2 0x44C DUP2 DUP4 SLOAD AND PUSH2 0x250A JUMP JUMPDEST DUP3 SLOAD PUSH4 0xFFFFFFFF NOT AND SWAP2 AND OR SWAP1 SSTORE SLOAD PUSH1 0x1 PUSH1 0x1 PUSH1 0xA0 SHL SUB AND PUSH0 SWAP1 DUP2 MSTORE PUSH1 0x6 PUSH1 0x20 MSTORE PUSH1 0x40 SWAP1 KECCAK256 DUP1 SLOAD PUSH2 0x47E SWAP1 DUP4 SWAP1 PUSH2 0x2522 JUMP JUMPDEST SWAP1 SSTORE PUSH1 0x40 MLOAD PUSH32 0xD388B3CEE0096E9DE51027CCEF7ADDCC2EA1426463A17D76E5222A06B13EB8E5 SWAP3 PUSH1 0x60 SWAP3 PUSH1 0x3 DUP4 MSTORE PUSH1 0x20 DUP4 ADD MSTORE PUSH1 0x40 DUP3 ADD MSTORE LOG3 PUSH1 0x1 PUSH0 MLOAD PUSH1 0x20 PUSH2 0x265B PUSH0 CODECOPY PUSH0 MLOAD SWAP1 PUSH0 MSTORE SSTORE STOP JUMPDEST PUSH4 0x4E487B71 PUSH1 0xE0 SHL PUSH0 MSTORE PUSH1 0x21 PUSH1 0x4 MSTORE PUSH1 0x24 PUSH0 REVERT JUMPDEST PUSH2 0x100 CALLDATASIZE PUSH1 0x3 NOT ADD SLT PUSH2 0x16D JUMPI PUSH1 0x4 CALLDATALOAD PUSH1 0x1 PUSH1 0x1 PUSH1 0x40 SHL SUB DUP2 GT PUSH2 0x16D JUMPI CALLDATASIZE PUSH1 0x23 DUP3 ADD SLT ISZERO PUSH2 0x16D JUMPI PUSH1 0x1 PUSH1 0x1 PUSH1 0x40 SHL SUB DUP2 PUSH1 0x4 ADD CALLDATALOAD GT PUSH2 0x16D JUMPI CALLDATASIZE PUSH1 0x24 DUP3 PUSH1 0x4 ADD CALLDATALOAD DUP4 ADD ADD GT PUSH2 0x16D JUMPI PUSH1 0x24 CALLDATALOAD PUSH1 0x1 PUSH1 0x1 PUSH1 0x40 SHL SUB DUP2 AND DUP2 SUB PUSH2 0x16D JUMPI PUSH1 0x44 CALLDATALOAD SWAP2 PUSH1 0x1 PUSH1 0x1 PUSH1 0x40 SHL SUB DUP4 AND DUP4 SUB PUSH2 0x16D JUMPI PUSH1 0x64 CALLDATALOAD PUSH1 0x1 PUSH1 0x1 PUSH1 0x40 SHL SUB DUP2 AND DUP2 SUB PUSH2 0x16D JUMPI PUSH1 0x84 CALLDATALOAD SWAP1 PUSH4 0xFFFFFFFF DUP3 AND DUP3 SUB PUSH2 0x16D JUMPI PUSH1 0xA4 CALLDATALOAD SWAP1 PUSH4 0xFFFFFFFF DUP3 AND DUP3 SUB PUSH2 0x16D JUMPI PUSH2 0x58D PUSH2 0x2583 JUMP JUMPDEST PUSH2 0x595 PUSH2 0x263D JUMP JUMPDEST DUP4 PUSH1 0x4 ADD CALLDATALOAD ISZERO PUSH2 0xE26 JUMPI TIMESTAMP PUSH1 0x1 PUSH1 0x1 PUSH1 0x40 SHL SUB DUP7 AND GT ISZERO PUSH2 0xDE1 JUMPI PUSH1 0x1 PUSH1 0x1 PUSH1 0x40 SHL SUB DUP7 AND ISZERO PUSH2 0xD9C JUMPI PUSH1 0x1 PUSH1 0x1 PUSH1 0x40 SHL SUB DUP7 AND PUSH1 0x1 PUSH1 0x1 PUSH1 0x40 SHL SUB DUP3 AND LT PUSH2 0xD45 JUMPI PUSH4 0xFFFFFFFF DUP4 AND ISZERO PUSH2 0xD00 JUMPI PUSH4 0xFFFFFFFF DUP3 AND ISZERO PUSH2 0xCC2 JUMPI PUSH1 0xC4 CALLDATALOAD ISZERO PUSH2 0xC7D JUMPI PUSH1 0xE4 CALLDATALOAD ISZERO PUSH2 0xC38 JUMPI PUSH1 0xE4 CALLDATALOAD PUSH1 0xC4 CALLDATALOAD LT PUSH2 0xBE4 JUMPI CALLER PUSH0 MSTORE PUSH1 0x9 PUSH1 0x20 MSTORE PUSH1 0x40 PUSH0 KECCAK256 SLOAD DUP1 PUSH2 0xB76 JUMPI JUMPDEST POP PUSH2 0x631 PUSH1 0xC4 CALLDATALOAD PUSH4 0xFFFFFFFF DUP6 AND PUSH2 0x252F JUMP JUMPDEST SWAP6 DUP7 ISZERO PUSH2 0xB3F JUMPI DUP7 CALLVALUE SUB PUSH2 0xB02 JUMPI PUSH1 0x4 SLOAD SWAP6 PUSH0 NOT DUP8 EQ PUSH2 0xAEE JUMPI PUSH1 0x1 DUP8 ADD PUSH1 0x4 SSTORE PUSH1 0x40 MLOAD PUSH2 0x1E0 DUP2 ADD DUP2 DUP2 LT PUSH1 0x1 PUSH1 0x1 PUSH1 0x40 SHL SUB DUP3 GT OR PUSH2 0xADA JUMPI PUSH1 0x40 MSTORE CALLER DUP2 MSTORE PUSH2 0x67F DUP8 PUSH1 0x4 ADD CALLDATALOAD PUSH2 0x2542 JUMP JUMPDEST PUSH2 0x68C PUSH1 0x40 MLOAD SWAP2 DUP3 PUSH2 0x22F7 JUMP JUMPDEST PUSH1 0x4 DUP9 ADD CALLDATALOAD DUP1 DUP3 MSTORE PUSH1 0x24 DUP10 ADD PUSH1 0x20 DUP4 ADD CALLDATACOPY PUSH0 PUSH1 0x20 DUP10 PUSH1 0x4 ADD CALLDATALOAD DUP4 ADD ADD MSTORE PUSH1 0x20 DUP3 ADD MSTORE PUSH1 0x1 PUSH1 0x1 PUSH1 0x40 SHL SUB DUP3 AND PUSH1 0x40 DUP3 ADD MSTORE PUSH1 0x1 PUSH1 0x1 PUSH1 0x40 SHL SUB DUP4 AND PUSH1 0x60 DUP3 ADD MSTORE PUSH1 0x1 PUSH1 0x1 PUSH1 0x40 SHL SUB DUP5 AND PUSH1 0x80 DUP3 ADD MSTORE PUSH4 0xFFFFFFFF DUP7 AND PUSH1 0xA0 DUP3 ADD MSTORE PUSH4 0xFFFFFFFF DUP6 AND PUSH1 0xC0 DUP3 ADD MSTORE PUSH1 0xC4 CALLDATALOAD PUSH1 0xE0 DUP3 ADD MSTORE PUSH1 0xE4 CALLDATALOAD PUSH2 0x100 DUP3 ADD MSTORE DUP9 PUSH2 0x120 DUP3 ADD MSTORE PUSH0 PUSH2 0x140 DUP3 ADD MSTORE PUSH0 PUSH2 0x160 DUP3 ADD MSTORE PUSH0 PUSH2 0x180 DUP3 ADD MSTORE PUSH0 PUSH2 0x1A0 DUP3 ADD MSTORE PUSH1 0x1 PUSH2 0x1C0 DUP3 ADD MSTORE DUP8 PUSH0 MSTORE PUSH1 0x7 PUSH1 0x20 MSTORE PUSH1 0x40 PUSH0 KECCAK256 PUSH1 0x1 DUP1 PUSH1 0xA0 SHL SUB DUP3 MLOAD AND PUSH12 0xFFFFFFFFFFFFFFFFFFFFFFFF PUSH1 0xA0 SHL DUP3 SLOAD AND OR DUP2 SSTORE PUSH1 0x20 DUP3 ADD MLOAD DUP1 MLOAD SWAP1 PUSH1 0x1 PUSH1 0x1 PUSH1 0x40 SHL SUB DUP3 GT PUSH2 0xADA JUMPI PUSH2 0x77E PUSH1 0x1 DUP5 ADD SLOAD PUSH2 0x22BF JUMP JUMPDEST PUSH1 0x1F DUP2 GT PUSH2 0xA92 JUMPI JUMPDEST POP SWAP3 PUSH1 0x20 SWAP12 SWAP6 SWAP3 DUP12 SWAP9 SWAP6 SWAP3 DUP12 SWAP9 SWAP6 DUP15 SWAP1 PUSH1 0x1F DUP4 GT PUSH1 0x1 EQ PUSH2 0x9CB JUMPI PUSH32 0xB9836DEF0FEDF1C3230F4DB465B2811C5417BC5B4DFCE8EE3C8A846F531EB21E SWAP12 SWAP13 SWAP6 PUSH1 0x1 PUSH1 0x1 PUSH1 0x40 SHL SUB SWAP6 PUSH2 0x1C0 PUSH1 0x7 PUSH4 0xFFFFFFFF SWAP13 SWAP12 SWAP8 DUP8 DUP11 SWAP9 DUP16 SWAP14 SWAP9 DUP11 SWAP9 PUSH0 SWAP3 PUSH2 0x9C0 JUMPI JUMPDEST POP POP DUP2 PUSH1 0x1 SHL SWAP2 PUSH0 NOT SWAP1 PUSH1 0x3 SHL SHR NOT AND OR PUSH1 0x1 DUP3 ADD SSTORE JUMPDEST PUSH1 0x2 DUP2 ADD DUP7 PUSH1 0x40 DUP7 ADD MLOAD AND DUP2 SLOAD SWAP1 PUSH16 0xFFFFFFFFFFFFFFFF0000000000000000 PUSH1 0x60 DUP9 ADD MLOAD PUSH1 0x40 SHL AND SWAP1 DUP10 PUSH1 0x80 SHL PUSH1 0x80 DUP10 ADD MLOAD PUSH1 0x80 SHL AND SWAP1 PUSH4 0xFFFFFFFF PUSH1 0xC0 SHL PUSH1 0xA0 DUP11 ADD MLOAD PUSH1 0xC0 SHL AND SWAP3 PUSH4 0xFFFFFFFF PUSH1 0xE0 SHL PUSH1 0xC0 DUP12 ADD MLOAD PUSH1 0xE0 SHL AND SWAP5 PUSH1 0x1 DUP1 PUSH1 0xE0 SHL SUB SWAP3 PUSH4 0xFFFFFFFF PUSH1 0xC0 SHL NOT SWAP2 DUP15 PUSH1 0xC0 SHL AND OR AND OR AND OR OR OR SWAP1 SSTORE PUSH1 0xE0 DUP5 ADD MLOAD PUSH1 0x3 DUP3 ADD SSTORE PUSH2 0x100 DUP5 ADD MLOAD PUSH1 0x4 DUP3 ADD SSTORE PUSH2 0x120 DUP5 ADD MLOAD PUSH1 0x5 DUP3 ADD SSTORE PUSH2 0x140 DUP5 ADD MLOAD PUSH1 0x6 DUP3 ADD SSTORE ADD SWAP2 DUP11 DUP1 PUSH2 0x160 DUP4 ADD MLOAD AND AND DUP12 NOT DUP5 SLOAD AND OR DUP4 SSTORE PUSH2 0x180 DUP2 ADD MLOAD ISZERO ISZERO PUSH5 0xFF00000000 DUP5 SLOAD SWAP2 PUSH1 0x20 SHL AND SWAP1 PUSH5 0xFF00000000 NOT AND OR DUP4 SSTORE PUSH2 0x1A0 DUP2 ADD MLOAD ISZERO ISZERO PUSH6 0xFF0000000000 DUP5 SLOAD SWAP2 PUSH1 0x28 SHL AND SWAP1 PUSH6 0xFF0000000000 NOT AND OR DUP4 SSTORE ADD MLOAD ISZERO ISZERO PUSH7 0xFF000000000000 DUP3 SLOAD SWAP2 PUSH1 0x30 SHL AND SWAP1 PUSH7 0xFF000000000000 NOT AND OR SWAP1 SSTORE CALLER PUSH0 MSTORE PUSH1 0x20 PUSH1 0x9 SWAP1 MSTORE DUP14 PUSH1 0x40 PUSH0 KECCAK256 SSTORE PUSH0 PUSH2 0x140 PUSH1 0x40 MLOAD DUP1 SWAP15 PUSH2 0x120 DUP3 MSTORE DUP1 PUSH1 0x4 ADD CALLDATALOAD PUSH2 0x120 DUP4 ADD MSTORE DUP1 PUSH1 0x4 ADD CALLDATALOAD PUSH1 0x24 DUP3 ADD DUP5 DUP5 ADD CALLDATACOPY PUSH1 0x4 ADD CALLDATALOAD ADD ADD MSTORE AND DUP16 DUP12 ADD MSTORE AND PUSH1 0x40 DUP10 ADD MSTORE AND PUSH1 0x60 DUP8 ADD MSTORE AND PUSH1 0x80 DUP6 ADD MSTORE AND PUSH1 0xA0 DUP4 ADD MSTORE PUSH1 0xC4 CALLDATALOAD PUSH1 0xC0 DUP4 ADD MSTORE PUSH1 0xE4 CALLDATALOAD PUSH1 0xE0 DUP4 ADD MSTORE PUSH2 0x100 DUP3 ADD MSTORE PUSH2 0x140 DUP2 CALLER SWAP6 PUSH1 0x1F DUP1 NOT SWAP2 PUSH1 0x4 ADD CALLDATALOAD ADD AND DUP2 ADD SUB ADD SWAP1 LOG3 PUSH1 0x1 PUSH0 MLOAD PUSH1 0x20 PUSH2 0x265B PUSH0 CODECOPY PUSH0 MLOAD SWAP1 PUSH0 MSTORE SSTORE PUSH1 0x40 MLOAD SWAP1 DUP2 MSTORE RETURN JUMPDEST ADD MLOAD SWAP1 POP PUSH0 DUP1 PUSH2 0x7EB JUMP JUMPDEST SWAP1 PUSH1 0x1 DUP5 ADD PUSH0 MSTORE DUP1 PUSH0 KECCAK256 SWAP2 PUSH0 JUMPDEST PUSH1 0x1F NOT DUP6 AND DUP2 LT PUSH2 0xA5E JUMPI POP SWAP6 PUSH1 0x1 PUSH1 0x1 PUSH1 0x40 SHL SUB SWAP6 PUSH2 0x1C0 PUSH32 0xB9836DEF0FEDF1C3230F4DB465B2811C5417BC5B4DFCE8EE3C8A846F531EB21E SWAP15 SWAP16 SWAP9 PUSH4 0xFFFFFFFF SWAP13 SWAP12 SWAP8 PUSH1 0x1 DUP9 DUP16 SWAP14 SWAP9 DUP13 SWAP11 SWAP9 PUSH1 0x7 SWAP6 DUP13 SWAP11 PUSH1 0x1F NOT DUP2 AND LT PUSH2 0xA46 JUMPI JUMPDEST POP POP POP DUP2 SHL ADD PUSH1 0x1 DUP3 ADD SSTORE PUSH2 0x802 JUMP JUMPDEST ADD MLOAD PUSH0 NOT PUSH1 0xF8 DUP5 PUSH1 0x3 SHL AND SHR NOT AND SWAP1 SSTORE PUSH0 DUP1 DUP1 PUSH2 0xA36 JUMP JUMPDEST SWAP4 SWAP6 SWAP8 SWAP10 SWAP13 POP SWAP2 PUSH1 0x20 SWAP2 SWAP5 SWAP7 SWAP9 SWAP11 SWAP14 SWAP12 POP PUSH1 0x1 DUP3 SWAP2 DUP7 DUP6 ADD MLOAD DUP2 SSTORE ADD SWAP5 ADD SWAP3 ADD SWAP2 DUP14 SWAP11 SWAP13 SWAP10 SWAP8 SWAP6 SWAP4 SWAP2 DUP16 SWAP13 SWAP10 SWAP8 SWAP6 SWAP4 PUSH2 0x9D8 JUMP JUMPDEST PUSH1 0x1 DUP5 ADD PUSH0 MSTORE PUSH1 0x20 PUSH0 KECCAK256 PUSH1 0x1F DUP5 ADD PUSH1 0x5 SHR DUP2 ADD SWAP2 PUSH1 0x20 DUP6 LT PUSH2 0xAD0 JUMPI JUMPDEST PUSH1 0x1F ADD PUSH1 0x5 SHR ADD SWAP1 JUMPDEST DUP2 DUP2 LT PUSH2 0xAC5 JUMPI POP PUSH2 0x787 JUMP JUMPDEST PUSH0 DUP2 SSTORE PUSH1 0x1 ADD PUSH2 0xAB8 JUMP JUMPDEST SWAP1 SWAP2 POP DUP2 SWAP1 PUSH2 0xAAF JUMP JUMPDEST PUSH4 0x4E487B71 PUSH1 0xE0 SHL PUSH0 MSTORE PUSH1 0x41 PUSH1 0x4 MSTORE PUSH1 0x24 PUSH0 REVERT JUMPDEST PUSH4 0x4E487B71 PUSH1 0xE0 SHL PUSH0 MSTORE PUSH1 0x11 PUSH1 0x4 MSTORE PUSH1 0x24 PUSH0 REVERT JUMPDEST PUSH1 0x40 MLOAD PUSH3 0x461BCD PUSH1 0xE5 SHL DUP2 MSTORE PUSH1 0x20 PUSH1 0x4 DUP3 ADD MSTORE PUSH1 0x15 PUSH1 0x24 DUP3 ADD MSTORE PUSH21 0x125B98DBDC9C9958DD081155120819195C1BDCDA5D PUSH1 0x5A SHL PUSH1 0x44 DUP3 ADD MSTORE PUSH1 0x64 SWAP1 REVERT JUMPDEST PUSH1 0x40 MLOAD PUSH3 0x461BCD PUSH1 0xE5 SHL DUP2 MSTORE PUSH1 0x20 PUSH1 0x4 DUP3 ADD MSTORE PUSH1 0xF PUSH1 0x24 DUP3 ADD MSTORE PUSH15 0x125B9D985B1A590819195C1BDCDA5D PUSH1 0x8A SHL PUSH1 0x44 DUP3 ADD MSTORE PUSH1 0x64 SWAP1 REVERT JUMPDEST PUSH0 MSTORE PUSH1 0x7 PUSH1 0x20 MSTORE PUSH1 0xFF PUSH1 0x7 PUSH1 0x40 PUSH0 KECCAK256 ADD SLOAD PUSH1 0x30 SHR AND PUSH2 0xB95 JUMPI DUP7 PUSH2 0x61E JUMP JUMPDEST PUSH1 0x40 MLOAD PUSH3 0x461BCD PUSH1 0xE5 SHL DUP2 MSTORE PUSH1 0x20 PUSH1 0x4 DUP3 ADD MSTORE PUSH1 0x21 PUSH1 0x24 DUP3 ADD MSTORE PUSH32 0x5573657220616C72656164792068617320616374697665206368616C6C656E67 PUSH1 0x44 DUP3 ADD MSTORE PUSH1 0x65 PUSH1 0xF8 SHL PUSH1 0x64 DUP3 ADD MSTORE PUSH1 0x84 SWAP1 REVERT JUMPDEST PUSH1 0x40 MLOAD PUSH3 0x461BCD PUSH1 0xE5 SHL DUP2 MSTORE PUSH1 0x20 PUSH1 0x4 DUP3 ADD MSTORE PUSH1 0x26 PUSH1 0x24 DUP3 ADD MSTORE PUSH32 0x4D6973732070656E616C7479206D757374206265203E3D206661696C65642070 PUSH1 0x44 DUP3 ADD MSTORE PUSH6 0x656E616C7479 PUSH1 0xD0 SHL PUSH1 0x64 DUP3 ADD MSTORE PUSH1 0x84 SWAP1 REVERT JUMPDEST PUSH1 0x40 MLOAD PUSH3 0x461BCD PUSH1 0xE5 SHL DUP2 MSTORE PUSH1 0x20 PUSH1 0x4 DUP3 ADD MSTORE PUSH1 0x17 PUSH1 0x24 DUP3 ADD MSTORE PUSH32 0x50656E616C74794E6F4F6B206D757374206265203E2030000000000000000000 PUSH1 0x44 DUP3 ADD MSTORE PUSH1 0x64 SWAP1 REVERT JUMPDEST PUSH1 0x40 MLOAD PUSH3 0x461BCD PUSH1 0xE5 SHL DUP2 MSTORE PUSH1 0x20 PUSH1 0x4 DUP3 ADD MSTORE PUSH1 0x1F PUSH1 0x24 DUP3 ADD MSTORE PUSH32 0x50656E616C74794E6F5375626D697373696F6E206D757374206265203E203000 PUSH1 0x44 DUP3 ADD MSTORE PUSH1 0x64 SWAP1 REVERT JUMPDEST PUSH1 0x40 MLOAD PUSH3 0x461BCD PUSH1 0xE5 SHL DUP2 MSTORE PUSH1 0x20 PUSH1 0x4 DUP3 ADD MSTORE PUSH1 0x16 PUSH1 0x24 DUP3 ADD MSTORE PUSH22 0x4D696E20726174696E67206D757374206265203E203 PUSH1 0x54 SHL PUSH1 0x44 DUP3 ADD MSTORE PUSH1 0x64 SWAP1 REVERT JUMPDEST PUSH1 0x40 MLOAD PUSH3 0x461BCD PUSH1 0xE5 SHL DUP2 MSTORE PUSH1 0x20 PUSH1 0x4 DUP3 ADD MSTORE PUSH1 0x19 PUSH1 0x24 DUP3 ADD MSTORE PUSH32 0x546F74616C20706572696F6473206D757374206265203E203000000000000000 PUSH1 0x44 DUP3 ADD MSTORE PUSH1 0x64 SWAP1 REVERT JUMPDEST PUSH1 0x40 MLOAD PUSH3 0x461BCD PUSH1 0xE5 SHL DUP2 MSTORE PUSH1 0x20 PUSH1 0x4 DUP3 ADD MSTORE PUSH1 0x29 PUSH1 0x24 DUP3 ADD MSTORE PUSH32 0x4379636C65206475726174696F6E206D757374206265203E3D20706572696F64 PUSH1 0x44 DUP3 ADD MSTORE PUSH9 0x10323AB930BA34B7B7 PUSH1 0xB9 SHL PUSH1 0x64 DUP3 ADD MSTORE PUSH1 0x84 SWAP1 REVERT JUMPDEST PUSH1 0x40 MLOAD PUSH3 0x461BCD PUSH1 0xE5 SHL DUP2 MSTORE PUSH1 0x20 PUSH1 0x4 DUP3 ADD MSTORE PUSH1 0x1B PUSH1 0x24 DUP3 ADD MSTORE PUSH32 0x506572696F64206475726174696F6E206D757374206265203E20300000000000 PUSH1 0x44 DUP3 ADD MSTORE PUSH1 0x64 SWAP1 REVERT JUMPDEST PUSH1 0x40 MLOAD PUSH3 0x461BCD PUSH1 0xE5 SHL DUP2 MSTORE PUSH1 0x20 PUSH1 0x4 DUP3 ADD MSTORE PUSH1 0x1B PUSH1 0x24 DUP3 ADD MSTORE PUSH32 0x5374617274206D75737420626520696E20746865206675747572650000000000 PUSH1 0x44 DUP3 ADD MSTORE PUSH1 0x64 SWAP1 REVERT JUMPDEST PUSH1 0x40 MLOAD PUSH3 0x461BCD PUSH1 0xE5 SHL DUP2 MSTORE PUSH1 0x20 PUSH1 0x4 DUP3 ADD MSTORE PUSH1 0xF PUSH1 0x24 DUP3 ADD MSTORE PUSH15 0x48616E646C6520697320656D707479 PUSH1 0x88 SHL PUSH1 0x44 DUP3 ADD MSTORE PUSH1 0x64 SWAP1 REVERT JUMPDEST CALLVALUE PUSH2 0x16D JUMPI PUSH1 0x20 CALLDATASIZE PUSH1 0x3 NOT ADD SLT PUSH2 0x16D JUMPI PUSH1 0x4 CALLDATALOAD PUSH1 0x1 PUSH1 0x1 PUSH1 0xA0 SHL SUB DUP2 AND SWAP1 DUP2 SWAP1 SUB PUSH2 0x16D JUMPI PUSH0 MSTORE PUSH1 0x9 PUSH1 0x20 MSTORE PUSH1 0x20 PUSH1 0x40 PUSH0 KECCAK256 SLOAD PUSH1 0x40 MLOAD SWAP1 DUP2 MSTORE RETURN JUMPDEST CALLVALUE PUSH2 0x16D JUMPI PUSH2 0xEA7 CALLDATASIZE PUSH2 0x224D JUMP JUMPDEST SWAP1 DUP1 PUSH0 MSTORE PUSH1 0x7 PUSH1 0x20 MSTORE PUSH2 0xEC7 PUSH1 0x1 DUP1 PUSH1 0xA0 SHL SUB PUSH1 0x40 PUSH0 KECCAK256 SLOAD AND ISZERO ISZERO PUSH2 0x227D JUMP JUMPDEST PUSH0 MSTORE PUSH1 0x8 PUSH1 0x20 MSTORE PUSH1 0x40 PUSH0 KECCAK256 SWAP1 PUSH0 MSTORE PUSH1 0x20 MSTORE PUSH2 0x100 PUSH1 0x40 PUSH0 KECCAK256 PUSH1 0xFF DUP2 SLOAD AND SWAP1 PUSH1 0x1 DUP2 ADD SLOAD SWAP1 PUSH1 0x2 DUP2 ADD SLOAD PUSH1 0xFF PUSH1 0x3 DUP4 ADD SLOAD AND PUSH1 0x4 DUP4 ADD SLOAD SWAP1 PUSH1 0x5 DUP5 ADD SLOAD SWAP3 PUSH1 0x7 PUSH1 0x6 DUP7 ADD SLOAD SWAP6 ADD SLOAD SWAP6 PUSH2 0xF1C PUSH1 0x40 MLOAD DUP1 SWAP10 PUSH2 0x2263 JUMP JUMPDEST PUSH1 0x20 DUP9 ADD MSTORE PUSH1 0x40 DUP8 ADD MSTORE ISZERO ISZERO PUSH1 0x60 DUP7 ADD MSTORE PUSH1 0x80 DUP6 ADD MSTORE PUSH1 0xA0 DUP5 ADD MSTORE PUSH1 0xC0 DUP4 ADD MSTORE PUSH1 0xE0 DUP3 ADD MSTORE RETURN JUMPDEST CALLVALUE PUSH2 0x16D JUMPI PUSH1 0x40 PUSH2 0xF53 CALLDATASIZE PUSH2 0x224D JUMP JUMPDEST SWAP1 DUP1 PUSH0 MSTORE PUSH1 0x7 PUSH1 0x20 MSTORE PUSH2 0xF72 PUSH1 0x1 DUP1 PUSH1 0xA0 SHL SUB DUP5 PUSH0 KECCAK256 SLOAD AND ISZERO ISZERO PUSH2 0x227D JUMP JUMPDEST PUSH0 MSTORE PUSH1 0x7 PUSH1 0x20 MSTORE PUSH2 0xFC4 PUSH1 0x1 PUSH1 0x1 PUSH1 0x40 SHL SUB PUSH2 0xFBA PUSH2 0xFB2 PUSH1 0x2 DUP7 PUSH0 KECCAK256 ADD SLOAD SWAP5 PUSH2 0xFA6 PUSH4 0xFFFFFFFF DUP8 PUSH1 0xC0 SHR AND DUP3 LT PUSH2 0x2420 JUMP JUMPDEST DUP4 DUP7 PUSH1 0x80 SHR AND SWAP1 PUSH2 0x252F JUMP JUMPDEST DUP3 DUP6 AND PUSH2 0x2522 JUMP JUMPDEST SWAP3 DUP5 SHR AND DUP3 PUSH2 0x2522 JUMP JUMPDEST DUP3 MLOAD SWAP2 DUP3 MSTORE PUSH1 0x20 DUP3 ADD MSTORE RETURN JUMPDEST CALLVALUE PUSH2 0x16D JUMPI PUSH1 0x20 CALLDATASIZE PUSH1 0x3 NOT ADD SLT PUSH2 0x16D JUMPI PUSH1 0x4 CALLDATALOAD PUSH0 DUP2 DUP2 MSTORE PUSH1 0x7 PUSH1 0x20 MSTORE PUSH1 0x40 SWAP1 KECCAK256 SLOAD PUSH2 0x1006 SWAP1 PUSH1 0x1 PUSH1 0x1 PUSH1 0xA0 SHL SUB AND ISZERO ISZERO PUSH2 0x227D JUMP JUMPDEST PUSH0 MSTORE PUSH1 0x7 PUSH1 0x20 MSTORE PUSH1 0x2 PUSH1 0x40 PUSH0 KECCAK256 ADD SLOAD PUSH0 NOT PUSH4 0xFFFFFFFF DUP3 PUSH1 0xC0 SHR AND ADD PUSH4 0xFFFFFFFF DUP2 GT PUSH2 0xAEE JUMPI PUSH1 0x20 SWAP2 PUSH1 0x1 PUSH1 0x1 PUSH1 0x40 SHL SUB PUSH2 0x3F1 PUSH2 0x3E9 PUSH4 0xFFFFFFFF PUSH2 0x1053 SWAP6 AND DUP4 DUP6 PUSH1 0x80 SHR AND PUSH2 0x252F JUMP JUMPDEST PUSH1 0x40 MLOAD SWAP1 DUP2 MSTORE RETURN JUMPDEST CALLVALUE PUSH2 0x16D JUMPI PUSH1 0x20 CALLDATASIZE PUSH1 0x3 NOT ADD SLT PUSH2 0x16D JUMPI PUSH1 0x4 CALLDATALOAD PUSH1 0x1 PUSH1 0x1 PUSH1 0xA0 SHL SUB DUP2 AND SWAP1 DUP2 SWAP1 SUB PUSH2 0x16D JUMPI PUSH2 0x1089 PUSH2 0x255D JUMP JUMPDEST DUP1 ISZERO PUSH2 0x10D2 JUMPI PUSH1 0x3 DUP1 SLOAD PUSH1 0x1 PUSH1 0x1 PUSH1 0xA0 SHL SUB NOT DUP2 AND DUP4 OR SWAP1 SWAP2 SSTORE PUSH1 0x1 PUSH1 0x1 PUSH1 0xA0 SHL SUB AND PUSH32 0xE40B8D8791A61C2B5A40EBAE4D5FB64E9784B219D22B828C1F6C4EDD7F6FD8F5 PUSH0 DUP1 LOG3 STOP JUMPDEST PUSH1 0x40 MLOAD PUSH3 0x461BCD PUSH1 0xE5 SHL DUP2 MSTORE PUSH1 0x20 PUSH1 0x4 DUP3 ADD MSTORE PUSH1 0x19 PUSH1 0x24 DUP3 ADD MSTORE PUSH32 0x50656E616C747920726563697069656E74206973207A65726F00000000000000 PUSH1 0x44 DUP3 ADD MSTORE PUSH1 0x64 SWAP1 REVERT JUMPDEST PUSH2 0x1120 CALLDATASIZE PUSH2 0x224D JUMP JUMPDEST PUSH2 0x1128 PUSH2 0x2583 JUMP JUMPDEST PUSH0 DUP3 DUP2 MSTORE PUSH1 0x7 PUSH1 0x20 MSTORE PUSH1 0x40 SWAP1 KECCAK256 SLOAD PUSH2 0x114A SWAP1 PUSH1 0x1 PUSH1 0x1 PUSH1 0xA0 SHL SUB AND ISZERO ISZERO PUSH2 0x227D JUMP JUMPDEST DUP2 PUSH0 MSTORE PUSH1 0x7 PUSH1 0x20 MSTORE PUSH2 0x1169 PUSH1 0x1 DUP1 PUSH1 0xA0 SHL SUB PUSH1 0x40 PUSH0 KECCAK256 SLOAD AND CALLER EQ PUSH2 0x2318 JUMP JUMPDEST DUP2 PUSH0 MSTORE PUSH1 0x7 PUSH1 0x20 MSTORE PUSH1 0x40 PUSH0 KECCAK256 PUSH2 0x1189 PUSH1 0xFF PUSH1 0x7 DUP4 ADD SLOAD PUSH1 0x28 SHR AND ISZERO PUSH2 0x23DF JUMP JUMPDEST DUP3 PUSH0 MSTORE PUSH1 0x8 PUSH1 0x20 MSTORE PUSH1 0x40 PUSH0 KECCAK256 DUP3 PUSH0 MSTORE PUSH1 0x20 MSTORE PUSH1 0x40 PUSH0 KECCAK256 SWAP1 PUSH1 0xFF DUP3 SLOAD AND PUSH1 0x4 DUP2 LT ISZERO PUSH2 0x4CA JUMPI PUSH1 0x2 DUP2 EQ SWAP1 DUP2 ISZERO PUSH2 0x1377 JUMPI JUMPDEST POP ISZERO PUSH2 0x133A JUMPI PUSH1 0x3 DUP3 ADD SWAP2 DUP3 SLOAD SWAP1 PUSH1 0xFF DUP3 AND PUSH2 0x12F5 JUMPI PUSH1 0x2 ADD SWAP3 DUP4 SLOAD SWAP2 DUP3 ISZERO PUSH2 0x12BE JUMPI DUP3 CALLVALUE SUB PUSH2 0x1279 JUMPI PUSH1 0x1 SWAP1 PUSH1 0xFF NOT AND OR SWAP1 SSTORE PUSH2 0x11FD PUSH1 0x6 DUP4 ADD SWAP2 DUP3 SLOAD PUSH2 0x2522 JUMP JUMPDEST SWAP1 SSTORE DUP2 SLOAD SWAP1 SLOAD PUSH1 0x1 PUSH1 0x1 PUSH1 0xA0 SHL SUB AND PUSH0 SWAP1 DUP2 MSTORE PUSH1 0x6 PUSH1 0x20 MSTORE PUSH1 0x40 SWAP1 KECCAK256 DUP1 SLOAD SWAP1 SWAP2 PUSH2 0x1226 SWAP2 PUSH2 0x2270 JUMP JUMPDEST SWAP1 SSTORE PUSH2 0x1235 DUP2 SLOAD PUSH1 0x5 SLOAD PUSH2 0x2522 JUMP JUMPDEST PUSH1 0x5 SSTORE SLOAD SWAP2 PUSH1 0x40 MLOAD SWAP3 DUP4 MSTORE PUSH32 0x902C8B11F9469D230448AB4B893F16FFE871E2EA6BB425774C6DFA1AD3EC804C PUSH1 0x20 CALLER SWAP5 LOG4 PUSH1 0x1 PUSH0 MLOAD PUSH1 0x20 PUSH2 0x265B PUSH0 CODECOPY PUSH0 MLOAD SWAP1 PUSH0 MSTORE SSTORE STOP JUMPDEST PUSH1 0x40 MLOAD PUSH3 0x461BCD PUSH1 0xE5 SHL DUP2 MSTORE PUSH1 0x20 PUSH1 0x4 DUP3 ADD MSTORE PUSH1 0x19 PUSH1 0x24 DUP3 ADD MSTORE PUSH32 0x496E636F72726563742070656E616C7479207061796D656E7400000000000000 PUSH1 0x44 DUP3 ADD MSTORE PUSH1 0x64 SWAP1 REVERT JUMPDEST PUSH1 0x40 MLOAD PUSH3 0x461BCD PUSH1 0xE5 SHL DUP2 MSTORE PUSH1 0x20 PUSH1 0x4 DUP3 ADD MSTORE PUSH1 0xF PUSH1 0x24 DUP3 ADD MSTORE PUSH15 0x50656E616C7479206973207A65726F PUSH1 0x88 SHL PUSH1 0x44 DUP3 ADD MSTORE PUSH1 0x64 SWAP1 REVERT JUMPDEST PUSH1 0x40 MLOAD PUSH3 0x461BCD PUSH1 0xE5 SHL DUP2 MSTORE PUSH1 0x20 PUSH1 0x4 DUP3 ADD MSTORE PUSH1 0x17 PUSH1 0x24 DUP3 ADD MSTORE PUSH32 0x50656E616C747920616C726561647920736574746C6564000000000000000000 PUSH1 0x44 DUP3 ADD MSTORE PUSH1 0x64 SWAP1 REVERT JUMPDEST PUSH1 0x40 MLOAD PUSH3 0x461BCD PUSH1 0xE5 SHL DUP2 MSTORE PUSH1 0x20 PUSH1 0x4 DUP3 ADD MSTORE PUSH1 0x15 PUSH1 0x24 DUP3 ADD MSTORE PUSH21 0x14195C9A5BD9081A5CC81B9BDD081CDB185CDA1959 PUSH1 0x5A SHL PUSH1 0x44 DUP3 ADD MSTORE PUSH1 0x64 SWAP1 REVERT JUMPDEST PUSH1 0x3 SWAP2 POP EQ DUP6 PUSH2 0x11BA JUMP JUMPDEST CALLVALUE PUSH2 0x16D JUMPI PUSH2 0x1390 CALLDATASIZE PUSH2 0x2233 JUMP JUMPDEST PUSH2 0x139B SWAP3 SWAP2 SWAP3 PUSH2 0x2583 JUMP JUMPDEST PUSH2 0x13A3 PUSH2 0x263D JUMP JUMPDEST PUSH2 0x13B8 PUSH1 0x1 DUP1 PUSH1 0xA0 SHL SUB PUSH1 0x1 SLOAD AND CALLER EQ PUSH2 0x23A5 JUMP JUMPDEST PUSH0 DUP3 DUP2 MSTORE PUSH1 0x7 PUSH1 0x20 MSTORE PUSH1 0x40 SWAP1 KECCAK256 SLOAD PUSH2 0x13DA SWAP1 PUSH1 0x1 PUSH1 0x1 PUSH1 0xA0 SHL SUB AND ISZERO ISZERO PUSH2 0x227D JUMP JUMPDEST PUSH0 DUP3 DUP2 MSTORE PUSH1 0x7 PUSH1 0x20 DUP2 SWAP1 MSTORE PUSH1 0x40 SWAP1 SWAP2 KECCAK256 PUSH1 0x3 DUP2 ADD SLOAD SWAP2 DUP2 ADD DUP1 SLOAD PUSH2 0x1404 SWAP1 PUSH1 0x28 SHR PUSH1 0xFF AND ISZERO PUSH2 0x23DF JUMP JUMPDEST PUSH2 0x141C PUSH4 0xFFFFFFFF PUSH1 0x2 DUP5 ADD SLOAD PUSH1 0xC0 SHR AND DUP8 LT PUSH2 0x2420 JUMP JUMPDEST DUP5 PUSH0 MSTORE PUSH1 0x8 PUSH1 0x20 MSTORE PUSH1 0x40 PUSH0 KECCAK256 DUP7 PUSH0 MSTORE PUSH1 0x20 MSTORE PUSH1 0x40 PUSH0 KECCAK256 PUSH1 0xFF DUP2 SLOAD AND PUSH1 0x4 DUP2 LT ISZERO PUSH2 0x4CA JUMPI DUP6 SWAP2 PUSH2 0x144E PUSH1 0x7 SWAP3 ISZERO PUSH2 0x2463 JUMP JUMPDEST PUSH0 DUP9 DUP2 MSTORE PUSH1 0x20 DUP4 SWAP1 MSTORE PUSH1 0x40 SWAP1 KECCAK256 SLOAD PUSH2 0x1470 SWAP1 PUSH1 0x1 PUSH1 0x1 PUSH1 0xA0 SHL SUB AND ISZERO ISZERO PUSH2 0x227D JUMP JUMPDEST DUP8 PUSH0 MSTORE DUP2 PUSH1 0x20 MSTORE PUSH2 0x14A9 PUSH2 0x3FC DUP11 PUSH1 0x1 PUSH1 0x1 PUSH1 0x40 SHL SUB PUSH2 0x3F1 PUSH2 0x3E9 PUSH1 0x2 PUSH1 0x40 PUSH0 KECCAK256 ADD SLOAD SWAP4 PUSH2 0x3DD PUSH4 0xFFFFFFFF DUP7 PUSH1 0xC0 SHR AND DUP3 LT PUSH2 0x2420 JUMP JUMPDEST PUSH2 0x14B4 PUSH1 0x2 DUP3 PUSH2 0x24F2 JUMP JUMPDEST TIMESTAMP PUSH1 0x1 DUP3 ADD SSTORE DUP6 PUSH1 0x2 DUP3 ADD SSTORE PUSH1 0x3 DUP2 ADD PUSH1 0xFF NOT DUP2 SLOAD AND SWAP1 SSTORE PUSH0 PUSH1 0x4 DUP3 ADD SSTORE PUSH0 PUSH1 0x5 DUP3 ADD SSTORE PUSH0 PUSH1 0x6 DUP3 ADD SSTORE ADD SSTORE PUSH4 0xFFFFFFFF PUSH2 0x14F1 DUP2 DUP4 SLOAD AND PUSH2 0x250A JUMP JUMPDEST DUP3 SLOAD PUSH4 0xFFFFFFFF NOT AND SWAP2 AND OR SWAP1 SSTORE SLOAD PUSH1 0x1 PUSH1 0x1 PUSH1 0xA0 SHL SUB AND PUSH0 SWAP1 DUP2 MSTORE PUSH1 0x6 PUSH1 0x20 MSTORE PUSH1 0x40 SWAP1 KECCAK256 DUP1 SLOAD PUSH2 0x1523 SWAP1 DUP4 SWAP1 PUSH2 0x2522 JUMP JUMPDEST SWAP1 SSTORE PUSH1 0x40 MLOAD PUSH32 0xD388B3CEE0096E9DE51027CCEF7ADDCC2EA1426463A17D76E5222A06B13EB8E5 SWAP3 PUSH1 0x60 SWAP3 PUSH1 0x2 DUP4 MSTORE PUSH1 0x20 DUP4 ADD MSTORE PUSH1 0x40 DUP3 ADD MSTORE LOG3 PUSH1 0x1 PUSH0 MLOAD PUSH1 0x20 PUSH2 0x265B PUSH0 CODECOPY PUSH0 MLOAD SWAP1 PUSH0 MSTORE SSTORE STOP JUMPDEST CALLVALUE PUSH2 0x16D JUMPI PUSH0 CALLDATASIZE PUSH1 0x3 NOT ADD SLT PUSH2 0x16D JUMPI PUSH0 SLOAD PUSH1 0x40 MLOAD PUSH1 0x1 PUSH1 0x1 PUSH1 0xA0 SHL SUB SWAP1 SWAP2 AND DUP2 MSTORE PUSH1 0x20 SWAP1 RETURN JUMPDEST CALLVALUE PUSH2 0x16D JUMPI PUSH1 0x20 CALLDATASIZE PUSH1 0x3 NOT ADD SLT PUSH2 0x16D JUMPI PUSH1 0x4 CALLDATALOAD PUSH2 0x15B2 PUSH2 0x2583 JUMP JUMPDEST PUSH0 DUP2 DUP2 MSTORE PUSH1 0x7 PUSH1 0x20 MSTORE PUSH1 0x40 SWAP1 KECCAK256 SLOAD PUSH2 0x15D4 SWAP1 PUSH1 0x1 PUSH1 0x1 PUSH1 0xA0 SHL SUB AND ISZERO ISZERO PUSH2 0x227D JUMP JUMPDEST DUP1 PUSH0 MSTORE PUSH1 0x7 PUSH1 0x20 MSTORE PUSH2 0x15F3 PUSH1 0x1 DUP1 PUSH1 0xA0 SHL SUB PUSH1 0x40 PUSH0 KECCAK256 SLOAD AND CALLER EQ PUSH2 0x2318 JUMP JUMPDEST DUP1 PUSH0 MSTORE PUSH1 0x7 PUSH1 0x20 MSTORE PUSH1 0x40 PUSH0 KECCAK256 SWAP1 PUSH1 0x7 DUP3 ADD DUP1 SLOAD PUSH2 0x1615 PUSH1 0xFF DUP3 PUSH1 0x30 SHR AND PUSH2 0x2359 JUMP JUMPDEST PUSH2 0x1625 PUSH1 0xFF DUP3 PUSH1 0x28 SHR AND ISZERO PUSH2 0x23DF JUMP JUMPDEST PUSH1 0xFF DUP2 PUSH1 0x20 SHR AND PUSH2 0x1721 JUMPI PUSH4 0xFFFFFFFF PUSH1 0x2 DUP6 ADD SLOAD PUSH1 0xC0 SHR AND PUSH4 0xFFFFFFFF DUP3 AND SUB PUSH2 0x16DC JUMPI PUSH5 0x100000000 SWAP1 PUSH7 0xFF00FF00000000 NOT AND OR SWAP1 SSTORE PUSH1 0x1 DUP1 PUSH1 0xA0 SHL SUB DUP3 SLOAD AND PUSH0 MSTORE PUSH1 0x9 PUSH1 0x20 MSTORE PUSH0 PUSH1 0x40 DUP2 KECCAK256 SSTORE PUSH32 0x4381C4FF301F4803259D996FD5EF93C9573568F5F59E2F4D584D73DECC89CAEC PUSH1 0x20 PUSH1 0x1 DUP1 PUSH1 0xA0 SHL SUB DUP5 SLOAD AND SWAP4 PUSH2 0x16B3 PUSH1 0x5 DUP3 ADD SWAP6 DUP7 SLOAD SWAP1 PUSH2 0x25BB JUMP JUMPDEST SLOAD SWAP4 SLOAD PUSH1 0x40 MLOAD SWAP1 DUP2 MSTORE PUSH1 0x1 PUSH1 0x1 PUSH1 0xA0 SHL SUB SWAP1 SWAP5 AND SWAP4 LOG3 PUSH1 0x1 PUSH0 MLOAD PUSH1 0x20 PUSH2 0x265B PUSH0 CODECOPY PUSH0 MLOAD SWAP1 PUSH0 MSTORE SSTORE STOP JUMPDEST PUSH1 0x40 MLOAD PUSH3 0x461BCD PUSH1 0xE5 SHL DUP2 MSTORE PUSH1 0x20 PUSH1 0x4 DUP3 ADD MSTORE PUSH1 0x18 PUSH1 0x24 DUP3 ADD MSTORE PUSH32 0x4E6F7420616C6C20706572696F6473207265736F6C7665640000000000000000 PUSH1 0x44 DUP3 ADD MSTORE PUSH1 0x64 SWAP1 REVERT JUMPDEST PUSH1 0x40 MLOAD PUSH3 0x461BCD PUSH1 0xE5 SHL DUP2 MSTORE PUSH1 0x20 PUSH1 0x4 DUP3 ADD MSTORE PUSH1 0x1B PUSH1 0x24 DUP3 ADD MSTORE PUSH32 0x52656D61696E696E6720616C72656164792077697468647261776E0000000000 PUSH1 0x44 DUP3 ADD MSTORE PUSH1 0x64 SWAP1 REVERT JUMPDEST CALLVALUE PUSH2 0x16D JUMPI PUSH0 CALLDATASIZE PUSH1 0x3 NOT ADD SLT PUSH2 0x16D JUMPI PUSH2 0x177E PUSH2 0x255D JUMP JUMPDEST PUSH2 0x1786 PUSH2 0x263D JUMP JUMPDEST PUSH0 DUP1 SLOAD PUSH1 0xFF PUSH1 0xA0 SHL NOT AND PUSH1 0x1 PUSH1 0xA0 SHL OR SWAP1 SSTORE PUSH1 0x40 MLOAD CALLER DUP2 MSTORE PUSH32 0x62E78CEA01BEE320CD4E420270B5EA74000D11B0C9F74754EBDBFC544B05A258 SWAP1 PUSH1 0x20 SWAP1 LOG1 STOP JUMPDEST CALLVALUE PUSH2 0x16D JUMPI PUSH0 CALLDATASIZE PUSH1 0x3 NOT ADD SLT PUSH2 0x16D JUMPI PUSH1 0x1 SLOAD PUSH1 0x40 MLOAD PUSH1 0x1 PUSH1 0x1 PUSH1 0xA0 SHL SUB SWAP1 SWAP2 AND DUP2 MSTORE PUSH1 0x20 SWAP1 RETURN JUMPDEST CALLVALUE PUSH2 0x16D JUMPI PUSH1 0x20 CALLDATASIZE PUSH1 0x3 NOT ADD SLT PUSH2 0x16D JUMPI PUSH1 0x4 CALLDATALOAD PUSH1 0x1 PUSH1 0x1 PUSH1 0xA0 SHL SUB DUP2 AND SWAP1 DUP2 SWAP1 SUB PUSH2 0x16D JUMPI PUSH2 0x181C PUSH2 0x255D JUMP JUMPDEST DUP1 ISZERO PUSH2 0x1865 JUMPI PUSH1 0x1 DUP1 SLOAD PUSH1 0x1 PUSH1 0x1 PUSH1 0xA0 SHL SUB NOT DUP2 AND DUP4 OR SWAP1 SWAP2 SSTORE PUSH1 0x1 PUSH1 0x1 PUSH1 0xA0 SHL SUB AND PUSH32 0x78C3B417DADF69374A59793B829C52001247130433427049317BDE56607B1B7 PUSH0 DUP1 LOG3 STOP JUMPDEST PUSH1 0x40 MLOAD PUSH3 0x461BCD PUSH1 0xE5 SHL DUP2 MSTORE PUSH1 0x20 PUSH1 0x4 DUP3 ADD MSTORE PUSH1 0x16 PUSH1 0x24 DUP3 ADD MSTORE PUSH22 0x4F7261636C652061646472657373206973207A65726F PUSH1 0x50 SHL PUSH1 0x44 DUP3 ADD MSTORE PUSH1 0x64 SWAP1 REVERT JUMPDEST CALLVALUE PUSH2 0x16D JUMPI PUSH1 0xC0 CALLDATASIZE PUSH1 0x3 NOT ADD SLT PUSH2 0x16D JUMPI PUSH1 0x24 CALLDATALOAD PUSH1 0x4 CALLDATALOAD PUSH1 0x84 CALLDATALOAD PUSH1 0x64 CALLDATALOAD PUSH1 0x44 CALLDATALOAD PUSH1 0xA4 CALLDATALOAD PUSH2 0x18CE PUSH2 0x263D JUMP JUMPDEST PUSH2 0x18E3 PUSH1 0x1 DUP1 PUSH1 0xA0 SHL SUB PUSH1 0x1 SLOAD AND CALLER EQ PUSH2 0x23A5 JUMP JUMPDEST PUSH0 DUP6 DUP2 MSTORE PUSH1 0x7 PUSH1 0x20 MSTORE PUSH1 0x40 SWAP1 KECCAK256 SLOAD PUSH2 0x1905 SWAP1 PUSH1 0x1 PUSH1 0x1 PUSH1 0xA0 SHL SUB AND ISZERO ISZERO PUSH2 0x227D JUMP JUMPDEST DUP5 PUSH0 MSTORE PUSH1 0x7 PUSH1 0x20 MSTORE PUSH1 0x40 PUSH0 KECCAK256 SWAP4 PUSH1 0x7 DUP6 ADD SWAP5 PUSH1 0xFF DUP7 SLOAD PUSH2 0x1929 DUP3 DUP3 PUSH1 0x30 SHR AND PUSH2 0x2359 JUMP JUMPDEST PUSH2 0x1938 DUP3 DUP3 PUSH1 0x28 SHR AND ISZERO PUSH2 0x23DF JUMP JUMPDEST PUSH1 0x20 SHR AND PUSH2 0x1B89 JUMPI PUSH1 0x2 ADD SLOAD PUSH2 0x1958 PUSH4 0xFFFFFFFF DUP3 PUSH1 0xC0 SHR AND DUP10 LT PUSH2 0x2420 JUMP JUMPDEST PUSH1 0xE0 SHR DUP2 LT PUSH2 0x1B4D JUMPI DUP3 ISZERO PUSH2 0x1B08 JUMPI DUP6 PUSH0 MSTORE PUSH1 0x8 PUSH1 0x20 MSTORE PUSH1 0x40 PUSH0 KECCAK256 DUP8 PUSH0 MSTORE PUSH1 0x20 MSTORE PUSH1 0x40 PUSH0 KECCAK256 SWAP4 PUSH1 0xFF DUP6 SLOAD AND PUSH1 0x4 DUP2 LT ISZERO PUSH2 0x4CA JUMPI PUSH2 0x1996 SWAP1 ISZERO PUSH2 0x2463 JUMP JUMPDEST PUSH0 DUP8 DUP2 MSTORE PUSH1 0x7 PUSH1 0x20 MSTORE PUSH1 0x40 SWAP1 KECCAK256 SLOAD PUSH2 0x19B8 SWAP1 PUSH1 0x1 PUSH1 0x1 PUSH1 0xA0 SHL SUB AND ISZERO ISZERO PUSH2 0x227D JUMP JUMPDEST DUP7 PUSH0 MSTORE PUSH1 0x7 PUSH1 0x20 MSTORE PUSH1 0x2 PUSH1 0x40 PUSH0 KECCAK256 ADD SLOAD PUSH2 0x19DC PUSH4 0xFFFFFFFF DUP3 PUSH1 0xC0 SHR AND DUP11 LT PUSH2 0x2420 JUMP JUMPDEST PUSH2 0x1A04 PUSH1 0x1 PUSH1 0x1 PUSH1 0x40 SHL SUB PUSH2 0x19F9 PUSH2 0xFB2 DUP3 DUP6 PUSH1 0x80 SHR AND DUP14 PUSH2 0x252F JUMP JUMPDEST SWAP3 PUSH1 0x40 SHR AND DUP3 PUSH2 0x2522 JUMP JUMPDEST SWAP1 PUSH2 0x1A11 DUP3 TIMESTAMP LT ISZERO PUSH2 0x24AF JUMP JUMPDEST DUP3 LT ISZERO SWAP1 DUP2 PUSH2 0x1AFE JUMPI JUMPDEST POP ISZERO PUSH2 0x1AB9 JUMPI PUSH32 0xF71FFB44E9FFC964DB62374983D76EAA14B53C8D33BC2F9DFD371800090CEB71 SWAP6 DUP4 PUSH1 0x7 PUSH1 0x80 SWAP8 PUSH1 0x1 PUSH1 0xFF NOT DUP3 SLOAD AND OR DUP2 SSTORE TIMESTAMP PUSH1 0x1 DUP3 ADD SSTORE PUSH0 PUSH1 0x2 DUP3 ADD SSTORE PUSH1 0x3 DUP2 ADD PUSH1 0x1 PUSH1 0xFF NOT DUP3 SLOAD AND OR SWAP1 SSTORE DUP8 PUSH1 0x4 DUP3 ADD SSTORE DUP5 PUSH1 0x5 DUP3 ADD SSTORE DUP6 PUSH1 0x6 DUP3 ADD SSTORE ADD SSTORE PUSH4 0xFFFFFFFF PUSH2 0x1A94 DUP2 DUP4 SLOAD AND PUSH2 0x250A JUMP JUMPDEST AND PUSH4 0xFFFFFFFF NOT DUP3 SLOAD AND OR SWAP1 SSTORE PUSH1 0x40 MLOAD SWAP4 DUP5 MSTORE PUSH1 0x20 DUP5 ADD MSTORE PUSH1 0x40 DUP4 ADD MSTORE PUSH1 0x60 DUP3 ADD MSTORE LOG3 STOP JUMPDEST PUSH1 0x40 MLOAD PUSH3 0x461BCD PUSH1 0xE5 SHL DUP2 MSTORE PUSH1 0x20 PUSH1 0x4 DUP3 ADD MSTORE PUSH1 0x19 PUSH1 0x24 DUP3 ADD MSTORE PUSH32 0x61636365707465644174206F75747369646520706572696F6400000000000000 PUSH1 0x44 DUP3 ADD MSTORE PUSH1 0x64 SWAP1 REVERT JUMPDEST SWAP1 POP DUP2 LT DUP10 PUSH2 0x1A1B JUMP JUMPDEST PUSH1 0x40 MLOAD PUSH3 0x461BCD PUSH1 0xE5 SHL DUP2 MSTORE PUSH1 0x20 PUSH1 0x4 DUP3 ADD MSTORE PUSH1 0x19 PUSH1 0x24 DUP3 ADD MSTORE PUSH32 0x5375626D697373696F6E206964206D757374206265203E203000000000000000 PUSH1 0x44 DUP3 ADD MSTORE PUSH1 0x64 SWAP1 REVERT JUMPDEST PUSH1 0x40 MLOAD PUSH3 0x461BCD PUSH1 0xE5 SHL DUP2 MSTORE PUSH1 0x20 PUSH1 0x4 DUP3 ADD MSTORE PUSH1 0x14 PUSH1 0x24 DUP3 ADD MSTORE PUSH20 0x526174696E672062656C6F77206D696E696D756D PUSH1 0x60 SHL PUSH1 0x44 DUP3 ADD MSTORE PUSH1 0x64 SWAP1 REVERT JUMPDEST PUSH1 0x40 MLOAD PUSH3 0x461BCD PUSH1 0xE5 SHL DUP2 MSTORE PUSH1 0x20 PUSH1 0x4 DUP3 ADD MSTORE PUSH1 0x13 PUSH1 0x24 DUP3 ADD MSTORE PUSH19 0x21B430B63632B733B2903BB4BA34323930BBB7 PUSH1 0x69 SHL PUSH1 0x44 DUP3 ADD MSTORE PUSH1 0x64 SWAP1 REVERT JUMPDEST CALLVALUE PUSH2 0x16D JUMPI PUSH0 CALLDATASIZE PUSH1 0x3 NOT ADD SLT PUSH2 0x16D JUMPI PUSH2 0x1BDC PUSH2 0x255D JUMP JUMPDEST PUSH0 DUP1 SLOAD PUSH1 0x1 PUSH1 0x1 PUSH1 0xA0 SHL SUB NOT DUP2 AND DUP3 SSTORE PUSH1 0x1 PUSH1 0x1 PUSH1 0xA0 SHL SUB AND PUSH32 0x8BE0079C531659141344CD1FD0A4F28419497F9722A3DAAFE3B4186F6B6457E0 DUP3 DUP1 LOG3 STOP JUMPDEST CALLVALUE PUSH2 0x16D JUMPI PUSH1 0x20 CALLDATASIZE PUSH1 0x3 NOT ADD SLT PUSH2 0x16D JUMPI PUSH1 0x4 CALLDATALOAD PUSH2 0x1C37 PUSH2 0x2583 JUMP JUMPDEST PUSH0 DUP2 DUP2 MSTORE PUSH1 0x7 PUSH1 0x20 MSTORE PUSH1 0x40 SWAP1 KECCAK256 SLOAD PUSH2 0x1C59 SWAP1 PUSH1 0x1 PUSH1 0x1 PUSH1 0xA0 SHL SUB AND ISZERO ISZERO PUSH2 0x227D JUMP JUMPDEST DUP1 PUSH0 MSTORE PUSH1 0x7 PUSH1 0x20 MSTORE PUSH2 0x1C78 PUSH1 0x1 DUP1 PUSH1 0xA0 SHL SUB PUSH1 0x40 PUSH0 KECCAK256 SLOAD AND CALLER EQ PUSH2 0x2318 JUMP JUMPDEST DUP1 PUSH0 MSTORE PUSH1 0x7 PUSH1 0x20 MSTORE PUSH1 0x40 PUSH0 KECCAK256 SWAP1 PUSH1 0x7 DUP3 ADD DUP1 SLOAD PUSH2 0x1C9A PUSH1 0xFF DUP3 PUSH1 0x30 SHR AND PUSH2 0x2359 JUMP JUMPDEST PUSH1 0xFF DUP2 PUSH1 0x28 SHR AND PUSH2 0x1DB9 JUMPI PUSH1 0xFF DUP2 PUSH1 0x20 SHR AND PUSH2 0x1D74 JUMPI PUSH1 0x1 PUSH1 0x1 PUSH1 0x40 SHL SUB PUSH1 0x2 DUP6 ADD SLOAD AND TIMESTAMP LT ISZERO PUSH2 0x1D2F JUMPI PUSH6 0x10000000000 SWAP1 PUSH7 0xFFFF0000000000 NOT AND OR SWAP1 SSTORE PUSH1 0x1 DUP1 PUSH1 0xA0 SHL SUB DUP3 SLOAD AND PUSH0 MSTORE PUSH1 0x9 PUSH1 0x20 MSTORE PUSH0 PUSH1 0x40 DUP2 KECCAK256 SSTORE PUSH32 0x6F3468A095154788E69ED719EE418416C1E338AC2348CCB3531BB97A0ED6ED9D PUSH1 0x20 PUSH1 0x1 DUP1 PUSH1 0xA0 SHL SUB DUP5 SLOAD AND SWAP4 PUSH2 0x16B3 PUSH1 0x5 DUP3 ADD SWAP6 DUP7 SLOAD SWAP1 PUSH2 0x25BB JUMP JUMPDEST PUSH1 0x40 MLOAD PUSH3 0x461BCD PUSH1 0xE5 SHL DUP2 MSTORE PUSH1 0x20 PUSH1 0x4 DUP3 ADD MSTORE PUSH1 0x19 PUSH1 0x24 DUP3 ADD MSTORE PUSH32 0x4368616C6C656E676520616C7265616479207374617274656400000000000000 PUSH1 0x44 DUP3 ADD MSTORE PUSH1 0x64 SWAP1 REVERT JUMPDEST PUSH1 0x40 MLOAD PUSH3 0x461BCD PUSH1 0xE5 SHL DUP2 MSTORE PUSH1 0x20 PUSH1 0x4 DUP3 ADD MSTORE PUSH1 0x1B PUSH1 0x24 DUP3 ADD MSTORE PUSH32 0x4368616C6C656E676520616C72656164792077697468647261776E0000000000 PUSH1 0x44 DUP3 ADD MSTORE PUSH1 0x64 SWAP1 REVERT JUMPDEST PUSH1 0x40 MLOAD PUSH3 0x461BCD PUSH1 0xE5 SHL DUP2 MSTORE PUSH1 0x20 PUSH1 0x4 DUP3 ADD MSTORE PUSH1 0x1A PUSH1 0x24 DUP3 ADD MSTORE PUSH32 0x4368616C6C656E676520616C72656164792063616E63656C6564000000000000 PUSH1 0x44 DUP3 ADD MSTORE PUSH1 0x64 SWAP1 REVERT JUMPDEST CALLVALUE PUSH2 0x16D JUMPI PUSH0 CALLDATASIZE PUSH1 0x3 NOT ADD SLT PUSH2 0x16D JUMPI PUSH1 0x2 SLOAD PUSH1 0x40 MLOAD PUSH1 0x1 PUSH1 0x1 PUSH1 0xA0 SHL SUB SWAP1 SWAP2 AND DUP2 MSTORE PUSH1 0x20 SWAP1 RETURN JUMPDEST CALLVALUE PUSH2 0x16D JUMPI PUSH0 CALLDATASIZE PUSH1 0x3 NOT ADD SLT PUSH2 0x16D JUMPI PUSH1 0x20 PUSH1 0xFF PUSH0 SLOAD PUSH1 0xA0 SHR AND PUSH1 0x40 MLOAD SWAP1 ISZERO ISZERO DUP2 MSTORE RETURN JUMPDEST CALLVALUE PUSH2 0x16D JUMPI PUSH0 CALLDATASIZE PUSH1 0x3 NOT ADD SLT PUSH2 0x16D JUMPI PUSH2 0x1E62 PUSH2 0x255D JUMP JUMPDEST PUSH0 SLOAD PUSH1 0xFF DUP2 PUSH1 0xA0 SHR AND ISZERO PUSH2 0x1EA7 JUMPI PUSH1 0xFF PUSH1 0xA0 SHL NOT AND PUSH0 SSTORE PUSH1 0x40 MLOAD CALLER DUP2 MSTORE PUSH32 0x5DB9EE0A495BF2E6FF9C91A7834C1BA4FDD244A5E8AA4E537BD38AEAE4B073AA SWAP1 PUSH1 0x20 SWAP1 LOG1 STOP JUMPDEST PUSH4 0x8DFC202B PUSH1 0xE0 SHL PUSH0 MSTORE PUSH1 0x4 PUSH0 REVERT JUMPDEST CALLVALUE PUSH2 0x16D JUMPI PUSH0 CALLDATASIZE PUSH1 0x3 NOT ADD SLT PUSH2 0x16D JUMPI PUSH1 0x20 PUSH1 0x5 SLOAD PUSH1 0x40 MLOAD SWAP1 DUP2 MSTORE RETURN JUMPDEST CALLVALUE PUSH2 0x16D JUMPI PUSH1 0x20 CALLDATASIZE PUSH1 0x3 NOT ADD SLT PUSH2 0x16D JUMPI PUSH1 0x4 CALLDATALOAD PUSH0 DUP2 DUP2 MSTORE PUSH1 0x7 PUSH1 0x20 MSTORE PUSH1 0x40 SWAP1 KECCAK256 SLOAD PUSH2 0x1F09 SWAP1 PUSH1 0x1 PUSH1 0x1 PUSH1 0xA0 SHL SUB AND ISZERO ISZERO PUSH2 0x227D JUMP JUMPDEST PUSH0 MSTORE PUSH1 0x7 PUSH1 0x20 MSTORE PUSH1 0x40 PUSH0 KECCAK256 PUSH1 0x1 DUP1 PUSH1 0xA0 SHL SUB DUP2 SLOAD AND SWAP1 PUSH1 0x1 DUP2 ADD SWAP2 PUSH1 0x2 DUP3 ADD SLOAD SWAP3 PUSH1 0x3 DUP4 ADD SLOAD SWAP3 PUSH1 0x4 DUP2 ADD SLOAD SWAP1 PUSH1 0x5 DUP2 ADD SLOAD PUSH1 0x7 PUSH1 0x6 DUP4 ADD SLOAD SWAP3 ADD SLOAD SWAP3 PUSH1 0x40 MLOAD SWAP7 PUSH0 SWAP9 DUP7 SLOAD SWAP7 PUSH2 0x1F58 DUP9 PUSH2 0x22BF JUMP JUMPDEST SWAP1 DUP2 DUP12 MSTORE PUSH1 0x20 DUP12 ADD SWAP9 PUSH1 0x1 DUP2 AND SWAP1 DUP2 PUSH0 EQ PUSH2 0x2094 JUMPI POP PUSH1 0x1 EQ PUSH2 0x2059 JUMPI JUMPDEST POP POP SWAP1 PUSH1 0xFF SWAP6 SWAP5 SWAP4 SWAP3 SWAP2 PUSH2 0x1F90 DUP11 PUSH2 0x200 SWAP12 SWAP13 SUB DUP13 PUSH2 0x22F7 JUMP JUMPDEST PUSH1 0x40 MLOAD SWAP11 DUP12 SWAP10 DUP11 MSTORE PUSH2 0x1E0 PUSH1 0x20 DUP12 ADD MSTORE MLOAD DUP1 SWAP9 DUP2 PUSH2 0x1E0 DUP13 ADD MSTORE DUP12 DUP12 ADD MCOPY PUSH0 DUP11 DUP10 DUP12 ADD ADD MSTORE PUSH1 0x1 PUSH1 0x1 PUSH1 0x40 SHL SUB DUP2 AND PUSH1 0x40 DUP11 ADD MSTORE PUSH1 0x1 PUSH1 0x1 PUSH1 0x40 SHL SUB DUP2 PUSH1 0x40 SHR AND PUSH1 0x60 DUP11 ADD MSTORE PUSH1 0x1 PUSH1 0x1 PUSH1 0x40 SHL SUB DUP2 PUSH1 0x80 SHR AND PUSH1 0x80 DUP11 ADD MSTORE PUSH4 0xFFFFFFFF DUP2 PUSH1 0xC0 SHR AND PUSH1 0xA0 DUP11 ADD MSTORE PUSH1 0xE0 SHR PUSH1 0xC0 DUP10 ADD MSTORE PUSH1 0xE0 DUP9 ADD MSTORE PUSH2 0x100 DUP8 ADD MSTORE PUSH2 0x120 DUP7 ADD MSTORE PUSH2 0x140 DUP6 ADD MSTORE PUSH4 0xFFFFFFFF DUP2 AND PUSH2 0x160 DUP6 ADD MSTORE DUP2 DUP2 PUSH1 0x20 SHR AND ISZERO ISZERO PUSH2 0x180 DUP6 ADD MSTORE DUP2 DUP2 PUSH1 0x28 SHR AND ISZERO ISZERO PUSH2 0x1A0 DUP6 ADD MSTORE PUSH1 0x30 SHR AND ISZERO ISZERO PUSH2 0x1C0 DUP4 ADD MSTORE PUSH1 0x1F DUP1 NOT SWAP2 ADD AND DUP2 ADD SUB ADD SWAP1 RETURN JUMPDEST SWAP1 SWAP11 POP PUSH0 MSTORE PUSH1 0x20 PUSH0 KECCAK256 PUSH0 SWAP1 JUMPDEST DUP12 DUP3 LT PUSH2 0x207D JUMPI POP DUP10 ADD PUSH1 0x20 ADD SWAP10 POP DUP1 PUSH2 0x1F90 PUSH2 0x1F76 JUMP JUMPDEST PUSH1 0x1 DUP2 DUP13 PUSH1 0x20 DUP6 DUP2 SWAP6 SLOAD SWAP3 ADD ADD MSTORE ADD SWAP2 ADD SWAP1 PUSH2 0x2065 JUMP JUMPDEST PUSH1 0xFF NOT AND DUP11 MSTORE POP POP ISZERO ISZERO PUSH1 0x5 SHL DUP10 ADD PUSH1 0x20 ADD SWAP10 POP DUP1 PUSH2 0x1F90 PUSH2 0x1F76 JUMP JUMPDEST CALLVALUE PUSH2 0x16D JUMPI PUSH1 0x20 CALLDATASIZE PUSH1 0x3 NOT ADD SLT PUSH2 0x16D JUMPI PUSH1 0x4 CALLDATALOAD PUSH2 0x20CD PUSH2 0x255D JUMP JUMPDEST PUSH2 0x20D5 PUSH2 0x2583 JUMP JUMPDEST DUP1 ISZERO PUSH2 0x219A JUMPI PUSH1 0x5 SLOAD DUP1 DUP3 GT PUSH2 0x2155 JUMPI DUP2 PUSH2 0x20EF SWAP2 PUSH2 0x2270 JUMP JUMPDEST PUSH1 0x5 SSTORE PUSH1 0x2 SLOAD PUSH2 0x2109 SWAP1 DUP3 SWAP1 PUSH1 0x1 PUSH1 0x1 PUSH1 0xA0 SHL SUB AND PUSH2 0x25BB JUMP JUMPDEST PUSH1 0x2 SLOAD PUSH1 0x40 MLOAD SWAP2 DUP3 MSTORE PUSH1 0x1 PUSH1 0x1 PUSH1 0xA0 SHL SUB AND SWAP1 PUSH32 0x41FDD680478135993BC53FB2FFAF9560951B57EF62FF6BADD02B61E018B4F17F SWAP1 PUSH1 0x20 SWAP1 LOG2 PUSH1 0x1 PUSH0 MLOAD PUSH1 0x20 PUSH2 0x265B PUSH0 CODECOPY PUSH0 MLOAD SWAP1 PUSH0 MSTORE SSTORE STOP JUMPDEST PUSH1 0x40 MLOAD PUSH3 0x461BCD PUSH1 0xE5 SHL DUP2 MSTORE PUSH1 0x20 PUSH1 0x4 DUP3 ADD MSTORE PUSH1 0x1F PUSH1 0x24 DUP3 ADD MSTORE PUSH32 0x416D6F756E7420657863656564732074726561737572792062616C616E636500 PUSH1 0x44 DUP3 ADD MSTORE PUSH1 0x64 SWAP1 REVERT JUMPDEST PUSH1 0x40 MLOAD PUSH3 0x461BCD PUSH1 0xE5 SHL DUP2 MSTORE PUSH1 0x20 PUSH1 0x4 DUP3 ADD MSTORE PUSH1 0x12 PUSH1 0x24 DUP3 ADD MSTORE PUSH18 0x416D6F756E74206D757374206265203E203 PUSH1 0x74 SHL PUSH1 0x44 DUP3 ADD MSTORE PUSH1 0x64 SWAP1 REVERT JUMPDEST CALLVALUE PUSH2 0x16D JUMPI PUSH1 0x20 CALLDATASIZE PUSH1 0x3 NOT ADD SLT PUSH2 0x16D JUMPI PUSH1 0x4 CALLDATALOAD PUSH1 0x1 PUSH1 0x1 PUSH1 0xA0 SHL SUB DUP2 AND SWAP1 DUP2 SWAP1 SUB PUSH2 0x16D JUMPI PUSH0 MSTORE PUSH1 0x6 PUSH1 0x20 MSTORE PUSH1 0x20 PUSH1 0x40 PUSH0 KECCAK256 SLOAD PUSH1 0x40 MLOAD SWAP1 DUP2 MSTORE RETURN JUMPDEST CALLVALUE PUSH2 0x16D JUMPI PUSH0 CALLDATASIZE PUSH1 0x3 NOT ADD SLT PUSH2 0x16D JUMPI PUSH1 0x3 SLOAD PUSH1 0x1 PUSH1 0x1 PUSH1 0xA0 SHL SUB AND DUP2 MSTORE PUSH1 0x20 SWAP1 RETURN JUMPDEST PUSH1 0x60 SWAP1 PUSH1 0x3 NOT ADD SLT PUSH2 0x16D JUMPI PUSH1 0x4 CALLDATALOAD SWAP1 PUSH1 0x24 CALLDATALOAD SWAP1 PUSH1 0x44 CALLDATALOAD SWAP1 JUMP JUMPDEST PUSH1 0x40 SWAP1 PUSH1 0x3 NOT ADD SLT PUSH2 0x16D JUMPI PUSH1 0x4 CALLDATALOAD SWAP1 PUSH1 0x24 CALLDATALOAD SWAP1 JUMP JUMPDEST SWAP1 PUSH1 0x4 DUP3 LT ISZERO PUSH2 0x4CA JUMPI MSTORE JUMP JUMPDEST SWAP2 SWAP1 DUP3 SUB SWAP2 DUP3 GT PUSH2 0xAEE JUMPI JUMP JUMPDEST ISZERO PUSH2 0x2284 JUMPI JUMP JUMPDEST PUSH1 0x40 MLOAD PUSH3 0x461BCD PUSH1 0xE5 SHL DUP2 MSTORE PUSH1 0x20 PUSH1 0x4 DUP3 ADD MSTORE PUSH1 0x13 PUSH1 0x24 DUP3 ADD MSTORE PUSH19 0x10DA185B1B195B99D9481B9BDD08199BDD5B99 PUSH1 0x6A SHL PUSH1 0x44 DUP3 ADD MSTORE PUSH1 0x64 SWAP1 REVERT JUMPDEST SWAP1 PUSH1 0x1 DUP3 DUP2 SHR SWAP3 AND DUP1 ISZERO PUSH2 0x22ED JUMPI JUMPDEST PUSH1 0x20 DUP4 LT EQ PUSH2 0x22D9 JUMPI JUMP JUMPDEST PUSH4 0x4E487B71 PUSH1 0xE0 SHL PUSH0 MSTORE PUSH1 0x22 PUSH1 0x4 MSTORE PUSH1 0x24 PUSH0 REVERT JUMPDEST SWAP2 PUSH1 0x7F AND SWAP2 PUSH2 0x22CE JUMP JUMPDEST SWAP1 PUSH1 0x1F DUP1 NOT SWAP2 ADD AND DUP2 ADD SWAP1 DUP2 LT PUSH1 0x1 PUSH1 0x1 PUSH1 0x40 SHL SUB DUP3 GT OR PUSH2 0xADA JUMPI PUSH1 0x40 MSTORE JUMP JUMPDEST ISZERO PUSH2 0x231F JUMPI JUMP JUMPDEST PUSH1 0x40 MLOAD PUSH3 0x461BCD PUSH1 0xE5 SHL DUP2 MSTORE PUSH1 0x20 PUSH1 0x4 DUP3 ADD MSTORE PUSH1 0x12 PUSH1 0x24 DUP3 ADD MSTORE PUSH18 0x2737BA1031B430B63632B733B2903AB9B2B9 PUSH1 0x71 SHL PUSH1 0x44 DUP3 ADD MSTORE PUSH1 0x64 SWAP1 REVERT JUMPDEST ISZERO PUSH2 0x2360 JUMPI JUMP JUMPDEST PUSH1 0x40 MLOAD PUSH3 0x461BCD PUSH1 0xE5 SHL DUP2 MSTORE PUSH1 0x20 PUSH1 0x4 DUP3 ADD MSTORE PUSH1 0x17 PUSH1 0x24 DUP3 ADD MSTORE PUSH32 0x4368616C6C656E6765206973206E6F7420616374697665000000000000000000 PUSH1 0x44 DUP3 ADD MSTORE PUSH1 0x64 SWAP1 REVERT JUMPDEST ISZERO PUSH2 0x23AC JUMPI JUMP JUMPDEST PUSH1 0x40 MLOAD PUSH3 0x461BCD PUSH1 0xE5 SHL DUP2 MSTORE PUSH1 0x20 PUSH1 0x4 DUP3 ADD MSTORE PUSH1 0xB PUSH1 0x24 DUP3 ADD MSTORE PUSH11 0x4F6E6C79206F7261636C65 PUSH1 0xA8 SHL PUSH1 0x44 DUP3 ADD MSTORE PUSH1 0x64 SWAP1 REVERT JUMPDEST ISZERO PUSH2 0x23E6 JUMPI JUMP JUMPDEST PUSH1 0x40 MLOAD PUSH3 0x461BCD PUSH1 0xE5 SHL DUP2 MSTORE PUSH1 0x20 PUSH1 0x4 DUP3 ADD MSTORE PUSH1 0x12 PUSH1 0x24 DUP3 ADD MSTORE PUSH18 0x10DA185B1B195B99D94818D85B98D95B1959 PUSH1 0x72 SHL PUSH1 0x44 DUP3 ADD MSTORE PUSH1 0x64 SWAP1 REVERT JUMPDEST ISZERO PUSH2 0x2427 JUMPI JUMP JUMPDEST PUSH1 0x40 MLOAD PUSH3 0x461BCD PUSH1 0xE5 SHL DUP2 MSTORE PUSH1 0x20 PUSH1 0x4 DUP3 ADD MSTORE PUSH1 0x14 PUSH1 0x24 DUP3 ADD MSTORE PUSH20 0x92DCECC2D8D2C840E0CAE4D2DEC840D2DCC8CAF PUSH1 0x63 SHL PUSH1 0x44 DUP3 ADD MSTORE PUSH1 0x64 SWAP1 REVERT JUMPDEST ISZERO PUSH2 0x246A JUMPI JUMP JUMPDEST PUSH1 0x40 MLOAD PUSH3 0x461BCD PUSH1 0xE5 SHL DUP2 MSTORE PUSH1 0x20 PUSH1 0x4 DUP3 ADD MSTORE PUSH1 0x17 PUSH1 0x24 DUP3 ADD MSTORE PUSH32 0x506572696F6420616C7265616479207265736F6C766564000000000000000000 PUSH1 0x44 DUP3 ADD MSTORE PUSH1 0x64 SWAP1 REVERT JUMPDEST ISZERO PUSH2 0x24B6 JUMPI JUMP JUMPDEST PUSH1 0x40 MLOAD PUSH3 0x461BCD PUSH1 0xE5 SHL DUP2 MSTORE PUSH1 0x20 PUSH1 0x4 DUP3 ADD MSTORE PUSH1 0x14 PUSH1 0x24 DUP3 ADD MSTORE PUSH20 0x14195C9A5BD9081B9BDD08195B991959081E595D PUSH1 0x62 SHL PUSH1 0x44 DUP3 ADD MSTORE PUSH1 0x64 SWAP1 REVERT JUMPDEST SWAP1 PUSH1 0x4 DUP2 LT ISZERO PUSH2 0x4CA JUMPI PUSH1 0xFF DUP1 NOT DUP4 SLOAD AND SWAP2 AND OR SWAP1 SSTORE JUMP JUMPDEST PUSH4 0xFFFFFFFF PUSH1 0x1 SWAP2 AND ADD SWAP1 PUSH4 0xFFFFFFFF DUP3 GT PUSH2 0xAEE JUMPI JUMP JUMPDEST SWAP2 SWAP1 DUP3 ADD DUP1 SWAP3 GT PUSH2 0xAEE JUMPI JUMP JUMPDEST DUP2 DUP2 MUL SWAP3 SWAP2 DUP2 ISZERO SWAP2 DUP5 DIV EQ OR ISZERO PUSH2 0xAEE JUMPI JUMP JUMPDEST PUSH1 0x1 PUSH1 0x1 PUSH1 0x40 SHL SUB DUP2 GT PUSH2 0xADA JUMPI PUSH1 0x1F ADD PUSH1 0x1F NOT AND PUSH1 0x20 ADD SWAP1 JUMP JUMPDEST PUSH0 SLOAD PUSH1 0x1 PUSH1 0x1 PUSH1 0xA0 SHL SUB AND CALLER SUB PUSH2 0x2570 JUMPI JUMP JUMPDEST PUSH4 0x118CDAA7 PUSH1 0xE0 SHL PUSH0 MSTORE CALLER PUSH1 0x4 MSTORE PUSH1 0x24 PUSH0 REVERT JUMPDEST PUSH1 0x2 PUSH0 MLOAD PUSH1 0x20 PUSH2 0x265B PUSH0 CODECOPY PUSH0 MLOAD SWAP1 PUSH0 MSTORE SLOAD EQ PUSH2 0x25AC JUMPI PUSH1 0x2 PUSH0 MLOAD PUSH1 0x20 PUSH2 0x265B PUSH0 CODECOPY PUSH0 MLOAD SWAP1 PUSH0 MSTORE SSTORE JUMP JUMPDEST PUSH4 0x3EE5AEB5 PUSH1 0xE0 SHL PUSH0 MSTORE PUSH1 0x4 PUSH0 REVERT JUMPDEST PUSH0 SWAP2 DUP3 SWAP2 DUP3 SWAP2 DUP3 SWAP2 PUSH1 0x1 PUSH1 0x1 PUSH1 0xA0 SHL SUB AND GAS CALL RETURNDATASIZE ISZERO PUSH2 0x2638 JUMPI RETURNDATASIZE PUSH2 0x25DE DUP2 PUSH2 0x2542 JUMP JUMPDEST SWAP1 PUSH2 0x25EC PUSH1 0x40 MLOAD SWAP3 DUP4 PUSH2 0x22F7 JUMP JUMPDEST DUP2 MSTORE PUSH0 PUSH1 0x20 RETURNDATASIZE SWAP3 ADD RETURNDATACOPY JUMPDEST ISZERO PUSH2 0x25FD JUMPI JUMP JUMPDEST PUSH1 0x40 MLOAD PUSH3 0x461BCD PUSH1 0xE5 SHL DUP2 MSTORE PUSH1 0x20 PUSH1 0x4 DUP3 ADD MSTORE PUSH1 0x13 PUSH1 0x24 DUP3 ADD MSTORE PUSH19 0x115512081D1C985B9CD9995C8819985A5B1959 PUSH1 0x6A SHL PUSH1 0x44 DUP3 ADD MSTORE PUSH1 0x64 SWAP1 REVERT JUMPDEST PUSH2 0x25F6 JUMP JUMPDEST PUSH1 0xFF PUSH0 SLOAD PUSH1 0xA0 SHR AND PUSH2 0x264B JUMPI JUMP JUMPDEST PUSH4 0xD93C0665 PUSH1 0xE0 SHL PUSH0 MSTORE PUSH1 0x4 PUSH0 REVERT INVALID SWAP12 PUSH24 0x9B17422D0DF92223018B32B4D1FA46E071723D6817E2486D STOP EXTCODESIZE 0xEC 0xC5 PUSH0 STOP LOG2 PUSH5 0x6970667358 0x22 SLT KECCAK256 0xAA GASLIMIT BLOCKHASH JUMP SELFBALANCE PUSH27 0xE22A1767CFABAFD23AEAB811FCCAF8A1FC79BF75DDECE1EC1F4964 PUSH20 0x6F6C634300081C00330000000000000000000000 "},"methodIdentifiers":{"activeChallengeOf(address)":"d7376ed0","cancelBeforeStart(uint256)":"6fbc4e57","challengeEndAt(uint256)":"b28476fa","createChallenge(string,uint64,uint64,uint64,uint32,uint32,uint256,uint256)":"dbf9613d","getChallenge(uint256)":"1bdd4b74","getPeriodRecord(uint256,uint256)":"c2c94a39","getPeriodWindow(uint256,uint256)":"b6f7d2b4","markPeriodCompleted(uint256,uint256,uint256,uint256,uint256,bytes32)":"7753ddcf","nextChallengeId()":"fc67aa50","oracle()":"7dc0d1d0","outstandingPenaltyOf(address)":"0eb6e220","owner()":"8da5cb5b","pause()":"8456cb59","paused()":"5c975abb","payPeriodPenalty(uint256,uint256)":"9d8ec129","penaltyRecipient()":"012caae1","renounceOwnership()":"715018a6","setOracle(address)":"7adbf973","setPenaltyRecipient(address)":"b25a7a18","setTreasury(address)":"f0f44260","slashPeriodNoOk(uint256,uint256,bytes32)":"e8903954","slashPeriodNoSubmission(uint256,uint256,bytes32)":"953d26e0","transferOwnership(address)":"f2fde38b","treasury()":"61d027b3","treasuryBalance()":"313dab20","unpause()":"3f4ba83a","withdrawRemaining(uint256)":"86fc0541","withdrawTreasury(uint256)":"11f1fc99"}}}}}