{"project/contracts/CodeforcesDailyChallenge.sol":{"CodeforcesDailyChallenge":{"abi":[{"inputs":[{"internalType":"address","name":"tokenAddress","type":"address"},{"internalType":"address","name":"initialOracle","type":"address"},{"internalType":"address","name":"initialTreasury","type":"address"}],"stateMutability":"nonpayable","type":"constructor"},{"inputs":[],"name":"EnforcedPause","type":"error"},{"inputs":[],"name":"ExpectedPause","type":"error"},{"inputs":[{"internalType":"address","name":"owner","type":"address"}],"name":"OwnableInvalidOwner","type":"error"},{"inputs":[{"internalType":"address","name":"account","type":"address"}],"name":"OwnableUnauthorizedAccount","type":"error"},{"inputs":[],"name":"ReentrancyGuardReentrantCall","type":"error"},{"inputs":[{"internalType":"address","name":"token","type":"address"}],"name":"SafeERC20FailedOperation","type":"error"},{"anonymous":false,"inputs":[{"indexed":true,"internalType":"uint256","name":"challengeId","type":"uint256"},{"indexed":true,"internalType":"address","name":"user","type":"address"},{"indexed":false,"internalType":"uint256","name":"refundedAmount","type":"uint256"}],"name":"ChallengeCanceled","type":"event"},{"anonymous":false,"inputs":[{"indexed":true,"internalType":"uint256","name":"challengeId","type":"uint256"},{"indexed":true,"internalType":"address","name":"user","type":"address"},{"indexed":false,"internalType":"string","name":"handle","type":"string"},{"indexed":false,"internalType":"uint64","name":"startAt","type":"uint64"},{"indexed":false,"internalType":"uint64","name":"periodDuration","type":"uint64"},{"indexed":false,"internalType":"uint32","name":"totalPeriods","type":"uint32"},{"indexed":false,"internalType":"uint32","name":"minRating","type":"uint32"},{"indexed":false,"internalType":"uint256","name":"penaltyNoSubmission","type":"uint256"},{"indexed":false,"internalType":"uint256","name":"penaltyNoOk","type":"uint256"},{"indexed":false,"internalType":"uint256","name":"deposit","type":"uint256"}],"name":"ChallengeCreated","type":"event"},{"anonymous":false,"inputs":[{"indexed":true,"internalType":"address","name":"oldOracle","type":"address"},{"indexed":true,"internalType":"address","name":"newOracle","type":"address"}],"name":"OracleUpdated","type":"event"},{"anonymous":false,"inputs":[{"indexed":true,"internalType":"address","name":"previousOwner","type":"address"},{"indexed":true,"internalType":"address","name":"newOwner","type":"address"}],"name":"OwnershipTransferred","type":"event"},{"anonymous":false,"inputs":[{"indexed":false,"internalType":"address","name":"account","type":"address"}],"name":"Paused","type":"event"},{"anonymous":false,"inputs":[{"indexed":true,"internalType":"uint256","name":"challengeId","type":"uint256"},{"indexed":true,"internalType":"uint256","name":"periodIndex","type":"uint256"},{"indexed":false,"internalType":"uint256","name":"submissionId","type":"uint256"},{"indexed":false,"internalType":"uint256","name":"acceptedAt","type":"uint256"},{"indexed":false,"internalType":"uint256","name":"rating","type":"uint256"},{"indexed":false,"internalType":"bytes32","name":"proofHash","type":"bytes32"}],"name":"PeriodCompleted","type":"event"},{"anonymous":false,"inputs":[{"indexed":true,"internalType":"uint256","name":"challengeId","type":"uint256"},{"indexed":true,"internalType":"uint256","name":"periodIndex","type":"uint256"},{"indexed":false,"internalType":"enum CodeforcesDailyChallenge.PeriodStatus","name":"status","type":"uint8"},{"indexed":false,"internalType":"uint256","name":"penaltyApplied","type":"uint256"},{"indexed":false,"internalType":"bytes32","name":"proofHash","type":"bytes32"}],"name":"PeriodSlashed","type":"event"},{"anonymous":false,"inputs":[{"indexed":true,"internalType":"uint256","name":"challengeId","type":"uint256"},{"indexed":true,"internalType":"address","name":"user","type":"address"},{"indexed":false,"internalType":"uint256","name":"amount","type":"uint256"}],"name":"RemainingWithdrawn","type":"event"},{"anonymous":false,"inputs":[{"indexed":true,"internalType":"address","name":"oldTreasury","type":"address"},{"indexed":true,"internalType":"address","name":"newTreasury","type":"address"}],"name":"TreasuryUpdated","type":"event"},{"anonymous":false,"inputs":[{"indexed":true,"internalType":"address","name":"treasury","type":"address"},{"indexed":false,"internalType":"uint256","name":"amount","type":"uint256"}],"name":"TreasuryWithdrawn","type":"event"},{"anonymous":false,"inputs":[{"indexed":false,"internalType":"address","name":"account","type":"address"}],"name":"Unpaused","type":"event"},{"inputs":[{"internalType":"address","name":"","type":"address"}],"name":"activeChallengeOf","outputs":[{"internalType":"uint256","name":"","type":"uint256"}],"stateMutability":"view","type":"function"},{"inputs":[{"internalType":"uint256","name":"challengeId","type":"uint256"}],"name":"cancelBeforeStart","outputs":[],"stateMutability":"nonpayable","type":"function"},{"inputs":[{"internalType":"uint256","name":"challengeId","type":"uint256"}],"name":"challengeEndAt","outputs":[{"internalType":"uint256","name":"","type":"uint256"}],"stateMutability":"view","type":"function"},{"inputs":[{"internalType":"string","name":"handle","type":"string"},{"internalType":"uint64","name":"startAt","type":"uint64"},{"internalType":"uint64","name":"periodDuration","type":"uint64"},{"internalType":"uint32","name":"totalPeriods","type":"uint32"},{"internalType":"uint32","name":"minRating","type":"uint32"},{"internalType":"uint256","name":"penaltyNoSubmission","type":"uint256"},{"internalType":"uint256","name":"penaltyNoOk","type":"uint256"}],"name":"createChallenge","outputs":[{"internalType":"uint256","name":"challengeId","type":"uint256"}],"stateMutability":"nonpayable","type":"function"},{"inputs":[{"internalType":"uint256","name":"challengeId","type":"uint256"}],"name":"getChallenge","outputs":[{"internalType":"address","name":"user","type":"address"},{"internalType":"string","name":"handle","type":"string"},{"internalType":"uint64","name":"startAt","type":"uint64"},{"internalType":"uint64","name":"periodDuration","type":"uint64"},{"internalType":"uint32","name":"totalPeriods","type":"uint32"},{"internalType":"uint32","name":"minRating","type":"uint32"},{"internalType":"uint256","name":"penaltyNoSubmission","type":"uint256"},{"internalType":"uint256","name":"penaltyNoOk","type":"uint256"},{"internalType":"uint256","name":"deposit","type":"uint256"},{"internalType":"uint256","name":"slashedAmount","type":"uint256"},{"internalType":"uint32","name":"resolvedPeriods","type":"uint32"},{"internalType":"bool","name":"withdrawn","type":"bool"},{"internalType":"bool","name":"canceled","type":"bool"},{"internalType":"bool","name":"active","type":"bool"}],"stateMutability":"view","type":"function"},{"inputs":[{"internalType":"uint256","name":"challengeId","type":"uint256"},{"internalType":"uint256","name":"periodIndex","type":"uint256"}],"name":"getPeriodRecord","outputs":[{"internalType":"enum CodeforcesDailyChallenge.PeriodStatus","name":"status","type":"uint8"},{"internalType":"uint256","name":"resolvedAt","type":"uint256"},{"internalType":"uint256","name":"penaltyApplied","type":"uint256"},{"internalType":"uint256","name":"submissionId","type":"uint256"},{"internalType":"uint256","name":"acceptedAt","type":"uint256"},{"internalType":"uint256","name":"rating","type":"uint256"},{"internalType":"bytes32","name":"proofHash","type":"bytes32"}],"stateMutability":"view","type":"function"},{"inputs":[{"internalType":"uint256","name":"challengeId","type":"uint256"},{"internalType":"uint256","name":"periodIndex","type":"uint256"}],"name":"getPeriodWindow","outputs":[{"internalType":"uint256","name":"periodStart","type":"uint256"},{"internalType":"uint256","name":"periodEnd","type":"uint256"}],"stateMutability":"view","type":"function"},{"inputs":[{"internalType":"uint256","name":"challengeId","type":"uint256"},{"internalType":"uint256","name":"periodIndex","type":"uint256"},{"internalType":"uint256","name":"submissionId","type":"uint256"},{"internalType":"uint256","name":"acceptedAt","type":"uint256"},{"internalType":"uint256","name":"rating","type":"uint256"},{"internalType":"bytes32","name":"proofHash","type":"bytes32"}],"name":"markPeriodCompleted","outputs":[],"stateMutability":"nonpayable","type":"function"},{"inputs":[],"name":"nextChallengeId","outputs":[{"internalType":"uint256","name":"","type":"uint256"}],"stateMutability":"view","type":"function"},{"inputs":[],"name":"oracle","outputs":[{"internalType":"address","name":"","type":"address"}],"stateMutability":"view","type":"function"},{"inputs":[],"name":"owner","outputs":[{"internalType":"address","name":"","type":"address"}],"stateMutability":"view","type":"function"},{"inputs":[],"name":"pause","outputs":[],"stateMutability":"nonpayable","type":"function"},{"inputs":[],"name":"paused","outputs":[{"internalType":"bool","name":"","type":"bool"}],"stateMutability":"view","type":"function"},{"inputs":[],"name":"renounceOwnership","outputs":[],"stateMutability":"nonpayable","type":"function"},{"inputs":[{"internalType":"address","name":"newOracle","type":"address"}],"name":"setOracle","outputs":[],"stateMutability":"nonpayable","type":"function"},{"inputs":[{"internalType":"address","name":"newTreasury","type":"address"}],"name":"setTreasury","outputs":[],"stateMutability":"nonpayable","type":"function"},{"inputs":[{"internalType":"uint256","name":"challengeId","type":"uint256"},{"internalType":"uint256","name":"periodIndex","type":"uint256"},{"internalType":"bytes32","name":"proofHash","type":"bytes32"}],"name":"slashPeriodNoOk","outputs":[],"stateMutability":"nonpayable","type":"function"},{"inputs":[{"internalType":"uint256","name":"challengeId","type":"uint256"},{"internalType":"uint256","name":"periodIndex","type":"uint256"},{"internalType":"bytes32","name":"proofHash","type":"bytes32"}],"name":"slashPeriodNoSubmission","outputs":[],"stateMutability":"nonpayable","type":"function"},{"inputs":[],"name":"token","outputs":[{"internalType":"contract IERC20","name":"","type":"address"}],"stateMutability":"view","type":"function"},{"inputs":[{"internalType":"address","name":"newOwner","type":"address"}],"name":"transferOwnership","outputs":[],"stateMutability":"nonpayable","type":"function"},{"inputs":[],"name":"treasury","outputs":[{"internalType":"address","name":"","type":"address"}],"stateMutability":"view","type":"function"},{"inputs":[],"name":"treasuryBalance","outputs":[{"internalType":"uint256","name":"","type":"uint256"}],"stateMutability":"view","type":"function"},{"inputs":[],"name":"unpause","outputs":[],"stateMutability":"nonpayable","type":"function"},{"inputs":[{"internalType":"uint256","name":"challengeId","type":"uint256"}],"name":"withdrawRemaining","outputs":[],"stateMutability":"nonpayable","type":"function"},{"inputs":[{"internalType":"uint256","name":"amount","type":"uint256"}],"name":"withdrawTreasury","outputs":[],"stateMutability":"nonpayable","type":"function"}],"evm":{"bytecode":{"linkReferences":{},"object":"60a03461023f57601f61251e38819003918201601f19168301916001600160401b038311848410176102435780849260609460405283398101031261023f5761004781610257565b90610060604061005960208401610257565b9201610257565b90331561022c575f8054336001600160a01b0319821681178355604051959290916001600160a01b0316907f8be0079c531659141344cd1fd0a4f28419497f9722a3daafe3b4186f6b6457e09080a360017f9b779b17422d0df92223018b32b4d1fa46e071723d6817e2486d003becc55f008190556003556001600160a01b03169283156101ea57506001600160a01b03169081156101a5576001600160a01b03169182156101605760805260018060a01b0319600154161760015560018060a01b031960025416176002556040516122b2908161026c8239608051818181610162015281816109ee015281816110020152818161127a0152611d400152f35b60405162461bcd60e51b815260206004820152601860248201527f54726561737572792061646472657373206973207a65726f00000000000000006044820152606490fd5b60405162461bcd60e51b815260206004820152601660248201527f4f7261636c652061646472657373206973207a65726f000000000000000000006044820152606490fd5b62461bcd60e51b815260206004820152601560248201527f546f6b656e2061646472657373206973207a65726f00000000000000000000006044820152606490fd5b631e4fbdf760e01b5f525f60045260245ffd5b5f80fd5b634e487b7160e01b5f52604160045260245ffd5b51906001600160a01b038216820361023f5756fe60806040526004361015610011575f80fd5b5f3560e01c806311f1fc9914611ceb5780631bdd4b7414611b18578063313dab2014611afb5780633f4ba83a14611a8f5780635c975abb14611a6b5780635e5df6d11461114657806361d027b31461111e5780636fbc4e5714610ef1578063715018a614610e9a5780637753ddcf14610bde5780637adbf97314610b295780637dc0d1d014610b015780638456cb5914610aa157806386fc05411461089a5780638da5cb5b14610873578063953d26e0146106b5578063b28476fa14610643578063b6f7d2b4146105c2578063c2c94a3914610529578063d7376ed0146104ed578063e8903954146102d6578063f0f442601461021a578063f2fde38b14610191578063fc0c546a1461014d5763fc67aa501461012c575f80fd5b34610149575f366003190112610149576020600354604051908152f35b5f80fd5b34610149575f366003190112610149576040517f00000000000000000000000000000000000000000000000000000000000000006001600160a01b03168152602090f35b34610149576020366003190112610149576004356001600160a01b03811690819003610149576101bf612180565b8015610207575f80546001600160a01b03198116831782556001600160a01b0316907f8be0079c531659141344cd1fd0a4f28419497f9722a3daafe3b4186f6b6457e09080a3005b631e4fbdf760e01b5f525f60045260245ffd5b34610149576020366003190112610149576004356001600160a01b0381169081900361014957610248612180565b801561029157600280546001600160a01b0319811683179091556001600160a01b03167f4ab5be82436d353e61ca18726e984e561f5c1cc7c6d38b29d2553c790434705a5f80a3005b60405162461bcd60e51b815260206004820152601860248201527f54726561737572792061646472657373206973207a65726f00000000000000006044820152606490fd5b34610149576102e436611e2f565b6102ef92919261223f565b61030460018060a01b03600154163314611fb4565b5f82815260056020526040902054610326906001600160a01b03161515611e79565b5f8281526005602052604090206004810154600782018054919290916103719060ff90610358603082901c8316611f68565b610367828260281c1615611fee565b60201c161561202f565b61038963ffffffff600283015460801c168710612071565b845f52600660205260405f20865f5260205260405f209060ff8254169160048310156104d957600686916103be8295156120b4565b5f898152600560205260409020546103e0906001600160a01b03161515611e79565b885f52600560205261043a6104328b61042d600260405f20015461040e63ffffffff8260801c168410612071565b6001600160401b03610426818360401c168095611f14565b9116612173565b612173565b421015612100565b610445600382612143565b4260018201558660028201555f60038201555f60048201555f6005820155015501610471838254612173565b905563ffffffff6104848183541661215b565b1663ffffffff1982541617905561049d81600454612173565b6004556040517fd388b3cee0096e9de51027ccef7addcc2ea1426463a17d76e5222a06b13eb8e5926060926003835260208301526040820152a3005b634e487b7160e01b5f52602160045260245ffd5b34610149576020366003190112610149576004356001600160a01b03811690819003610149575f526007602052602060405f2054604051908152f35b346101495761053736611e49565b90805f52600560205261055760018060a01b0360405f2054161515611e79565b5f52600660205260405f20905f5260205260e060405f2060ff815416906001810154906002810154600382015460048301549160066005850154940154946105a26040518098611e5f565b602087015260408601526060850152608084015260a083015260c0820152f35b346101495760406105d236611e49565b90805f5260056020526105f160018060a01b03845f2054161515611e79565b5f5260056020526106376106306002845f20015461061963ffffffff8260801c168510612071565b6001600160401b036104268183881c168096611f14565b9182612173565b82519182526020820152f35b34610149576020366003190112610149576004355f81815260056020526040902054610679906001600160a01b03161515611e79565b5f52600560205260206106ad600260405f2001546001600160401b0361042663ffffffff8360801c16828460401c16611f14565b604051908152f35b34610149576106c336611e2f565b6106ce92919261223f565b6106e360018060a01b03600154163314611fb4565b5f82815260056020526040902054610705906001600160a01b03161515611e79565b5f8281526005602052604090206003810154600782018054919290916107379060ff90610358603082901c8316611f68565b61074f63ffffffff600283015460801c168710612071565b845f52600660205260405f20865f5260205260405f209060ff8254169160048310156104d957600686916107848295156120b4565b5f898152600560205260409020546107a6906001600160a01b03161515611e79565b885f5260056020526107d46104328b61042d600260405f20015461040e63ffffffff8260801c168410612071565b6107df600282612143565b4260018201558660028201555f60038201555f60048201555f600582015501550161080b838254612173565b905563ffffffff61081e8183541661215b565b1663ffffffff1982541617905561083781600454612173565b6004556040517fd388b3cee0096e9de51027ccef7addcc2ea1426463a17d76e5222a06b13eb8e5926060926002835260208301526040820152a3005b34610149575f366003190112610149575f546040516001600160a01b039091168152602090f35b34610149576020366003190112610149576004356108b66121a6565b5f818152600560205260409020546108d8906001600160a01b03161515611e79565b805f5260056020526108f760018060a01b0360405f2054163314611f27565b805f52600560205260405f209060078201805461091960ff8260301c16611f68565b61092960ff8260281c1615611fee565b60ff8160201c16610a5c5763ffffffff600285015460801c1663ffffffff821603610a17576401000000009066ff00ff00000000191617905560018060a01b038254165f5260076020525f60408120557f4381c4ff301f4803259d996fd5ef93c9573568f5f59e2f4d584d73decc89caec60206109af6005850154600686015490611e6c565b93846109db575b546040519485526001600160a01b031693a360015f51602061225d5f395f51905f5255005b8054610a129086906001600160a01b03167f00000000000000000000000000000000000000000000000000000000000000006121de565b6109b6565b60405162461bcd60e51b815260206004820152601860248201527f4e6f7420616c6c20706572696f6473207265736f6c76656400000000000000006044820152606490fd5b60405162461bcd60e51b815260206004820152601b60248201527f52656d61696e696e6720616c72656164792077697468647261776e00000000006044820152606490fd5b34610149575f36600319011261014957610ab9612180565b610ac161223f565b5f805460ff60a01b1916600160a01b1790556040513381527f62e78cea01bee320cd4e420270b5ea74000d11b0c9f74754ebdbfc544b05a25890602090a1005b34610149575f366003190112610149576001546040516001600160a01b039091168152602090f35b34610149576020366003190112610149576004356001600160a01b0381169081900361014957610b57612180565b8015610ba057600180546001600160a01b0319811683179091556001600160a01b03167f078c3b417dadf69374a59793b829c52001247130433427049317bde56607b1b75f80a3005b60405162461bcd60e51b81526020600482015260166024820152754f7261636c652061646472657373206973207a65726f60501b6044820152606490fd5b346101495760c03660031901126101495760243560043560843560643560443560a435610c0961223f565b610c1e60018060a01b03600154163314611fb4565b5f85815260056020526040902054610c40906001600160a01b03161515611e79565b845f52600560205260405f209363ffffffff60026007870196610c6e60ff8954610358828260301c16611f68565b0154610c80828260801c168a10612071565b60a01c168110610e5e578215610e1957855f52600660205260405f20875f5260205260405f209360ff85541660048110156104d957610cbf90156120b4565b5f87815260056020526040902054610ce1906001600160a01b03161515611e79565b865f52600560205287610d24610630600260405f200154610d0c63ffffffff8260801c168510612071565b6001600160401b03610426818360401c168096611f14565b90610d3182421015612100565b8210159081610e0f575b5015610dca577ff71ffb44e9ffc964db62374983d76eaa14b53c8d33bc2f9dfd371800090ceb7195836006608097600160ff198254161781554260018201555f6002820155876003820155846004820155856005820155015563ffffffff610da58183541661215b565b1663ffffffff19825416179055604051938452602084015260408301526060820152a3005b60405162461bcd60e51b815260206004820152601960248201527f61636365707465644174206f75747369646520706572696f64000000000000006044820152606490fd5b9050811089610d3b565b60405162461bcd60e51b815260206004820152601960248201527f5375626d697373696f6e206964206d757374206265203e2030000000000000006044820152606490fd5b60405162461bcd60e51b8152602060048201526014602482015273526174696e672062656c6f77206d696e696d756d60601b6044820152606490fd5b34610149575f36600319011261014957610eb2612180565b5f80546001600160a01b0319811682556001600160a01b03167f8be0079c531659141344cd1fd0a4f28419497f9722a3daafe3b4186f6b6457e08280a3005b3461014957602036600319011261014957600435610f0d6121a6565b5f81815260056020526040902054610f2f906001600160a01b03161515611e79565b805f526005602052610f4e60018060a01b0360405f2054163314611f27565b805f52600560205260405f2090600782018054610f7060ff8260301c16611f68565b60ff8160281c166110d95760ff8160201c16611094576001600160401b0360028501541642101561104f57650100000000009066ffff0000000000191617905560018060a01b038254165f5260076020525f60408120557f6f3468a095154788e69ed719ee418416c1e338ac2348ccb3531bb97a0ed6ed9d602060018060a01b038454169361102660058201958654907f00000000000000000000000000000000000000000000000000000000000000006121de565b5493546040519081526001600160a01b0390941693a360015f51602061225d5f395f51905f5255005b60405162461bcd60e51b815260206004820152601960248201527f4368616c6c656e676520616c72656164792073746172746564000000000000006044820152606490fd5b60405162461bcd60e51b815260206004820152601b60248201527f4368616c6c656e676520616c72656164792077697468647261776e00000000006044820152606490fd5b60405162461bcd60e51b815260206004820152601a60248201527f4368616c6c656e676520616c72656164792063616e63656c65640000000000006044820152606490fd5b34610149575f366003190112610149576002546040516001600160a01b039091168152602090f35b346101495760e0366003190112610149576004356001600160401b0381116101495736602382011215610149576001600160401b0381600401351161014957366024826004013583010111610149576024356001600160401b038116810361014957604435916001600160401b0383168303610149576064359263ffffffff84168403610149576084359363ffffffff85168503610149576111e66121a6565b6111ee61223f565b826004013515611a3457426001600160401b03851611156119ef576001600160401b038216156119aa5763ffffffff8116156119655763ffffffff8516156119275760a435156118e25760c4351561189d5760c43560a4351061184957335f52600760205260405f2054806117db575b5061127160a43563ffffffff8316611f14565b9182156117a4577f000000000000000000000000000000000000000000000000000000000000000094604051956323b872dd60e01b5f5233600452306024528460445260205f60648180855af160015f5114811615611785575b876040525f606052156117655750600354955f19871461175157600187016003556101c081018181106001600160401b0382111761173d576040523381526040516113246020601f19601f8a6004013501160182611ef3565b60048701358082526024880160208301375f6020886004013583010152602082019081526001600160401b03831660408301526001600160401b038416606083015263ffffffff8516608083015263ffffffff891660a083015260a43560c083015260c43560e0830152856101008301525f6101208301525f6101408301525f6101608301525f61018083015260016101a0830152875f52600560205260405f209060018060a01b038351166bffffffffffffffffffffffff60a01b835416178255518051906001600160401b03821161173d576114056001840154611ebb565b601f81116116f5575b509288959260209b95928b98958d90601f831160011461162e579463ffffffff97946101a060076001600160401b03967f8b67e067d94e9b933889a58fdbdfea24ed34c5396a167c58ee667d4243c968c49e9f9c9a968089978e9c5f92611623575b50508160011b915f199060031b1c19161760018201555b600281018660408601511681546fffffffffffffffff0000000000000000606088015160401b168d60801b608089015160801b16918e60a01b60a08a015160a01b16938f60a01b19916bffffffffffffffffffffffff60a01b161716171717905560c0840151600382015560e08401516004820155610100840151600582015561012084015160068201550191888061014083015116168919845416178355610160810151151564ff0000000084549160201b169064ff000000001916178355610180810151151565ff000000000084549160281b169065ff000000000019161783550151151566ff00000000000082549160301b169066ff0000000000001916179055335f5260078f528b60405f20555f6101206040519b6101008d528c610100826004013591015280600401358d8360248401910137600401358c010152168d89015216604087015216606085015216608083015260a43560a083015260c43560c083015260e0820152610120813395601f8019916004013501168101030190a360015f51602061225d5f395f51905f5255604051908152f35b015190505f80611470565b906001849c99989c015f52805f20915f5b601f19851681106116c45750946101a060076001600160401b03967f8b67e067d94e9b933889a58fdbdfea24ed34c5396a167c58ee667d4243c968c49e9f9887899763ffffffff9e9d99978f9d9893600194601f198116106116ac575b505050811b016001820155611487565b01515f1960f88460031b161c191690555f808061169c565b939597999c9a50918f919496989b50600182918685015181550194019201918d9a979593918d9a9c9997959361163f565b600184015f5260205f20601f840160051c81019160208510611733575b601f0160051c01905b818110611728575061140e565b5f815560010161171b565b9091508190611712565b634e487b7160e01b5f52604160045260245ffd5b634e487b7160e01b5f52601160045260245ffd5b635274afe760e01b5f9081526001600160a01b0391909116600452602490fd5b600181151661179b57813b15153d1516166112cb565b873d5f823e3d90fd5b60405162461bcd60e51b815260206004820152600f60248201526e125b9d985b1a590819195c1bdcda5d608a1b6044820152606490fd5b5f52600560205260ff600760405f20015460301c166117fa578561125e565b60405162461bcd60e51b815260206004820152602160248201527f5573657220616c72656164792068617320616374697665206368616c6c656e676044820152606560f81b6064820152608490fd5b60405162461bcd60e51b815260206004820152602660248201527f4d6973732070656e616c7479206d757374206265203e3d206661696c65642070604482015265656e616c747960d01b6064820152608490fd5b60405162461bcd60e51b815260206004820152601760248201527f50656e616c74794e6f4f6b206d757374206265203e20300000000000000000006044820152606490fd5b60405162461bcd60e51b815260206004820152601f60248201527f50656e616c74794e6f5375626d697373696f6e206d757374206265203e2030006044820152606490fd5b60405162461bcd60e51b815260206004820152601660248201527504d696e20726174696e67206d757374206265203e20360541b6044820152606490fd5b60405162461bcd60e51b815260206004820152601960248201527f546f74616c20706572696f6473206d757374206265203e2030000000000000006044820152606490fd5b60405162461bcd60e51b815260206004820152601b60248201527f506572696f64206475726174696f6e206d757374206265203e203000000000006044820152606490fd5b60405162461bcd60e51b815260206004820152601b60248201527f5374617274206d75737420626520696e207468652066757475726500000000006044820152606490fd5b60405162461bcd60e51b815260206004820152600f60248201526e48616e646c6520697320656d70747960881b6044820152606490fd5b34610149575f36600319011261014957602060ff5f5460a01c166040519015158152f35b34610149575f36600319011261014957611aa7612180565b5f5460ff8160a01c1615611aec5760ff60a01b19165f556040513381527f5db9ee0a495bf2e6ff9c91a7834c1ba4fdd244a5e8aa4e537bd38aeae4b073aa90602090a1005b638dfc202b60e01b5f5260045ffd5b34610149575f366003190112610149576020600454604051908152f35b34610149576020366003190112610149576004355f81815260056020526040902054611b4e906001600160a01b03161515611e79565b5f52600560205260405f2060018060a01b0381541690600181019160028201549260038301549260048101549060058101546007600683015492015492604051965f98865496611b9d88611ebb565b90818b5260208b01986001811690815f14611ccb5750600114611c8d575b50509063ffffffff60ff9695949392611bda8b6101e09c9d038d611ef3565b6040519b8c9a8b526101c060208c0152518099816101c08d01528c8c015e5f8b8a8c0101526001600160401b03811660408b01526001600160401b038160401c1660608b0152818160801c1660808b015260a01c1660a089015260c088015260e087015261010086015261012085015263ffffffff8116610140850152818160201c161515610160850152818160281c16151561018085015260301c1615156101a0830152601f80199101168101030190f35b909a505f5260205f205f905b8b8210611cb457508901602001995063ffffffff60ff611bbb565b6001818c6020858195549201015201910190611c99565b60ff19168a525050151560051b8901602001995063ffffffff60ff611bbb565b3461014957602036600319011261014957600435611d07612180565b611d0f6121a6565b8015611df557600454808211611db05781611d2991611e6c565b600455600254611d649082906001600160a01b03167f00000000000000000000000000000000000000000000000000000000000000006121de565b6002546040519182526001600160a01b0316907f41fdd680478135993bc53fb2ffaf9560951b57ef62ff6badd02b61e018b4f17f90602090a260015f51602061225d5f395f51905f5255005b60405162461bcd60e51b815260206004820152601f60248201527f416d6f756e7420657863656564732074726561737572792062616c616e6365006044820152606490fd5b60405162461bcd60e51b81526020600482015260126024820152710416d6f756e74206d757374206265203e20360741b6044820152606490fd5b606090600319011261014957600435906024359060443590565b6040906003190112610149576004359060243590565b9060048210156104d95752565b9190820391821161175157565b15611e8057565b60405162461bcd60e51b815260206004820152601360248201527210da185b1b195b99d9481b9bdd08199bdd5b99606a1b6044820152606490fd5b90600182811c92168015611ee9575b6020831014611ed557565b634e487b7160e01b5f52602260045260245ffd5b91607f1691611eca565b90601f801991011681019081106001600160401b0382111761173d57604052565b8181029291811591840414171561175157565b15611f2e57565b60405162461bcd60e51b81526020600482015260126024820152712737ba1031b430b63632b733b2903ab9b2b960711b6044820152606490fd5b15611f6f57565b60405162461bcd60e51b815260206004820152601760248201527f4368616c6c656e6765206973206e6f74206163746976650000000000000000006044820152606490fd5b15611fbb57565b60405162461bcd60e51b815260206004820152600b60248201526a4f6e6c79206f7261636c6560a81b6044820152606490fd5b15611ff557565b60405162461bcd60e51b815260206004820152601260248201527110da185b1b195b99d94818d85b98d95b195960721b6044820152606490fd5b1561203657565b60405162461bcd60e51b815260206004820152601360248201527221b430b63632b733b2903bb4ba34323930bbb760691b6044820152606490fd5b1561207857565b60405162461bcd60e51b8152602060048201526014602482015273092dcecc2d8d2c840e0cae4d2dec840d2dcc8caf60631b6044820152606490fd5b156120bb57565b60405162461bcd60e51b815260206004820152601760248201527f506572696f6420616c7265616479207265736f6c7665640000000000000000006044820152606490fd5b1561210757565b60405162461bcd60e51b815260206004820152601460248201527314195c9a5bd9081b9bdd08195b991959081e595d60621b6044820152606490fd5b9060048110156104d95760ff80198354169116179055565b63ffffffff60019116019063ffffffff821161175157565b9190820180921161175157565b5f546001600160a01b0316330361219357565b63118cdaa760e01b5f523360045260245ffd5b60025f51602061225d5f395f51905f5254146121cf5760025f51602061225d5f395f51905f5255565b633ee5aeb560e01b5f5260045ffd5b916040519163a9059cbb60e01b5f5260018060a01b031660045260245260205f60448180865af19060015f511482161561221e575b604052156117655750565b90600181151661223657823b15153d15161690612213565b503d5f823e3d90fd5b60ff5f5460a01c1661224d57565b63d93c066560e01b5f5260045ffdfe9b779b17422d0df92223018b32b4d1fa46e071723d6817e2486d003becc55f00a2646970667358221220d2a302e05acfa0ed9e9bdad4880d153071f8df24413c04217a55fef80f02fe7a64736f6c634300081c0033","opcodes":"PUSH1 0xA0 CALLVALUE PUSH2 0x23F JUMPI PUSH1 0x1F PUSH2 0x251E CODESIZE DUP2 SWAP1 SUB SWAP2 DUP3 ADD PUSH1 0x1F NOT AND DUP4 ADD SWAP2 PUSH1 0x1 PUSH1 0x1 PUSH1 0x40 SHL SUB DUP4 GT DUP5 DUP5 LT OR PUSH2 0x243 JUMPI DUP1 DUP5 SWAP3 PUSH1 0x60 SWAP5 PUSH1 0x40 MSTORE DUP4 CODECOPY DUP2 ADD SUB SLT PUSH2 0x23F JUMPI PUSH2 0x47 DUP2 PUSH2 0x257 JUMP JUMPDEST SWAP1 PUSH2 0x60 PUSH1 0x40 PUSH2 0x59 PUSH1 0x20 DUP5 ADD PUSH2 0x257 JUMP JUMPDEST SWAP3 ADD PUSH2 0x257 JUMP JUMPDEST SWAP1 CALLER ISZERO PUSH2 0x22C JUMPI PUSH0 DUP1 SLOAD CALLER PUSH1 0x1 PUSH1 0x1 PUSH1 0xA0 SHL SUB NOT DUP3 AND DUP2 OR DUP4 SSTORE PUSH1 0x40 MLOAD SWAP6 SWAP3 SWAP1 SWAP2 PUSH1 0x1 PUSH1 0x1 PUSH1 0xA0 SHL SUB AND SWAP1 PUSH32 0x8BE0079C531659141344CD1FD0A4F28419497F9722A3DAAFE3B4186F6B6457E0 SWAP1 DUP1 LOG3 PUSH1 0x1 PUSH32 0x9B779B17422D0DF92223018B32B4D1FA46E071723D6817E2486D003BECC55F00 DUP2 SWAP1 SSTORE PUSH1 0x3 SSTORE PUSH1 0x1 PUSH1 0x1 PUSH1 0xA0 SHL SUB AND SWAP3 DUP4 ISZERO PUSH2 0x1EA JUMPI POP PUSH1 0x1 PUSH1 0x1 PUSH1 0xA0 SHL SUB AND SWAP1 DUP2 ISZERO PUSH2 0x1A5 JUMPI PUSH1 0x1 PUSH1 0x1 PUSH1 0xA0 SHL SUB AND SWAP2 DUP3 ISZERO PUSH2 0x160 JUMPI PUSH1 0x80 MSTORE PUSH1 0x1 DUP1 PUSH1 0xA0 SHL SUB NOT PUSH1 0x1 SLOAD AND OR PUSH1 0x1 SSTORE PUSH1 0x1 DUP1 PUSH1 0xA0 SHL SUB NOT PUSH1 0x2 SLOAD AND OR PUSH1 0x2 SSTORE PUSH1 0x40 MLOAD PUSH2 0x22B2 SWAP1 DUP2 PUSH2 0x26C DUP3 CODECOPY PUSH1 0x80 MLOAD DUP2 DUP2 DUP2 PUSH2 0x162 ADD MSTORE DUP2 DUP2 PUSH2 0x9EE ADD MSTORE DUP2 DUP2 PUSH2 0x1002 ADD MSTORE DUP2 DUP2 PUSH2 0x127A ADD MSTORE PUSH2 0x1D40 ADD MSTORE RETURN JUMPDEST PUSH1 0x40 MLOAD PUSH3 0x461BCD PUSH1 0xE5 SHL DUP2 MSTORE PUSH1 0x20 PUSH1 0x4 DUP3 ADD MSTORE PUSH1 0x18 PUSH1 0x24 DUP3 ADD MSTORE PUSH32 0x54726561737572792061646472657373206973207A65726F0000000000000000 PUSH1 0x44 DUP3 ADD MSTORE PUSH1 0x64 SWAP1 REVERT JUMPDEST PUSH1 0x40 MLOAD PUSH3 0x461BCD PUSH1 0xE5 SHL DUP2 MSTORE PUSH1 0x20 PUSH1 0x4 DUP3 ADD MSTORE PUSH1 0x16 PUSH1 0x24 DUP3 ADD MSTORE PUSH32 0x4F7261636C652061646472657373206973207A65726F00000000000000000000 PUSH1 0x44 DUP3 ADD MSTORE PUSH1 0x64 SWAP1 REVERT JUMPDEST PUSH3 0x461BCD PUSH1 0xE5 SHL DUP2 MSTORE PUSH1 0x20 PUSH1 0x4 DUP3 ADD MSTORE PUSH1 0x15 PUSH1 0x24 DUP3 ADD MSTORE PUSH32 0x546F6B656E2061646472657373206973207A65726F0000000000000000000000 PUSH1 0x44 DUP3 ADD MSTORE PUSH1 0x64 SWAP1 REVERT JUMPDEST PUSH4 0x1E4FBDF7 PUSH1 0xE0 SHL PUSH0 MSTORE PUSH0 PUSH1 0x4 MSTORE PUSH1 0x24 PUSH0 REVERT JUMPDEST PUSH0 DUP1 REVERT JUMPDEST PUSH4 0x4E487B71 PUSH1 0xE0 SHL PUSH0 MSTORE PUSH1 0x41 PUSH1 0x4 MSTORE PUSH1 0x24 PUSH0 REVERT JUMPDEST MLOAD SWAP1 PUSH1 0x1 PUSH1 0x1 PUSH1 0xA0 SHL SUB DUP3 AND DUP3 SUB PUSH2 0x23F JUMPI JUMP INVALID PUSH1 0x80 PUSH1 0x40 MSTORE PUSH1 0x4 CALLDATASIZE LT ISZERO PUSH2 0x11 JUMPI PUSH0 DUP1 REVERT JUMPDEST PUSH0 CALLDATALOAD PUSH1 0xE0 SHR DUP1 PUSH4 0x11F1FC99 EQ PUSH2 0x1CEB JUMPI DUP1 PUSH4 0x1BDD4B74 EQ PUSH2 0x1B18 JUMPI DUP1 PUSH4 0x313DAB20 EQ PUSH2 0x1AFB JUMPI DUP1 PUSH4 0x3F4BA83A EQ PUSH2 0x1A8F JUMPI DUP1 PUSH4 0x5C975ABB EQ PUSH2 0x1A6B JUMPI DUP1 PUSH4 0x5E5DF6D1 EQ PUSH2 0x1146 JUMPI DUP1 PUSH4 0x61D027B3 EQ PUSH2 0x111E JUMPI DUP1 PUSH4 0x6FBC4E57 EQ PUSH2 0xEF1 JUMPI DUP1 PUSH4 0x715018A6 EQ PUSH2 0xE9A JUMPI DUP1 PUSH4 0x7753DDCF EQ PUSH2 0xBDE JUMPI DUP1 PUSH4 0x7ADBF973 EQ PUSH2 0xB29 JUMPI DUP1 PUSH4 0x7DC0D1D0 EQ PUSH2 0xB01 JUMPI DUP1 PUSH4 0x8456CB59 EQ PUSH2 0xAA1 JUMPI DUP1 PUSH4 0x86FC0541 EQ PUSH2 0x89A JUMPI DUP1 PUSH4 0x8DA5CB5B EQ PUSH2 0x873 JUMPI DUP1 PUSH4 0x953D26E0 EQ PUSH2 0x6B5 JUMPI DUP1 PUSH4 0xB28476FA EQ PUSH2 0x643 JUMPI DUP1 PUSH4 0xB6F7D2B4 EQ PUSH2 0x5C2 JUMPI DUP1 PUSH4 0xC2C94A39 EQ PUSH2 0x529 JUMPI DUP1 PUSH4 0xD7376ED0 EQ PUSH2 0x4ED JUMPI DUP1 PUSH4 0xE8903954 EQ PUSH2 0x2D6 JUMPI DUP1 PUSH4 0xF0F44260 EQ PUSH2 0x21A JUMPI DUP1 PUSH4 0xF2FDE38B EQ PUSH2 0x191 JUMPI DUP1 PUSH4 0xFC0C546A EQ PUSH2 0x14D JUMPI PUSH4 0xFC67AA50 EQ PUSH2 0x12C JUMPI PUSH0 DUP1 REVERT JUMPDEST CALLVALUE PUSH2 0x149 JUMPI PUSH0 CALLDATASIZE PUSH1 0x3 NOT ADD SLT PUSH2 0x149 JUMPI PUSH1 0x20 PUSH1 0x3 SLOAD PUSH1 0x40 MLOAD SWAP1 DUP2 MSTORE RETURN JUMPDEST PUSH0 DUP1 REVERT JUMPDEST CALLVALUE PUSH2 0x149 JUMPI PUSH0 CALLDATASIZE PUSH1 0x3 NOT ADD SLT PUSH2 0x149 JUMPI PUSH1 0x40 MLOAD PUSH32 0x0 PUSH1 0x1 PUSH1 0x1 PUSH1 0xA0 SHL SUB AND DUP2 MSTORE PUSH1 0x20 SWAP1 RETURN JUMPDEST CALLVALUE PUSH2 0x149 JUMPI PUSH1 0x20 CALLDATASIZE PUSH1 0x3 NOT ADD SLT PUSH2 0x149 JUMPI PUSH1 0x4 CALLDATALOAD PUSH1 0x1 PUSH1 0x1 PUSH1 0xA0 SHL SUB DUP2 AND SWAP1 DUP2 SWAP1 SUB PUSH2 0x149 JUMPI PUSH2 0x1BF PUSH2 0x2180 JUMP JUMPDEST DUP1 ISZERO PUSH2 0x207 JUMPI PUSH0 DUP1 SLOAD PUSH1 0x1 PUSH1 0x1 PUSH1 0xA0 SHL SUB NOT DUP2 AND DUP4 OR DUP3 SSTORE PUSH1 0x1 PUSH1 0x1 PUSH1 0xA0 SHL SUB AND SWAP1 PUSH32 0x8BE0079C531659141344CD1FD0A4F28419497F9722A3DAAFE3B4186F6B6457E0 SWAP1 DUP1 LOG3 STOP JUMPDEST PUSH4 0x1E4FBDF7 PUSH1 0xE0 SHL PUSH0 MSTORE PUSH0 PUSH1 0x4 MSTORE PUSH1 0x24 PUSH0 REVERT JUMPDEST CALLVALUE PUSH2 0x149 JUMPI PUSH1 0x20 CALLDATASIZE PUSH1 0x3 NOT ADD SLT PUSH2 0x149 JUMPI PUSH1 0x4 CALLDATALOAD PUSH1 0x1 PUSH1 0x1 PUSH1 0xA0 SHL SUB DUP2 AND SWAP1 DUP2 SWAP1 SUB PUSH2 0x149 JUMPI PUSH2 0x248 PUSH2 0x2180 JUMP JUMPDEST DUP1 ISZERO PUSH2 0x291 JUMPI PUSH1 0x2 DUP1 SLOAD PUSH1 0x1 PUSH1 0x1 PUSH1 0xA0 SHL SUB NOT DUP2 AND DUP4 OR SWAP1 SWAP2 SSTORE PUSH1 0x1 PUSH1 0x1 PUSH1 0xA0 SHL SUB AND PUSH32 0x4AB5BE82436D353E61CA18726E984E561F5C1CC7C6D38B29D2553C790434705A PUSH0 DUP1 LOG3 STOP JUMPDEST PUSH1 0x40 MLOAD PUSH3 0x461BCD PUSH1 0xE5 SHL DUP2 MSTORE PUSH1 0x20 PUSH1 0x4 DUP3 ADD MSTORE PUSH1 0x18 PUSH1 0x24 DUP3 ADD MSTORE PUSH32 0x54726561737572792061646472657373206973207A65726F0000000000000000 PUSH1 0x44 DUP3 ADD MSTORE PUSH1 0x64 SWAP1 REVERT JUMPDEST CALLVALUE PUSH2 0x149 JUMPI PUSH2 0x2E4 CALLDATASIZE PUSH2 0x1E2F JUMP JUMPDEST PUSH2 0x2EF SWAP3 SWAP2 SWAP3 PUSH2 0x223F JUMP JUMPDEST PUSH2 0x304 PUSH1 0x1 DUP1 PUSH1 0xA0 SHL SUB PUSH1 0x1 SLOAD AND CALLER EQ PUSH2 0x1FB4 JUMP JUMPDEST PUSH0 DUP3 DUP2 MSTORE PUSH1 0x5 PUSH1 0x20 MSTORE PUSH1 0x40 SWAP1 KECCAK256 SLOAD PUSH2 0x326 SWAP1 PUSH1 0x1 PUSH1 0x1 PUSH1 0xA0 SHL SUB AND ISZERO ISZERO PUSH2 0x1E79 JUMP JUMPDEST PUSH0 DUP3 DUP2 MSTORE PUSH1 0x5 PUSH1 0x20 MSTORE PUSH1 0x40 SWAP1 KECCAK256 PUSH1 0x4 DUP2 ADD SLOAD PUSH1 0x7 DUP3 ADD DUP1 SLOAD SWAP2 SWAP3 SWAP1 SWAP2 PUSH2 0x371 SWAP1 PUSH1 0xFF SWAP1 PUSH2 0x358 PUSH1 0x30 DUP3 SWAP1 SHR DUP4 AND PUSH2 0x1F68 JUMP JUMPDEST PUSH2 0x367 DUP3 DUP3 PUSH1 0x28 SHR AND ISZERO PUSH2 0x1FEE JUMP JUMPDEST PUSH1 0x20 SHR AND ISZERO PUSH2 0x202F JUMP JUMPDEST PUSH2 0x389 PUSH4 0xFFFFFFFF PUSH1 0x2 DUP4 ADD SLOAD PUSH1 0x80 SHR AND DUP8 LT PUSH2 0x2071 JUMP JUMPDEST DUP5 PUSH0 MSTORE PUSH1 0x6 PUSH1 0x20 MSTORE PUSH1 0x40 PUSH0 KECCAK256 DUP7 PUSH0 MSTORE PUSH1 0x20 MSTORE PUSH1 0x40 PUSH0 KECCAK256 SWAP1 PUSH1 0xFF DUP3 SLOAD AND SWAP2 PUSH1 0x4 DUP4 LT ISZERO PUSH2 0x4D9 JUMPI PUSH1 0x6 DUP7 SWAP2 PUSH2 0x3BE DUP3 SWAP6 ISZERO PUSH2 0x20B4 JUMP JUMPDEST PUSH0 DUP10 DUP2 MSTORE PUSH1 0x5 PUSH1 0x20 MSTORE PUSH1 0x40 SWAP1 KECCAK256 SLOAD PUSH2 0x3E0 SWAP1 PUSH1 0x1 PUSH1 0x1 PUSH1 0xA0 SHL SUB AND ISZERO ISZERO PUSH2 0x1E79 JUMP JUMPDEST DUP9 PUSH0 MSTORE PUSH1 0x5 PUSH1 0x20 MSTORE PUSH2 0x43A PUSH2 0x432 DUP12 PUSH2 0x42D PUSH1 0x2 PUSH1 0x40 PUSH0 KECCAK256 ADD SLOAD PUSH2 0x40E PUSH4 0xFFFFFFFF DUP3 PUSH1 0x80 SHR AND DUP5 LT PUSH2 0x2071 JUMP JUMPDEST PUSH1 0x1 PUSH1 0x1 PUSH1 0x40 SHL SUB PUSH2 0x426 DUP2 DUP4 PUSH1 0x40 SHR AND DUP1 SWAP6 PUSH2 0x1F14 JUMP JUMPDEST SWAP2 AND PUSH2 0x2173 JUMP JUMPDEST PUSH2 0x2173 JUMP JUMPDEST TIMESTAMP LT ISZERO PUSH2 0x2100 JUMP JUMPDEST PUSH2 0x445 PUSH1 0x3 DUP3 PUSH2 0x2143 JUMP JUMPDEST TIMESTAMP PUSH1 0x1 DUP3 ADD SSTORE DUP7 PUSH1 0x2 DUP3 ADD SSTORE PUSH0 PUSH1 0x3 DUP3 ADD SSTORE PUSH0 PUSH1 0x4 DUP3 ADD SSTORE PUSH0 PUSH1 0x5 DUP3 ADD SSTORE ADD SSTORE ADD PUSH2 0x471 DUP4 DUP3 SLOAD PUSH2 0x2173 JUMP JUMPDEST SWAP1 SSTORE PUSH4 0xFFFFFFFF PUSH2 0x484 DUP2 DUP4 SLOAD AND PUSH2 0x215B JUMP JUMPDEST AND PUSH4 0xFFFFFFFF NOT DUP3 SLOAD AND OR SWAP1 SSTORE PUSH2 0x49D DUP2 PUSH1 0x4 SLOAD PUSH2 0x2173 JUMP JUMPDEST PUSH1 0x4 SSTORE PUSH1 0x40 MLOAD PUSH32 0xD388B3CEE0096E9DE51027CCEF7ADDCC2EA1426463A17D76E5222A06B13EB8E5 SWAP3 PUSH1 0x60 SWAP3 PUSH1 0x3 DUP4 MSTORE PUSH1 0x20 DUP4 ADD MSTORE PUSH1 0x40 DUP3 ADD MSTORE LOG3 STOP JUMPDEST PUSH4 0x4E487B71 PUSH1 0xE0 SHL PUSH0 MSTORE PUSH1 0x21 PUSH1 0x4 MSTORE PUSH1 0x24 PUSH0 REVERT JUMPDEST CALLVALUE PUSH2 0x149 JUMPI PUSH1 0x20 CALLDATASIZE PUSH1 0x3 NOT ADD SLT PUSH2 0x149 JUMPI PUSH1 0x4 CALLDATALOAD PUSH1 0x1 PUSH1 0x1 PUSH1 0xA0 SHL SUB DUP2 AND SWAP1 DUP2 SWAP1 SUB PUSH2 0x149 JUMPI PUSH0 MSTORE PUSH1 0x7 PUSH1 0x20 MSTORE PUSH1 0x20 PUSH1 0x40 PUSH0 KECCAK256 SLOAD PUSH1 0x40 MLOAD SWAP1 DUP2 MSTORE RETURN JUMPDEST CALLVALUE PUSH2 0x149 JUMPI PUSH2 0x537 CALLDATASIZE PUSH2 0x1E49 JUMP JUMPDEST SWAP1 DUP1 PUSH0 MSTORE PUSH1 0x5 PUSH1 0x20 MSTORE PUSH2 0x557 PUSH1 0x1 DUP1 PUSH1 0xA0 SHL SUB PUSH1 0x40 PUSH0 KECCAK256 SLOAD AND ISZERO ISZERO PUSH2 0x1E79 JUMP JUMPDEST PUSH0 MSTORE PUSH1 0x6 PUSH1 0x20 MSTORE PUSH1 0x40 PUSH0 KECCAK256 SWAP1 PUSH0 MSTORE PUSH1 0x20 MSTORE PUSH1 0xE0 PUSH1 0x40 PUSH0 KECCAK256 PUSH1 0xFF DUP2 SLOAD AND SWAP1 PUSH1 0x1 DUP2 ADD SLOAD SWAP1 PUSH1 0x2 DUP2 ADD SLOAD PUSH1 0x3 DUP3 ADD SLOAD PUSH1 0x4 DUP4 ADD SLOAD SWAP2 PUSH1 0x6 PUSH1 0x5 DUP6 ADD SLOAD SWAP5 ADD SLOAD SWAP5 PUSH2 0x5A2 PUSH1 0x40 MLOAD DUP1 SWAP9 PUSH2 0x1E5F JUMP JUMPDEST PUSH1 0x20 DUP8 ADD MSTORE PUSH1 0x40 DUP7 ADD MSTORE PUSH1 0x60 DUP6 ADD MSTORE PUSH1 0x80 DUP5 ADD MSTORE PUSH1 0xA0 DUP4 ADD MSTORE PUSH1 0xC0 DUP3 ADD MSTORE RETURN JUMPDEST CALLVALUE PUSH2 0x149 JUMPI PUSH1 0x40 PUSH2 0x5D2 CALLDATASIZE PUSH2 0x1E49 JUMP JUMPDEST SWAP1 DUP1 PUSH0 MSTORE PUSH1 0x5 PUSH1 0x20 MSTORE PUSH2 0x5F1 PUSH1 0x1 DUP1 PUSH1 0xA0 SHL SUB DUP5 PUSH0 KECCAK256 SLOAD AND ISZERO ISZERO PUSH2 0x1E79 JUMP JUMPDEST PUSH0 MSTORE PUSH1 0x5 PUSH1 0x20 MSTORE PUSH2 0x637 PUSH2 0x630 PUSH1 0x2 DUP5 PUSH0 KECCAK256 ADD SLOAD PUSH2 0x619 PUSH4 0xFFFFFFFF DUP3 PUSH1 0x80 SHR AND DUP6 LT PUSH2 0x2071 JUMP JUMPDEST PUSH1 0x1 PUSH1 0x1 PUSH1 0x40 SHL SUB PUSH2 0x426 DUP2 DUP4 DUP9 SHR AND DUP1 SWAP7 PUSH2 0x1F14 JUMP JUMPDEST SWAP2 DUP3 PUSH2 0x2173 JUMP JUMPDEST DUP3 MLOAD SWAP2 DUP3 MSTORE PUSH1 0x20 DUP3 ADD MSTORE RETURN JUMPDEST CALLVALUE PUSH2 0x149 JUMPI PUSH1 0x20 CALLDATASIZE PUSH1 0x3 NOT ADD SLT PUSH2 0x149 JUMPI PUSH1 0x4 CALLDATALOAD PUSH0 DUP2 DUP2 MSTORE PUSH1 0x5 PUSH1 0x20 MSTORE PUSH1 0x40 SWAP1 KECCAK256 SLOAD PUSH2 0x679 SWAP1 PUSH1 0x1 PUSH1 0x1 PUSH1 0xA0 SHL SUB AND ISZERO ISZERO PUSH2 0x1E79 JUMP JUMPDEST PUSH0 MSTORE PUSH1 0x5 PUSH1 0x20 MSTORE PUSH1 0x20 PUSH2 0x6AD PUSH1 0x2 PUSH1 0x40 PUSH0 KECCAK256 ADD SLOAD PUSH1 0x1 PUSH1 0x1 PUSH1 0x40 SHL SUB PUSH2 0x426 PUSH4 0xFFFFFFFF DUP4 PUSH1 0x80 SHR AND DUP3 DUP5 PUSH1 0x40 SHR AND PUSH2 0x1F14 JUMP JUMPDEST PUSH1 0x40 MLOAD SWAP1 DUP2 MSTORE RETURN JUMPDEST CALLVALUE PUSH2 0x149 JUMPI PUSH2 0x6C3 CALLDATASIZE PUSH2 0x1E2F JUMP JUMPDEST PUSH2 0x6CE SWAP3 SWAP2 SWAP3 PUSH2 0x223F JUMP JUMPDEST PUSH2 0x6E3 PUSH1 0x1 DUP1 PUSH1 0xA0 SHL SUB PUSH1 0x1 SLOAD AND CALLER EQ PUSH2 0x1FB4 JUMP JUMPDEST PUSH0 DUP3 DUP2 MSTORE PUSH1 0x5 PUSH1 0x20 MSTORE PUSH1 0x40 SWAP1 KECCAK256 SLOAD PUSH2 0x705 SWAP1 PUSH1 0x1 PUSH1 0x1 PUSH1 0xA0 SHL SUB AND ISZERO ISZERO PUSH2 0x1E79 JUMP JUMPDEST PUSH0 DUP3 DUP2 MSTORE PUSH1 0x5 PUSH1 0x20 MSTORE PUSH1 0x40 SWAP1 KECCAK256 PUSH1 0x3 DUP2 ADD SLOAD PUSH1 0x7 DUP3 ADD DUP1 SLOAD SWAP2 SWAP3 SWAP1 SWAP2 PUSH2 0x737 SWAP1 PUSH1 0xFF SWAP1 PUSH2 0x358 PUSH1 0x30 DUP3 SWAP1 SHR DUP4 AND PUSH2 0x1F68 JUMP JUMPDEST PUSH2 0x74F PUSH4 0xFFFFFFFF PUSH1 0x2 DUP4 ADD SLOAD PUSH1 0x80 SHR AND DUP8 LT PUSH2 0x2071 JUMP JUMPDEST DUP5 PUSH0 MSTORE PUSH1 0x6 PUSH1 0x20 MSTORE PUSH1 0x40 PUSH0 KECCAK256 DUP7 PUSH0 MSTORE PUSH1 0x20 MSTORE PUSH1 0x40 PUSH0 KECCAK256 SWAP1 PUSH1 0xFF DUP3 SLOAD AND SWAP2 PUSH1 0x4 DUP4 LT ISZERO PUSH2 0x4D9 JUMPI PUSH1 0x6 DUP7 SWAP2 PUSH2 0x784 DUP3 SWAP6 ISZERO PUSH2 0x20B4 JUMP JUMPDEST PUSH0 DUP10 DUP2 MSTORE PUSH1 0x5 PUSH1 0x20 MSTORE PUSH1 0x40 SWAP1 KECCAK256 SLOAD PUSH2 0x7A6 SWAP1 PUSH1 0x1 PUSH1 0x1 PUSH1 0xA0 SHL SUB AND ISZERO ISZERO PUSH2 0x1E79 JUMP JUMPDEST DUP9 PUSH0 MSTORE PUSH1 0x5 PUSH1 0x20 MSTORE PUSH2 0x7D4 PUSH2 0x432 DUP12 PUSH2 0x42D PUSH1 0x2 PUSH1 0x40 PUSH0 KECCAK256 ADD SLOAD PUSH2 0x40E PUSH4 0xFFFFFFFF DUP3 PUSH1 0x80 SHR AND DUP5 LT PUSH2 0x2071 JUMP JUMPDEST PUSH2 0x7DF PUSH1 0x2 DUP3 PUSH2 0x2143 JUMP JUMPDEST TIMESTAMP PUSH1 0x1 DUP3 ADD SSTORE DUP7 PUSH1 0x2 DUP3 ADD SSTORE PUSH0 PUSH1 0x3 DUP3 ADD SSTORE PUSH0 PUSH1 0x4 DUP3 ADD SSTORE PUSH0 PUSH1 0x5 DUP3 ADD SSTORE ADD SSTORE ADD PUSH2 0x80B DUP4 DUP3 SLOAD PUSH2 0x2173 JUMP JUMPDEST SWAP1 SSTORE PUSH4 0xFFFFFFFF PUSH2 0x81E DUP2 DUP4 SLOAD AND PUSH2 0x215B JUMP JUMPDEST AND PUSH4 0xFFFFFFFF NOT DUP3 SLOAD AND OR SWAP1 SSTORE PUSH2 0x837 DUP2 PUSH1 0x4 SLOAD PUSH2 0x2173 JUMP JUMPDEST PUSH1 0x4 SSTORE PUSH1 0x40 MLOAD PUSH32 0xD388B3CEE0096E9DE51027CCEF7ADDCC2EA1426463A17D76E5222A06B13EB8E5 SWAP3 PUSH1 0x60 SWAP3 PUSH1 0x2 DUP4 MSTORE PUSH1 0x20 DUP4 ADD MSTORE PUSH1 0x40 DUP3 ADD MSTORE LOG3 STOP JUMPDEST CALLVALUE PUSH2 0x149 JUMPI PUSH0 CALLDATASIZE PUSH1 0x3 NOT ADD SLT PUSH2 0x149 JUMPI PUSH0 SLOAD PUSH1 0x40 MLOAD PUSH1 0x1 PUSH1 0x1 PUSH1 0xA0 SHL SUB SWAP1 SWAP2 AND DUP2 MSTORE PUSH1 0x20 SWAP1 RETURN JUMPDEST CALLVALUE PUSH2 0x149 JUMPI PUSH1 0x20 CALLDATASIZE PUSH1 0x3 NOT ADD SLT PUSH2 0x149 JUMPI PUSH1 0x4 CALLDATALOAD PUSH2 0x8B6 PUSH2 0x21A6 JUMP JUMPDEST PUSH0 DUP2 DUP2 MSTORE PUSH1 0x5 PUSH1 0x20 MSTORE PUSH1 0x40 SWAP1 KECCAK256 SLOAD PUSH2 0x8D8 SWAP1 PUSH1 0x1 PUSH1 0x1 PUSH1 0xA0 SHL SUB AND ISZERO ISZERO PUSH2 0x1E79 JUMP JUMPDEST DUP1 PUSH0 MSTORE PUSH1 0x5 PUSH1 0x20 MSTORE PUSH2 0x8F7 PUSH1 0x1 DUP1 PUSH1 0xA0 SHL SUB PUSH1 0x40 PUSH0 KECCAK256 SLOAD AND CALLER EQ PUSH2 0x1F27 JUMP JUMPDEST DUP1 PUSH0 MSTORE PUSH1 0x5 PUSH1 0x20 MSTORE PUSH1 0x40 PUSH0 KECCAK256 SWAP1 PUSH1 0x7 DUP3 ADD DUP1 SLOAD PUSH2 0x919 PUSH1 0xFF DUP3 PUSH1 0x30 SHR AND PUSH2 0x1F68 JUMP JUMPDEST PUSH2 0x929 PUSH1 0xFF DUP3 PUSH1 0x28 SHR AND ISZERO PUSH2 0x1FEE JUMP JUMPDEST PUSH1 0xFF DUP2 PUSH1 0x20 SHR AND PUSH2 0xA5C JUMPI PUSH4 0xFFFFFFFF PUSH1 0x2 DUP6 ADD SLOAD PUSH1 0x80 SHR AND PUSH4 0xFFFFFFFF DUP3 AND SUB PUSH2 0xA17 JUMPI PUSH5 0x100000000 SWAP1 PUSH7 0xFF00FF00000000 NOT AND OR SWAP1 SSTORE PUSH1 0x1 DUP1 PUSH1 0xA0 SHL SUB DUP3 SLOAD AND PUSH0 MSTORE PUSH1 0x7 PUSH1 0x20 MSTORE PUSH0 PUSH1 0x40 DUP2 KECCAK256 SSTORE PUSH32 0x4381C4FF301F4803259D996FD5EF93C9573568F5F59E2F4D584D73DECC89CAEC PUSH1 0x20 PUSH2 0x9AF PUSH1 0x5 DUP6 ADD SLOAD PUSH1 0x6 DUP7 ADD SLOAD SWAP1 PUSH2 0x1E6C JUMP JUMPDEST SWAP4 DUP5 PUSH2 0x9DB JUMPI JUMPDEST SLOAD PUSH1 0x40 MLOAD SWAP5 DUP6 MSTORE PUSH1 0x1 PUSH1 0x1 PUSH1 0xA0 SHL SUB AND SWAP4 LOG3 PUSH1 0x1 PUSH0 MLOAD PUSH1 0x20 PUSH2 0x225D PUSH0 CODECOPY PUSH0 MLOAD SWAP1 PUSH0 MSTORE SSTORE STOP JUMPDEST DUP1 SLOAD PUSH2 0xA12 SWAP1 DUP7 SWAP1 PUSH1 0x1 PUSH1 0x1 PUSH1 0xA0 SHL SUB AND PUSH32 0x0 PUSH2 0x21DE JUMP JUMPDEST PUSH2 0x9B6 JUMP JUMPDEST PUSH1 0x40 MLOAD PUSH3 0x461BCD PUSH1 0xE5 SHL DUP2 MSTORE PUSH1 0x20 PUSH1 0x4 DUP3 ADD MSTORE PUSH1 0x18 PUSH1 0x24 DUP3 ADD MSTORE PUSH32 0x4E6F7420616C6C20706572696F6473207265736F6C7665640000000000000000 PUSH1 0x44 DUP3 ADD MSTORE PUSH1 0x64 SWAP1 REVERT JUMPDEST PUSH1 0x40 MLOAD PUSH3 0x461BCD PUSH1 0xE5 SHL DUP2 MSTORE PUSH1 0x20 PUSH1 0x4 DUP3 ADD MSTORE PUSH1 0x1B PUSH1 0x24 DUP3 ADD MSTORE PUSH32 0x52656D61696E696E6720616C72656164792077697468647261776E0000000000 PUSH1 0x44 DUP3 ADD MSTORE PUSH1 0x64 SWAP1 REVERT JUMPDEST CALLVALUE PUSH2 0x149 JUMPI PUSH0 CALLDATASIZE PUSH1 0x3 NOT ADD SLT PUSH2 0x149 JUMPI PUSH2 0xAB9 PUSH2 0x2180 JUMP JUMPDEST PUSH2 0xAC1 PUSH2 0x223F JUMP JUMPDEST PUSH0 DUP1 SLOAD PUSH1 0xFF PUSH1 0xA0 SHL NOT AND PUSH1 0x1 PUSH1 0xA0 SHL OR SWAP1 SSTORE PUSH1 0x40 MLOAD CALLER DUP2 MSTORE PUSH32 0x62E78CEA01BEE320CD4E420270B5EA74000D11B0C9F74754EBDBFC544B05A258 SWAP1 PUSH1 0x20 SWAP1 LOG1 STOP JUMPDEST CALLVALUE PUSH2 0x149 JUMPI PUSH0 CALLDATASIZE PUSH1 0x3 NOT ADD SLT PUSH2 0x149 JUMPI PUSH1 0x1 SLOAD PUSH1 0x40 MLOAD PUSH1 0x1 PUSH1 0x1 PUSH1 0xA0 SHL SUB SWAP1 SWAP2 AND DUP2 MSTORE PUSH1 0x20 SWAP1 RETURN JUMPDEST CALLVALUE PUSH2 0x149 JUMPI PUSH1 0x20 CALLDATASIZE PUSH1 0x3 NOT ADD SLT PUSH2 0x149 JUMPI PUSH1 0x4 CALLDATALOAD PUSH1 0x1 PUSH1 0x1 PUSH1 0xA0 SHL SUB DUP2 AND SWAP1 DUP2 SWAP1 SUB PUSH2 0x149 JUMPI PUSH2 0xB57 PUSH2 0x2180 JUMP JUMPDEST DUP1 ISZERO PUSH2 0xBA0 JUMPI PUSH1 0x1 DUP1 SLOAD PUSH1 0x1 PUSH1 0x1 PUSH1 0xA0 SHL SUB NOT DUP2 AND DUP4 OR SWAP1 SWAP2 SSTORE PUSH1 0x1 PUSH1 0x1 PUSH1 0xA0 SHL SUB AND PUSH32 0x78C3B417DADF69374A59793B829C52001247130433427049317BDE56607B1B7 PUSH0 DUP1 LOG3 STOP JUMPDEST PUSH1 0x40 MLOAD PUSH3 0x461BCD PUSH1 0xE5 SHL DUP2 MSTORE PUSH1 0x20 PUSH1 0x4 DUP3 ADD MSTORE PUSH1 0x16 PUSH1 0x24 DUP3 ADD MSTORE PUSH22 0x4F7261636C652061646472657373206973207A65726F PUSH1 0x50 SHL PUSH1 0x44 DUP3 ADD MSTORE PUSH1 0x64 SWAP1 REVERT JUMPDEST CALLVALUE PUSH2 0x149 JUMPI PUSH1 0xC0 CALLDATASIZE PUSH1 0x3 NOT ADD SLT PUSH2 0x149 JUMPI PUSH1 0x24 CALLDATALOAD PUSH1 0x4 CALLDATALOAD PUSH1 0x84 CALLDATALOAD PUSH1 0x64 CALLDATALOAD PUSH1 0x44 CALLDATALOAD PUSH1 0xA4 CALLDATALOAD PUSH2 0xC09 PUSH2 0x223F JUMP JUMPDEST PUSH2 0xC1E PUSH1 0x1 DUP1 PUSH1 0xA0 SHL SUB PUSH1 0x1 SLOAD AND CALLER EQ PUSH2 0x1FB4 JUMP JUMPDEST PUSH0 DUP6 DUP2 MSTORE PUSH1 0x5 PUSH1 0x20 MSTORE PUSH1 0x40 SWAP1 KECCAK256 SLOAD PUSH2 0xC40 SWAP1 PUSH1 0x1 PUSH1 0x1 PUSH1 0xA0 SHL SUB AND ISZERO ISZERO PUSH2 0x1E79 JUMP JUMPDEST DUP5 PUSH0 MSTORE PUSH1 0x5 PUSH1 0x20 MSTORE PUSH1 0x40 PUSH0 KECCAK256 SWAP4 PUSH4 0xFFFFFFFF PUSH1 0x2 PUSH1 0x7 DUP8 ADD SWAP7 PUSH2 0xC6E PUSH1 0xFF DUP10 SLOAD PUSH2 0x358 DUP3 DUP3 PUSH1 0x30 SHR AND PUSH2 0x1F68 JUMP JUMPDEST ADD SLOAD PUSH2 0xC80 DUP3 DUP3 PUSH1 0x80 SHR AND DUP11 LT PUSH2 0x2071 JUMP JUMPDEST PUSH1 0xA0 SHR AND DUP2 LT PUSH2 0xE5E JUMPI DUP3 ISZERO PUSH2 0xE19 JUMPI DUP6 PUSH0 MSTORE PUSH1 0x6 PUSH1 0x20 MSTORE PUSH1 0x40 PUSH0 KECCAK256 DUP8 PUSH0 MSTORE PUSH1 0x20 MSTORE PUSH1 0x40 PUSH0 KECCAK256 SWAP4 PUSH1 0xFF DUP6 SLOAD AND PUSH1 0x4 DUP2 LT ISZERO PUSH2 0x4D9 JUMPI PUSH2 0xCBF SWAP1 ISZERO PUSH2 0x20B4 JUMP JUMPDEST PUSH0 DUP8 DUP2 MSTORE PUSH1 0x5 PUSH1 0x20 MSTORE PUSH1 0x40 SWAP1 KECCAK256 SLOAD PUSH2 0xCE1 SWAP1 PUSH1 0x1 PUSH1 0x1 PUSH1 0xA0 SHL SUB AND ISZERO ISZERO PUSH2 0x1E79 JUMP JUMPDEST DUP7 PUSH0 MSTORE PUSH1 0x5 PUSH1 0x20 MSTORE DUP8 PUSH2 0xD24 PUSH2 0x630 PUSH1 0x2 PUSH1 0x40 PUSH0 KECCAK256 ADD SLOAD PUSH2 0xD0C PUSH4 0xFFFFFFFF DUP3 PUSH1 0x80 SHR AND DUP6 LT PUSH2 0x2071 JUMP JUMPDEST PUSH1 0x1 PUSH1 0x1 PUSH1 0x40 SHL SUB PUSH2 0x426 DUP2 DUP4 PUSH1 0x40 SHR AND DUP1 SWAP7 PUSH2 0x1F14 JUMP JUMPDEST SWAP1 PUSH2 0xD31 DUP3 TIMESTAMP LT ISZERO PUSH2 0x2100 JUMP JUMPDEST DUP3 LT ISZERO SWAP1 DUP2 PUSH2 0xE0F JUMPI JUMPDEST POP ISZERO PUSH2 0xDCA JUMPI PUSH32 0xF71FFB44E9FFC964DB62374983D76EAA14B53C8D33BC2F9DFD371800090CEB71 SWAP6 DUP4 PUSH1 0x6 PUSH1 0x80 SWAP8 PUSH1 0x1 PUSH1 0xFF NOT DUP3 SLOAD AND OR DUP2 SSTORE TIMESTAMP PUSH1 0x1 DUP3 ADD SSTORE PUSH0 PUSH1 0x2 DUP3 ADD SSTORE DUP8 PUSH1 0x3 DUP3 ADD SSTORE DUP5 PUSH1 0x4 DUP3 ADD SSTORE DUP6 PUSH1 0x5 DUP3 ADD SSTORE ADD SSTORE PUSH4 0xFFFFFFFF PUSH2 0xDA5 DUP2 DUP4 SLOAD AND PUSH2 0x215B JUMP JUMPDEST AND PUSH4 0xFFFFFFFF NOT DUP3 SLOAD AND OR SWAP1 SSTORE PUSH1 0x40 MLOAD SWAP4 DUP5 MSTORE PUSH1 0x20 DUP5 ADD MSTORE PUSH1 0x40 DUP4 ADD MSTORE PUSH1 0x60 DUP3 ADD MSTORE LOG3 STOP JUMPDEST PUSH1 0x40 MLOAD PUSH3 0x461BCD PUSH1 0xE5 SHL DUP2 MSTORE PUSH1 0x20 PUSH1 0x4 DUP3 ADD MSTORE PUSH1 0x19 PUSH1 0x24 DUP3 ADD MSTORE PUSH32 0x61636365707465644174206F75747369646520706572696F6400000000000000 PUSH1 0x44 DUP3 ADD MSTORE PUSH1 0x64 SWAP1 REVERT JUMPDEST SWAP1 POP DUP2 LT DUP10 PUSH2 0xD3B JUMP JUMPDEST PUSH1 0x40 MLOAD PUSH3 0x461BCD PUSH1 0xE5 SHL DUP2 MSTORE PUSH1 0x20 PUSH1 0x4 DUP3 ADD MSTORE PUSH1 0x19 PUSH1 0x24 DUP3 ADD MSTORE PUSH32 0x5375626D697373696F6E206964206D757374206265203E203000000000000000 PUSH1 0x44 DUP3 ADD MSTORE PUSH1 0x64 SWAP1 REVERT JUMPDEST PUSH1 0x40 MLOAD PUSH3 0x461BCD PUSH1 0xE5 SHL DUP2 MSTORE PUSH1 0x20 PUSH1 0x4 DUP3 ADD MSTORE PUSH1 0x14 PUSH1 0x24 DUP3 ADD MSTORE PUSH20 0x526174696E672062656C6F77206D696E696D756D PUSH1 0x60 SHL PUSH1 0x44 DUP3 ADD MSTORE PUSH1 0x64 SWAP1 REVERT JUMPDEST CALLVALUE PUSH2 0x149 JUMPI PUSH0 CALLDATASIZE PUSH1 0x3 NOT ADD SLT PUSH2 0x149 JUMPI PUSH2 0xEB2 PUSH2 0x2180 JUMP JUMPDEST PUSH0 DUP1 SLOAD PUSH1 0x1 PUSH1 0x1 PUSH1 0xA0 SHL SUB NOT DUP2 AND DUP3 SSTORE PUSH1 0x1 PUSH1 0x1 PUSH1 0xA0 SHL SUB AND PUSH32 0x8BE0079C531659141344CD1FD0A4F28419497F9722A3DAAFE3B4186F6B6457E0 DUP3 DUP1 LOG3 STOP JUMPDEST CALLVALUE PUSH2 0x149 JUMPI PUSH1 0x20 CALLDATASIZE PUSH1 0x3 NOT ADD SLT PUSH2 0x149 JUMPI PUSH1 0x4 CALLDATALOAD PUSH2 0xF0D PUSH2 0x21A6 JUMP JUMPDEST PUSH0 DUP2 DUP2 MSTORE PUSH1 0x5 PUSH1 0x20 MSTORE PUSH1 0x40 SWAP1 KECCAK256 SLOAD PUSH2 0xF2F SWAP1 PUSH1 0x1 PUSH1 0x1 PUSH1 0xA0 SHL SUB AND ISZERO ISZERO PUSH2 0x1E79 JUMP JUMPDEST DUP1 PUSH0 MSTORE PUSH1 0x5 PUSH1 0x20 MSTORE PUSH2 0xF4E PUSH1 0x1 DUP1 PUSH1 0xA0 SHL SUB PUSH1 0x40 PUSH0 KECCAK256 SLOAD AND CALLER EQ PUSH2 0x1F27 JUMP JUMPDEST DUP1 PUSH0 MSTORE PUSH1 0x5 PUSH1 0x20 MSTORE PUSH1 0x40 PUSH0 KECCAK256 SWAP1 PUSH1 0x7 DUP3 ADD DUP1 SLOAD PUSH2 0xF70 PUSH1 0xFF DUP3 PUSH1 0x30 SHR AND PUSH2 0x1F68 JUMP JUMPDEST PUSH1 0xFF DUP2 PUSH1 0x28 SHR AND PUSH2 0x10D9 JUMPI PUSH1 0xFF DUP2 PUSH1 0x20 SHR AND PUSH2 0x1094 JUMPI PUSH1 0x1 PUSH1 0x1 PUSH1 0x40 SHL SUB PUSH1 0x2 DUP6 ADD SLOAD AND TIMESTAMP LT ISZERO PUSH2 0x104F JUMPI PUSH6 0x10000000000 SWAP1 PUSH7 0xFFFF0000000000 NOT AND OR SWAP1 SSTORE PUSH1 0x1 DUP1 PUSH1 0xA0 SHL SUB DUP3 SLOAD AND PUSH0 MSTORE PUSH1 0x7 PUSH1 0x20 MSTORE PUSH0 PUSH1 0x40 DUP2 KECCAK256 SSTORE PUSH32 0x6F3468A095154788E69ED719EE418416C1E338AC2348CCB3531BB97A0ED6ED9D PUSH1 0x20 PUSH1 0x1 DUP1 PUSH1 0xA0 SHL SUB DUP5 SLOAD AND SWAP4 PUSH2 0x1026 PUSH1 0x5 DUP3 ADD SWAP6 DUP7 SLOAD SWAP1 PUSH32 0x0 PUSH2 0x21DE JUMP JUMPDEST SLOAD SWAP4 SLOAD PUSH1 0x40 MLOAD SWAP1 DUP2 MSTORE PUSH1 0x1 PUSH1 0x1 PUSH1 0xA0 SHL SUB SWAP1 SWAP5 AND SWAP4 LOG3 PUSH1 0x1 PUSH0 MLOAD PUSH1 0x20 PUSH2 0x225D PUSH0 CODECOPY PUSH0 MLOAD SWAP1 PUSH0 MSTORE SSTORE STOP JUMPDEST PUSH1 0x40 MLOAD PUSH3 0x461BCD PUSH1 0xE5 SHL DUP2 MSTORE PUSH1 0x20 PUSH1 0x4 DUP3 ADD MSTORE PUSH1 0x19 PUSH1 0x24 DUP3 ADD MSTORE PUSH32 0x4368616C6C656E676520616C7265616479207374617274656400000000000000 PUSH1 0x44 DUP3 ADD MSTORE PUSH1 0x64 SWAP1 REVERT JUMPDEST PUSH1 0x40 MLOAD PUSH3 0x461BCD PUSH1 0xE5 SHL DUP2 MSTORE PUSH1 0x20 PUSH1 0x4 DUP3 ADD MSTORE PUSH1 0x1B PUSH1 0x24 DUP3 ADD MSTORE PUSH32 0x4368616C6C656E676520616C72656164792077697468647261776E0000000000 PUSH1 0x44 DUP3 ADD MSTORE PUSH1 0x64 SWAP1 REVERT JUMPDEST PUSH1 0x40 MLOAD PUSH3 0x461BCD PUSH1 0xE5 SHL DUP2 MSTORE PUSH1 0x20 PUSH1 0x4 DUP3 ADD MSTORE PUSH1 0x1A PUSH1 0x24 DUP3 ADD MSTORE PUSH32 0x4368616C6C656E676520616C72656164792063616E63656C6564000000000000 PUSH1 0x44 DUP3 ADD MSTORE PUSH1 0x64 SWAP1 REVERT JUMPDEST CALLVALUE PUSH2 0x149 JUMPI PUSH0 CALLDATASIZE PUSH1 0x3 NOT ADD SLT PUSH2 0x149 JUMPI PUSH1 0x2 SLOAD PUSH1 0x40 MLOAD PUSH1 0x1 PUSH1 0x1 PUSH1 0xA0 SHL SUB SWAP1 SWAP2 AND DUP2 MSTORE PUSH1 0x20 SWAP1 RETURN JUMPDEST CALLVALUE PUSH2 0x149 JUMPI PUSH1 0xE0 CALLDATASIZE PUSH1 0x3 NOT ADD SLT PUSH2 0x149 JUMPI PUSH1 0x4 CALLDATALOAD PUSH1 0x1 PUSH1 0x1 PUSH1 0x40 SHL SUB DUP2 GT PUSH2 0x149 JUMPI CALLDATASIZE PUSH1 0x23 DUP3 ADD SLT ISZERO PUSH2 0x149 JUMPI PUSH1 0x1 PUSH1 0x1 PUSH1 0x40 SHL SUB DUP2 PUSH1 0x4 ADD CALLDATALOAD GT PUSH2 0x149 JUMPI CALLDATASIZE PUSH1 0x24 DUP3 PUSH1 0x4 ADD CALLDATALOAD DUP4 ADD ADD GT PUSH2 0x149 JUMPI PUSH1 0x24 CALLDATALOAD PUSH1 0x1 PUSH1 0x1 PUSH1 0x40 SHL SUB DUP2 AND DUP2 SUB PUSH2 0x149 JUMPI PUSH1 0x44 CALLDATALOAD SWAP2 PUSH1 0x1 PUSH1 0x1 PUSH1 0x40 SHL SUB DUP4 AND DUP4 SUB PUSH2 0x149 JUMPI PUSH1 0x64 CALLDATALOAD SWAP3 PUSH4 0xFFFFFFFF DUP5 AND DUP5 SUB PUSH2 0x149 JUMPI PUSH1 0x84 CALLDATALOAD SWAP4 PUSH4 0xFFFFFFFF DUP6 AND DUP6 SUB PUSH2 0x149 JUMPI PUSH2 0x11E6 PUSH2 0x21A6 JUMP JUMPDEST PUSH2 0x11EE PUSH2 0x223F JUMP JUMPDEST DUP3 PUSH1 0x4 ADD CALLDATALOAD ISZERO PUSH2 0x1A34 JUMPI TIMESTAMP PUSH1 0x1 PUSH1 0x1 PUSH1 0x40 SHL SUB DUP6 AND GT ISZERO PUSH2 0x19EF JUMPI PUSH1 0x1 PUSH1 0x1 PUSH1 0x40 SHL SUB DUP3 AND ISZERO PUSH2 0x19AA JUMPI PUSH4 0xFFFFFFFF DUP2 AND ISZERO PUSH2 0x1965 JUMPI PUSH4 0xFFFFFFFF DUP6 AND ISZERO PUSH2 0x1927 JUMPI PUSH1 0xA4 CALLDATALOAD ISZERO PUSH2 0x18E2 JUMPI PUSH1 0xC4 CALLDATALOAD ISZERO PUSH2 0x189D JUMPI PUSH1 0xC4 CALLDATALOAD PUSH1 0xA4 CALLDATALOAD LT PUSH2 0x1849 JUMPI CALLER PUSH0 MSTORE PUSH1 0x7 PUSH1 0x20 MSTORE PUSH1 0x40 PUSH0 KECCAK256 SLOAD DUP1 PUSH2 0x17DB JUMPI JUMPDEST POP PUSH2 0x1271 PUSH1 0xA4 CALLDATALOAD PUSH4 0xFFFFFFFF DUP4 AND PUSH2 0x1F14 JUMP JUMPDEST SWAP2 DUP3 ISZERO PUSH2 0x17A4 JUMPI PUSH32 0x0 SWAP5 PUSH1 0x40 MLOAD SWAP6 PUSH4 0x23B872DD PUSH1 0xE0 SHL PUSH0 MSTORE CALLER PUSH1 0x4 MSTORE ADDRESS PUSH1 0x24 MSTORE DUP5 PUSH1 0x44 MSTORE PUSH1 0x20 PUSH0 PUSH1 0x64 DUP2 DUP1 DUP6 GAS CALL PUSH1 0x1 PUSH0 MLOAD EQ DUP2 AND ISZERO PUSH2 0x1785 JUMPI JUMPDEST DUP8 PUSH1 0x40 MSTORE PUSH0 PUSH1 0x60 MSTORE ISZERO PUSH2 0x1765 JUMPI POP PUSH1 0x3 SLOAD SWAP6 PUSH0 NOT DUP8 EQ PUSH2 0x1751 JUMPI PUSH1 0x1 DUP8 ADD PUSH1 0x3 SSTORE PUSH2 0x1C0 DUP2 ADD DUP2 DUP2 LT PUSH1 0x1 PUSH1 0x1 PUSH1 0x40 SHL SUB DUP3 GT OR PUSH2 0x173D JUMPI PUSH1 0x40 MSTORE CALLER DUP2 MSTORE PUSH1 0x40 MLOAD PUSH2 0x1324 PUSH1 0x20 PUSH1 0x1F NOT PUSH1 0x1F DUP11 PUSH1 0x4 ADD CALLDATALOAD ADD AND ADD DUP3 PUSH2 0x1EF3 JUMP JUMPDEST PUSH1 0x4 DUP8 ADD CALLDATALOAD DUP1 DUP3 MSTORE PUSH1 0x24 DUP9 ADD PUSH1 0x20 DUP4 ADD CALLDATACOPY PUSH0 PUSH1 0x20 DUP9 PUSH1 0x4 ADD CALLDATALOAD DUP4 ADD ADD MSTORE PUSH1 0x20 DUP3 ADD SWAP1 DUP2 MSTORE PUSH1 0x1 PUSH1 0x1 PUSH1 0x40 SHL SUB DUP4 AND PUSH1 0x40 DUP4 ADD MSTORE PUSH1 0x1 PUSH1 0x1 PUSH1 0x40 SHL SUB DUP5 AND PUSH1 0x60 DUP4 ADD MSTORE PUSH4 0xFFFFFFFF DUP6 AND PUSH1 0x80 DUP4 ADD MSTORE PUSH4 0xFFFFFFFF DUP10 AND PUSH1 0xA0 DUP4 ADD MSTORE PUSH1 0xA4 CALLDATALOAD PUSH1 0xC0 DUP4 ADD MSTORE PUSH1 0xC4 CALLDATALOAD PUSH1 0xE0 DUP4 ADD MSTORE DUP6 PUSH2 0x100 DUP4 ADD MSTORE PUSH0 PUSH2 0x120 DUP4 ADD MSTORE PUSH0 PUSH2 0x140 DUP4 ADD MSTORE PUSH0 PUSH2 0x160 DUP4 ADD MSTORE PUSH0 PUSH2 0x180 DUP4 ADD MSTORE PUSH1 0x1 PUSH2 0x1A0 DUP4 ADD MSTORE DUP8 PUSH0 MSTORE PUSH1 0x5 PUSH1 0x20 MSTORE PUSH1 0x40 PUSH0 KECCAK256 SWAP1 PUSH1 0x1 DUP1 PUSH1 0xA0 SHL SUB DUP4 MLOAD AND PUSH12 0xFFFFFFFFFFFFFFFFFFFFFFFF PUSH1 0xA0 SHL DUP4 SLOAD AND OR DUP3 SSTORE MLOAD DUP1 MLOAD SWAP1 PUSH1 0x1 PUSH1 0x1 PUSH1 0x40 SHL SUB DUP3 GT PUSH2 0x173D JUMPI PUSH2 0x1405 PUSH1 0x1 DUP5 ADD SLOAD PUSH2 0x1EBB JUMP JUMPDEST PUSH1 0x1F DUP2 GT PUSH2 0x16F5 JUMPI JUMPDEST POP SWAP3 DUP9 SWAP6 SWAP3 PUSH1 0x20 SWAP12 SWAP6 SWAP3 DUP12 SWAP9 SWAP6 DUP14 SWAP1 PUSH1 0x1F DUP4 GT PUSH1 0x1 EQ PUSH2 0x162E JUMPI SWAP5 PUSH4 0xFFFFFFFF SWAP8 SWAP5 PUSH2 0x1A0 PUSH1 0x7 PUSH1 0x1 PUSH1 0x1 PUSH1 0x40 SHL SUB SWAP7 PUSH32 0x8B67E067D94E9B933889A58FDBDFEA24ED34C5396A167C58EE667D4243C968C4 SWAP15 SWAP16 SWAP13 SWAP11 SWAP7 DUP1 DUP10 SWAP8 DUP15 SWAP13 PUSH0 SWAP3 PUSH2 0x1623 JUMPI JUMPDEST POP POP DUP2 PUSH1 0x1 SHL SWAP2 PUSH0 NOT SWAP1 PUSH1 0x3 SHL SHR NOT AND OR PUSH1 0x1 DUP3 ADD SSTORE JUMPDEST PUSH1 0x2 DUP2 ADD DUP7 PUSH1 0x40 DUP7 ADD MLOAD AND DUP2 SLOAD PUSH16 0xFFFFFFFFFFFFFFFF0000000000000000 PUSH1 0x60 DUP9 ADD MLOAD PUSH1 0x40 SHL AND DUP14 PUSH1 0x80 SHL PUSH1 0x80 DUP10 ADD MLOAD PUSH1 0x80 SHL AND SWAP2 DUP15 PUSH1 0xA0 SHL PUSH1 0xA0 DUP11 ADD MLOAD PUSH1 0xA0 SHL AND SWAP4 DUP16 PUSH1 0xA0 SHL NOT SWAP2 PUSH12 0xFFFFFFFFFFFFFFFFFFFFFFFF PUSH1 0xA0 SHL AND OR AND OR OR OR SWAP1 SSTORE PUSH1 0xC0 DUP5 ADD MLOAD PUSH1 0x3 DUP3 ADD SSTORE PUSH1 0xE0 DUP5 ADD MLOAD PUSH1 0x4 DUP3 ADD SSTORE PUSH2 0x100 DUP5 ADD MLOAD PUSH1 0x5 DUP3 ADD SSTORE PUSH2 0x120 DUP5 ADD MLOAD PUSH1 0x6 DUP3 ADD SSTORE ADD SWAP2 DUP9 DUP1 PUSH2 0x140 DUP4 ADD MLOAD AND AND DUP10 NOT DUP5 SLOAD AND OR DUP4 SSTORE PUSH2 0x160 DUP2 ADD MLOAD ISZERO ISZERO PUSH5 0xFF00000000 DUP5 SLOAD SWAP2 PUSH1 0x20 SHL AND SWAP1 PUSH5 0xFF00000000 NOT AND OR DUP4 SSTORE PUSH2 0x180 DUP2 ADD MLOAD ISZERO ISZERO PUSH6 0xFF0000000000 DUP5 SLOAD SWAP2 PUSH1 0x28 SHL AND SWAP1 PUSH6 0xFF0000000000 NOT AND OR DUP4 SSTORE ADD MLOAD ISZERO ISZERO PUSH7 0xFF000000000000 DUP3 SLOAD SWAP2 PUSH1 0x30 SHL AND SWAP1 PUSH7 0xFF000000000000 NOT AND OR SWAP1 SSTORE CALLER PUSH0 MSTORE PUSH1 0x7 DUP16 MSTORE DUP12 PUSH1 0x40 PUSH0 KECCAK256 SSTORE PUSH0 PUSH2 0x120 PUSH1 0x40 MLOAD SWAP12 PUSH2 0x100 DUP14 MSTORE DUP13 PUSH2 0x100 DUP3 PUSH1 0x4 ADD CALLDATALOAD SWAP2 ADD MSTORE DUP1 PUSH1 0x4 ADD CALLDATALOAD DUP14 DUP4 PUSH1 0x24 DUP5 ADD SWAP2 ADD CALLDATACOPY PUSH1 0x4 ADD CALLDATALOAD DUP13 ADD ADD MSTORE AND DUP14 DUP10 ADD MSTORE AND PUSH1 0x40 DUP8 ADD MSTORE AND PUSH1 0x60 DUP6 ADD MSTORE AND PUSH1 0x80 DUP4 ADD MSTORE PUSH1 0xA4 CALLDATALOAD PUSH1 0xA0 DUP4 ADD MSTORE PUSH1 0xC4 CALLDATALOAD PUSH1 0xC0 DUP4 ADD MSTORE PUSH1 0xE0 DUP3 ADD MSTORE PUSH2 0x120 DUP2 CALLER SWAP6 PUSH1 0x1F DUP1 NOT SWAP2 PUSH1 0x4 ADD CALLDATALOAD ADD AND DUP2 ADD SUB ADD SWAP1 LOG3 PUSH1 0x1 PUSH0 MLOAD PUSH1 0x20 PUSH2 0x225D PUSH0 CODECOPY PUSH0 MLOAD SWAP1 PUSH0 MSTORE SSTORE PUSH1 0x40 MLOAD SWAP1 DUP2 MSTORE RETURN JUMPDEST ADD MLOAD SWAP1 POP PUSH0 DUP1 PUSH2 0x1470 JUMP JUMPDEST SWAP1 PUSH1 0x1 DUP5 SWAP13 SWAP10 SWAP9 SWAP13 ADD PUSH0 MSTORE DUP1 PUSH0 KECCAK256 SWAP2 PUSH0 JUMPDEST PUSH1 0x1F NOT DUP6 AND DUP2 LT PUSH2 0x16C4 JUMPI POP SWAP5 PUSH2 0x1A0 PUSH1 0x7 PUSH1 0x1 PUSH1 0x1 PUSH1 0x40 SHL SUB SWAP7 PUSH32 0x8B67E067D94E9B933889A58FDBDFEA24ED34C5396A167C58EE667D4243C968C4 SWAP15 SWAP16 SWAP9 DUP8 DUP10 SWAP8 PUSH4 0xFFFFFFFF SWAP15 SWAP14 SWAP10 SWAP8 DUP16 SWAP14 SWAP9 SWAP4 PUSH1 0x1 SWAP5 PUSH1 0x1F NOT DUP2 AND LT PUSH2 0x16AC JUMPI JUMPDEST POP POP POP DUP2 SHL ADD PUSH1 0x1 DUP3 ADD SSTORE PUSH2 0x1487 JUMP JUMPDEST ADD MLOAD PUSH0 NOT PUSH1 0xF8 DUP5 PUSH1 0x3 SHL AND SHR NOT AND SWAP1 SSTORE PUSH0 DUP1 DUP1 PUSH2 0x169C JUMP JUMPDEST SWAP4 SWAP6 SWAP8 SWAP10 SWAP13 SWAP11 POP SWAP2 DUP16 SWAP2 SWAP5 SWAP7 SWAP9 SWAP12 POP PUSH1 0x1 DUP3 SWAP2 DUP7 DUP6 ADD MLOAD DUP2 SSTORE ADD SWAP5 ADD SWAP3 ADD SWAP2 DUP14 SWAP11 SWAP8 SWAP6 SWAP4 SWAP2 DUP14 SWAP11 SWAP13 SWAP10 SWAP8 SWAP6 SWAP4 PUSH2 0x163F JUMP JUMPDEST PUSH1 0x1 DUP5 ADD PUSH0 MSTORE PUSH1 0x20 PUSH0 KECCAK256 PUSH1 0x1F DUP5 ADD PUSH1 0x5 SHR DUP2 ADD SWAP2 PUSH1 0x20 DUP6 LT PUSH2 0x1733 JUMPI JUMPDEST PUSH1 0x1F ADD PUSH1 0x5 SHR ADD SWAP1 JUMPDEST DUP2 DUP2 LT PUSH2 0x1728 JUMPI POP PUSH2 0x140E JUMP JUMPDEST PUSH0 DUP2 SSTORE PUSH1 0x1 ADD PUSH2 0x171B JUMP JUMPDEST SWAP1 SWAP2 POP DUP2 SWAP1 PUSH2 0x1712 JUMP JUMPDEST PUSH4 0x4E487B71 PUSH1 0xE0 SHL PUSH0 MSTORE PUSH1 0x41 PUSH1 0x4 MSTORE PUSH1 0x24 PUSH0 REVERT JUMPDEST PUSH4 0x4E487B71 PUSH1 0xE0 SHL PUSH0 MSTORE PUSH1 0x11 PUSH1 0x4 MSTORE PUSH1 0x24 PUSH0 REVERT JUMPDEST PUSH4 0x5274AFE7 PUSH1 0xE0 SHL PUSH0 SWAP1 DUP2 MSTORE PUSH1 0x1 PUSH1 0x1 PUSH1 0xA0 SHL SUB SWAP2 SWAP1 SWAP2 AND PUSH1 0x4 MSTORE PUSH1 0x24 SWAP1 REVERT JUMPDEST PUSH1 0x1 DUP2 ISZERO AND PUSH2 0x179B JUMPI DUP2 EXTCODESIZE ISZERO ISZERO RETURNDATASIZE ISZERO AND AND PUSH2 0x12CB JUMP JUMPDEST DUP8 RETURNDATASIZE PUSH0 DUP3 RETURNDATACOPY RETURNDATASIZE SWAP1 REVERT JUMPDEST PUSH1 0x40 MLOAD PUSH3 0x461BCD PUSH1 0xE5 SHL DUP2 MSTORE PUSH1 0x20 PUSH1 0x4 DUP3 ADD MSTORE PUSH1 0xF PUSH1 0x24 DUP3 ADD MSTORE PUSH15 0x125B9D985B1A590819195C1BDCDA5D PUSH1 0x8A SHL PUSH1 0x44 DUP3 ADD MSTORE PUSH1 0x64 SWAP1 REVERT JUMPDEST PUSH0 MSTORE PUSH1 0x5 PUSH1 0x20 MSTORE PUSH1 0xFF PUSH1 0x7 PUSH1 0x40 PUSH0 KECCAK256 ADD SLOAD PUSH1 0x30 SHR AND PUSH2 0x17FA JUMPI DUP6 PUSH2 0x125E JUMP JUMPDEST PUSH1 0x40 MLOAD PUSH3 0x461BCD PUSH1 0xE5 SHL DUP2 MSTORE PUSH1 0x20 PUSH1 0x4 DUP3 ADD MSTORE PUSH1 0x21 PUSH1 0x24 DUP3 ADD MSTORE PUSH32 0x5573657220616C72656164792068617320616374697665206368616C6C656E67 PUSH1 0x44 DUP3 ADD MSTORE PUSH1 0x65 PUSH1 0xF8 SHL PUSH1 0x64 DUP3 ADD MSTORE PUSH1 0x84 SWAP1 REVERT JUMPDEST PUSH1 0x40 MLOAD PUSH3 0x461BCD PUSH1 0xE5 SHL DUP2 MSTORE PUSH1 0x20 PUSH1 0x4 DUP3 ADD MSTORE PUSH1 0x26 PUSH1 0x24 DUP3 ADD MSTORE PUSH32 0x4D6973732070656E616C7479206D757374206265203E3D206661696C65642070 PUSH1 0x44 DUP3 ADD MSTORE PUSH6 0x656E616C7479 PUSH1 0xD0 SHL PUSH1 0x64 DUP3 ADD MSTORE PUSH1 0x84 SWAP1 REVERT JUMPDEST PUSH1 0x40 MLOAD PUSH3 0x461BCD PUSH1 0xE5 SHL DUP2 MSTORE PUSH1 0x20 PUSH1 0x4 DUP3 ADD MSTORE PUSH1 0x17 PUSH1 0x24 DUP3 ADD MSTORE PUSH32 0x50656E616C74794E6F4F6B206D757374206265203E2030000000000000000000 PUSH1 0x44 DUP3 ADD MSTORE PUSH1 0x64 SWAP1 REVERT JUMPDEST PUSH1 0x40 MLOAD PUSH3 0x461BCD PUSH1 0xE5 SHL DUP2 MSTORE PUSH1 0x20 PUSH1 0x4 DUP3 ADD MSTORE PUSH1 0x1F PUSH1 0x24 DUP3 ADD MSTORE PUSH32 0x50656E616C74794E6F5375626D697373696F6E206D757374206265203E203000 PUSH1 0x44 DUP3 ADD MSTORE PUSH1 0x64 SWAP1 REVERT JUMPDEST PUSH1 0x40 MLOAD PUSH3 0x461BCD PUSH1 0xE5 SHL DUP2 MSTORE PUSH1 0x20 PUSH1 0x4 DUP3 ADD MSTORE PUSH1 0x16 PUSH1 0x24 DUP3 ADD MSTORE PUSH22 0x4D696E20726174696E67206D757374206265203E203 PUSH1 0x54 SHL PUSH1 0x44 DUP3 ADD MSTORE PUSH1 0x64 SWAP1 REVERT JUMPDEST PUSH1 0x40 MLOAD PUSH3 0x461BCD PUSH1 0xE5 SHL DUP2 MSTORE PUSH1 0x20 PUSH1 0x4 DUP3 ADD MSTORE PUSH1 0x19 PUSH1 0x24 DUP3 ADD MSTORE PUSH32 0x546F74616C20706572696F6473206D757374206265203E203000000000000000 PUSH1 0x44 DUP3 ADD MSTORE PUSH1 0x64 SWAP1 REVERT JUMPDEST PUSH1 0x40 MLOAD PUSH3 0x461BCD PUSH1 0xE5 SHL DUP2 MSTORE PUSH1 0x20 PUSH1 0x4 DUP3 ADD MSTORE PUSH1 0x1B PUSH1 0x24 DUP3 ADD MSTORE PUSH32 0x506572696F64206475726174696F6E206D757374206265203E20300000000000 PUSH1 0x44 DUP3 ADD MSTORE PUSH1 0x64 SWAP1 REVERT JUMPDEST PUSH1 0x40 MLOAD PUSH3 0x461BCD PUSH1 0xE5 SHL DUP2 MSTORE PUSH1 0x20 PUSH1 0x4 DUP3 ADD MSTORE PUSH1 0x1B PUSH1 0x24 DUP3 ADD MSTORE PUSH32 0x5374617274206D75737420626520696E20746865206675747572650000000000 PUSH1 0x44 DUP3 ADD MSTORE PUSH1 0x64 SWAP1 REVERT JUMPDEST PUSH1 0x40 MLOAD PUSH3 0x461BCD PUSH1 0xE5 SHL DUP2 MSTORE PUSH1 0x20 PUSH1 0x4 DUP3 ADD MSTORE PUSH1 0xF PUSH1 0x24 DUP3 ADD MSTORE PUSH15 0x48616E646C6520697320656D707479 PUSH1 0x88 SHL PUSH1 0x44 DUP3 ADD MSTORE PUSH1 0x64 SWAP1 REVERT JUMPDEST CALLVALUE PUSH2 0x149 JUMPI PUSH0 CALLDATASIZE PUSH1 0x3 NOT ADD SLT PUSH2 0x149 JUMPI PUSH1 0x20 PUSH1 0xFF PUSH0 SLOAD PUSH1 0xA0 SHR AND PUSH1 0x40 MLOAD SWAP1 ISZERO ISZERO DUP2 MSTORE RETURN JUMPDEST CALLVALUE PUSH2 0x149 JUMPI PUSH0 CALLDATASIZE PUSH1 0x3 NOT ADD SLT PUSH2 0x149 JUMPI PUSH2 0x1AA7 PUSH2 0x2180 JUMP JUMPDEST PUSH0 SLOAD PUSH1 0xFF DUP2 PUSH1 0xA0 SHR AND ISZERO PUSH2 0x1AEC JUMPI PUSH1 0xFF PUSH1 0xA0 SHL NOT AND PUSH0 SSTORE PUSH1 0x40 MLOAD CALLER DUP2 MSTORE PUSH32 0x5DB9EE0A495BF2E6FF9C91A7834C1BA4FDD244A5E8AA4E537BD38AEAE4B073AA SWAP1 PUSH1 0x20 SWAP1 LOG1 STOP JUMPDEST PUSH4 0x8DFC202B PUSH1 0xE0 SHL PUSH0 MSTORE PUSH1 0x4 PUSH0 REVERT JUMPDEST CALLVALUE PUSH2 0x149 JUMPI PUSH0 CALLDATASIZE PUSH1 0x3 NOT ADD SLT PUSH2 0x149 JUMPI PUSH1 0x20 PUSH1 0x4 SLOAD PUSH1 0x40 MLOAD SWAP1 DUP2 MSTORE RETURN JUMPDEST CALLVALUE PUSH2 0x149 JUMPI PUSH1 0x20 CALLDATASIZE PUSH1 0x3 NOT ADD SLT PUSH2 0x149 JUMPI PUSH1 0x4 CALLDATALOAD PUSH0 DUP2 DUP2 MSTORE PUSH1 0x5 PUSH1 0x20 MSTORE PUSH1 0x40 SWAP1 KECCAK256 SLOAD PUSH2 0x1B4E SWAP1 PUSH1 0x1 PUSH1 0x1 PUSH1 0xA0 SHL SUB AND ISZERO ISZERO PUSH2 0x1E79 JUMP JUMPDEST PUSH0 MSTORE PUSH1 0x5 PUSH1 0x20 MSTORE PUSH1 0x40 PUSH0 KECCAK256 PUSH1 0x1 DUP1 PUSH1 0xA0 SHL SUB DUP2 SLOAD AND SWAP1 PUSH1 0x1 DUP2 ADD SWAP2 PUSH1 0x2 DUP3 ADD SLOAD SWAP3 PUSH1 0x3 DUP4 ADD SLOAD SWAP3 PUSH1 0x4 DUP2 ADD SLOAD SWAP1 PUSH1 0x5 DUP2 ADD SLOAD PUSH1 0x7 PUSH1 0x6 DUP4 ADD SLOAD SWAP3 ADD SLOAD SWAP3 PUSH1 0x40 MLOAD SWAP7 PUSH0 SWAP9 DUP7 SLOAD SWAP7 PUSH2 0x1B9D DUP9 PUSH2 0x1EBB JUMP JUMPDEST SWAP1 DUP2 DUP12 MSTORE PUSH1 0x20 DUP12 ADD SWAP9 PUSH1 0x1 DUP2 AND SWAP1 DUP2 PUSH0 EQ PUSH2 0x1CCB JUMPI POP PUSH1 0x1 EQ PUSH2 0x1C8D JUMPI JUMPDEST POP POP SWAP1 PUSH4 0xFFFFFFFF PUSH1 0xFF SWAP7 SWAP6 SWAP5 SWAP4 SWAP3 PUSH2 0x1BDA DUP12 PUSH2 0x1E0 SWAP13 SWAP14 SUB DUP14 PUSH2 0x1EF3 JUMP JUMPDEST PUSH1 0x40 MLOAD SWAP12 DUP13 SWAP11 DUP12 MSTORE PUSH2 0x1C0 PUSH1 0x20 DUP13 ADD MSTORE MLOAD DUP1 SWAP10 DUP2 PUSH2 0x1C0 DUP14 ADD MSTORE DUP13 DUP13 ADD MCOPY PUSH0 DUP12 DUP11 DUP13 ADD ADD MSTORE PUSH1 0x1 PUSH1 0x1 PUSH1 0x40 SHL SUB DUP2 AND PUSH1 0x40 DUP12 ADD MSTORE PUSH1 0x1 PUSH1 0x1 PUSH1 0x40 SHL SUB DUP2 PUSH1 0x40 SHR AND PUSH1 0x60 DUP12 ADD MSTORE DUP2 DUP2 PUSH1 0x80 SHR AND PUSH1 0x80 DUP12 ADD MSTORE PUSH1 0xA0 SHR AND PUSH1 0xA0 DUP10 ADD MSTORE PUSH1 0xC0 DUP9 ADD MSTORE PUSH1 0xE0 DUP8 ADD MSTORE PUSH2 0x100 DUP7 ADD MSTORE PUSH2 0x120 DUP6 ADD MSTORE PUSH4 0xFFFFFFFF DUP2 AND PUSH2 0x140 DUP6 ADD MSTORE DUP2 DUP2 PUSH1 0x20 SHR AND ISZERO ISZERO PUSH2 0x160 DUP6 ADD MSTORE DUP2 DUP2 PUSH1 0x28 SHR AND ISZERO ISZERO PUSH2 0x180 DUP6 ADD MSTORE PUSH1 0x30 SHR AND ISZERO ISZERO PUSH2 0x1A0 DUP4 ADD MSTORE PUSH1 0x1F DUP1 NOT SWAP2 ADD AND DUP2 ADD SUB ADD SWAP1 RETURN JUMPDEST SWAP1 SWAP11 POP PUSH0 MSTORE PUSH1 0x20 PUSH0 KECCAK256 PUSH0 SWAP1 JUMPDEST DUP12 DUP3 LT PUSH2 0x1CB4 JUMPI POP DUP10 ADD PUSH1 0x20 ADD SWAP10 POP PUSH4 0xFFFFFFFF PUSH1 0xFF PUSH2 0x1BBB JUMP JUMPDEST PUSH1 0x1 DUP2 DUP13 PUSH1 0x20 DUP6 DUP2 SWAP6 SLOAD SWAP3 ADD ADD MSTORE ADD SWAP2 ADD SWAP1 PUSH2 0x1C99 JUMP JUMPDEST PUSH1 0xFF NOT AND DUP11 MSTORE POP POP ISZERO ISZERO PUSH1 0x5 SHL DUP10 ADD PUSH1 0x20 ADD SWAP10 POP PUSH4 0xFFFFFFFF PUSH1 0xFF PUSH2 0x1BBB JUMP JUMPDEST CALLVALUE PUSH2 0x149 JUMPI PUSH1 0x20 CALLDATASIZE PUSH1 0x3 NOT ADD SLT PUSH2 0x149 JUMPI PUSH1 0x4 CALLDATALOAD PUSH2 0x1D07 PUSH2 0x2180 JUMP JUMPDEST PUSH2 0x1D0F PUSH2 0x21A6 JUMP JUMPDEST DUP1 ISZERO PUSH2 0x1DF5 JUMPI PUSH1 0x4 SLOAD DUP1 DUP3 GT PUSH2 0x1DB0 JUMPI DUP2 PUSH2 0x1D29 SWAP2 PUSH2 0x1E6C JUMP JUMPDEST PUSH1 0x4 SSTORE PUSH1 0x2 SLOAD PUSH2 0x1D64 SWAP1 DUP3 SWAP1 PUSH1 0x1 PUSH1 0x1 PUSH1 0xA0 SHL SUB AND PUSH32 0x0 PUSH2 0x21DE JUMP JUMPDEST PUSH1 0x2 SLOAD PUSH1 0x40 MLOAD SWAP2 DUP3 MSTORE PUSH1 0x1 PUSH1 0x1 PUSH1 0xA0 SHL SUB AND SWAP1 PUSH32 0x41FDD680478135993BC53FB2FFAF9560951B57EF62FF6BADD02B61E018B4F17F SWAP1 PUSH1 0x20 SWAP1 LOG2 PUSH1 0x1 PUSH0 MLOAD PUSH1 0x20 PUSH2 0x225D PUSH0 CODECOPY PUSH0 MLOAD SWAP1 PUSH0 MSTORE SSTORE STOP JUMPDEST PUSH1 0x40 MLOAD PUSH3 0x461BCD PUSH1 0xE5 SHL DUP2 MSTORE PUSH1 0x20 PUSH1 0x4 DUP3 ADD MSTORE PUSH1 0x1F PUSH1 0x24 DUP3 ADD MSTORE PUSH32 0x416D6F756E7420657863656564732074726561737572792062616C616E636500 PUSH1 0x44 DUP3 ADD MSTORE PUSH1 0x64 SWAP1 REVERT JUMPDEST PUSH1 0x40 MLOAD PUSH3 0x461BCD PUSH1 0xE5 SHL DUP2 MSTORE PUSH1 0x20 PUSH1 0x4 DUP3 ADD MSTORE PUSH1 0x12 PUSH1 0x24 DUP3 ADD MSTORE PUSH18 0x416D6F756E74206D757374206265203E203 PUSH1 0x74 SHL PUSH1 0x44 DUP3 ADD MSTORE PUSH1 0x64 SWAP1 REVERT JUMPDEST PUSH1 0x60 SWAP1 PUSH1 0x3 NOT ADD SLT PUSH2 0x149 JUMPI PUSH1 0x4 CALLDATALOAD SWAP1 PUSH1 0x24 CALLDATALOAD SWAP1 PUSH1 0x44 CALLDATALOAD SWAP1 JUMP JUMPDEST PUSH1 0x40 SWAP1 PUSH1 0x3 NOT ADD SLT PUSH2 0x149 JUMPI PUSH1 0x4 CALLDATALOAD SWAP1 PUSH1 0x24 CALLDATALOAD SWAP1 JUMP JUMPDEST SWAP1 PUSH1 0x4 DUP3 LT ISZERO PUSH2 0x4D9 JUMPI MSTORE JUMP JUMPDEST SWAP2 SWAP1 DUP3 SUB SWAP2 DUP3 GT PUSH2 0x1751 JUMPI JUMP JUMPDEST ISZERO PUSH2 0x1E80 JUMPI JUMP JUMPDEST PUSH1 0x40 MLOAD PUSH3 0x461BCD PUSH1 0xE5 SHL DUP2 MSTORE PUSH1 0x20 PUSH1 0x4 DUP3 ADD MSTORE PUSH1 0x13 PUSH1 0x24 DUP3 ADD MSTORE PUSH19 0x10DA185B1B195B99D9481B9BDD08199BDD5B99 PUSH1 0x6A SHL PUSH1 0x44 DUP3 ADD MSTORE PUSH1 0x64 SWAP1 REVERT JUMPDEST SWAP1 PUSH1 0x1 DUP3 DUP2 SHR SWAP3 AND DUP1 ISZERO PUSH2 0x1EE9 JUMPI JUMPDEST PUSH1 0x20 DUP4 LT EQ PUSH2 0x1ED5 JUMPI JUMP JUMPDEST PUSH4 0x4E487B71 PUSH1 0xE0 SHL PUSH0 MSTORE PUSH1 0x22 PUSH1 0x4 MSTORE PUSH1 0x24 PUSH0 REVERT JUMPDEST SWAP2 PUSH1 0x7F AND SWAP2 PUSH2 0x1ECA JUMP JUMPDEST SWAP1 PUSH1 0x1F DUP1 NOT SWAP2 ADD AND DUP2 ADD SWAP1 DUP2 LT PUSH1 0x1 PUSH1 0x1 PUSH1 0x40 SHL SUB DUP3 GT OR PUSH2 0x173D JUMPI PUSH1 0x40 MSTORE JUMP JUMPDEST DUP2 DUP2 MUL SWAP3 SWAP2 DUP2 ISZERO SWAP2 DUP5 DIV EQ OR ISZERO PUSH2 0x1751 JUMPI JUMP JUMPDEST ISZERO PUSH2 0x1F2E JUMPI JUMP JUMPDEST PUSH1 0x40 MLOAD PUSH3 0x461BCD PUSH1 0xE5 SHL DUP2 MSTORE PUSH1 0x20 PUSH1 0x4 DUP3 ADD MSTORE PUSH1 0x12 PUSH1 0x24 DUP3 ADD MSTORE PUSH18 0x2737BA1031B430B63632B733B2903AB9B2B9 PUSH1 0x71 SHL PUSH1 0x44 DUP3 ADD MSTORE PUSH1 0x64 SWAP1 REVERT JUMPDEST ISZERO PUSH2 0x1F6F JUMPI JUMP JUMPDEST PUSH1 0x40 MLOAD PUSH3 0x461BCD PUSH1 0xE5 SHL DUP2 MSTORE PUSH1 0x20 PUSH1 0x4 DUP3 ADD MSTORE PUSH1 0x17 PUSH1 0x24 DUP3 ADD MSTORE PUSH32 0x4368616C6C656E6765206973206E6F7420616374697665000000000000000000 PUSH1 0x44 DUP3 ADD MSTORE PUSH1 0x64 SWAP1 REVERT JUMPDEST ISZERO PUSH2 0x1FBB JUMPI JUMP JUMPDEST PUSH1 0x40 MLOAD PUSH3 0x461BCD PUSH1 0xE5 SHL DUP2 MSTORE PUSH1 0x20 PUSH1 0x4 DUP3 ADD MSTORE PUSH1 0xB PUSH1 0x24 DUP3 ADD MSTORE PUSH11 0x4F6E6C79206F7261636C65 PUSH1 0xA8 SHL PUSH1 0x44 DUP3 ADD MSTORE PUSH1 0x64 SWAP1 REVERT JUMPDEST ISZERO PUSH2 0x1FF5 JUMPI JUMP JUMPDEST PUSH1 0x40 MLOAD PUSH3 0x461BCD PUSH1 0xE5 SHL DUP2 MSTORE PUSH1 0x20 PUSH1 0x4 DUP3 ADD MSTORE PUSH1 0x12 PUSH1 0x24 DUP3 ADD MSTORE PUSH18 0x10DA185B1B195B99D94818D85B98D95B1959 PUSH1 0x72 SHL PUSH1 0x44 DUP3 ADD MSTORE PUSH1 0x64 SWAP1 REVERT JUMPDEST ISZERO PUSH2 0x2036 JUMPI JUMP JUMPDEST PUSH1 0x40 MLOAD PUSH3 0x461BCD PUSH1 0xE5 SHL DUP2 MSTORE PUSH1 0x20 PUSH1 0x4 DUP3 ADD MSTORE PUSH1 0x13 PUSH1 0x24 DUP3 ADD MSTORE PUSH19 0x21B430B63632B733B2903BB4BA34323930BBB7 PUSH1 0x69 SHL PUSH1 0x44 DUP3 ADD MSTORE PUSH1 0x64 SWAP1 REVERT JUMPDEST ISZERO PUSH2 0x2078 JUMPI JUMP JUMPDEST PUSH1 0x40 MLOAD PUSH3 0x461BCD PUSH1 0xE5 SHL DUP2 MSTORE PUSH1 0x20 PUSH1 0x4 DUP3 ADD MSTORE PUSH1 0x14 PUSH1 0x24 DUP3 ADD MSTORE PUSH20 0x92DCECC2D8D2C840E0CAE4D2DEC840D2DCC8CAF PUSH1 0x63 SHL PUSH1 0x44 DUP3 ADD MSTORE PUSH1 0x64 SWAP1 REVERT JUMPDEST ISZERO PUSH2 0x20BB JUMPI JUMP JUMPDEST PUSH1 0x40 MLOAD PUSH3 0x461BCD PUSH1 0xE5 SHL DUP2 MSTORE PUSH1 0x20 PUSH1 0x4 DUP3 ADD MSTORE PUSH1 0x17 PUSH1 0x24 DUP3 ADD MSTORE PUSH32 0x506572696F6420616C7265616479207265736F6C766564000000000000000000 PUSH1 0x44 DUP3 ADD MSTORE PUSH1 0x64 SWAP1 REVERT JUMPDEST ISZERO PUSH2 0x2107 JUMPI JUMP JUMPDEST PUSH1 0x40 MLOAD PUSH3 0x461BCD PUSH1 0xE5 SHL DUP2 MSTORE PUSH1 0x20 PUSH1 0x4 DUP3 ADD MSTORE PUSH1 0x14 PUSH1 0x24 DUP3 ADD MSTORE PUSH20 0x14195C9A5BD9081B9BDD08195B991959081E595D PUSH1 0x62 SHL PUSH1 0x44 DUP3 ADD MSTORE PUSH1 0x64 SWAP1 REVERT JUMPDEST SWAP1 PUSH1 0x4 DUP2 LT ISZERO PUSH2 0x4D9 JUMPI PUSH1 0xFF DUP1 NOT DUP4 SLOAD AND SWAP2 AND OR SWAP1 SSTORE JUMP JUMPDEST PUSH4 0xFFFFFFFF PUSH1 0x1 SWAP2 AND ADD SWAP1 PUSH4 0xFFFFFFFF DUP3 GT PUSH2 0x1751 JUMPI JUMP JUMPDEST SWAP2 SWAP1 DUP3 ADD DUP1 SWAP3 GT PUSH2 0x1751 JUMPI JUMP JUMPDEST PUSH0 SLOAD PUSH1 0x1 PUSH1 0x1 PUSH1 0xA0 SHL SUB AND CALLER SUB PUSH2 0x2193 JUMPI JUMP JUMPDEST PUSH4 0x118CDAA7 PUSH1 0xE0 SHL PUSH0 MSTORE CALLER PUSH1 0x4 MSTORE PUSH1 0x24 PUSH0 REVERT JUMPDEST PUSH1 0x2 PUSH0 MLOAD PUSH1 0x20 PUSH2 0x225D PUSH0 CODECOPY PUSH0 MLOAD SWAP1 PUSH0 MSTORE SLOAD EQ PUSH2 0x21CF JUMPI PUSH1 0x2 PUSH0 MLOAD PUSH1 0x20 PUSH2 0x225D PUSH0 CODECOPY PUSH0 MLOAD SWAP1 PUSH0 MSTORE SSTORE JUMP JUMPDEST PUSH4 0x3EE5AEB5 PUSH1 0xE0 SHL PUSH0 MSTORE PUSH1 0x4 PUSH0 REVERT JUMPDEST SWAP2 PUSH1 0x40 MLOAD SWAP2 PUSH4 0xA9059CBB PUSH1 0xE0 SHL PUSH0 MSTORE PUSH1 0x1 DUP1 PUSH1 0xA0 SHL SUB AND PUSH1 0x4 MSTORE PUSH1 0x24 MSTORE PUSH1 0x20 PUSH0 PUSH1 0x44 DUP2 DUP1 DUP7 GAS CALL SWAP1 PUSH1 0x1 PUSH0 MLOAD EQ DUP3 AND ISZERO PUSH2 0x221E JUMPI JUMPDEST PUSH1 0x40 MSTORE ISZERO PUSH2 0x1765 JUMPI POP JUMP JUMPDEST SWAP1 PUSH1 0x1 DUP2 ISZERO AND PUSH2 0x2236 JUMPI DUP3 EXTCODESIZE ISZERO ISZERO RETURNDATASIZE ISZERO AND AND SWAP1 PUSH2 0x2213 JUMP JUMPDEST POP RETURNDATASIZE PUSH0 DUP3 RETURNDATACOPY RETURNDATASIZE SWAP1 REVERT JUMPDEST PUSH1 0xFF PUSH0 SLOAD PUSH1 0xA0 SHR AND PUSH2 0x224D JUMPI JUMP JUMPDEST PUSH4 0xD93C0665 PUSH1 0xE0 SHL PUSH0 MSTORE PUSH1 0x4 PUSH0 REVERT INVALID SWAP12 PUSH24 0x9B17422D0DF92223018B32B4D1FA46E071723D6817E2486D STOP EXTCODESIZE 0xEC 0xC5 PUSH0 STOP LOG2 PUSH5 0x6970667358 0x22 SLT KECCAK256 0xD2 LOG3 MUL 0xE0 GAS 0xCF LOG0 0xED SWAP15 SWAP12 0xDA 0xD4 DUP9 0xD ISZERO ADDRESS PUSH18 0xF8DF24413C04217A55FEF80F02FE7A64736F PUSH13 0x634300081C0033000000000000 "},"methodIdentifiers":{"activeChallengeOf(address)":"d7376ed0","cancelBeforeStart(uint256)":"6fbc4e57","challengeEndAt(uint256)":"b28476fa","createChallenge(string,uint64,uint64,uint32,uint32,uint256,uint256)":"5e5df6d1","getChallenge(uint256)":"1bdd4b74","getPeriodRecord(uint256,uint256)":"c2c94a39","getPeriodWindow(uint256,uint256)":"b6f7d2b4","markPeriodCompleted(uint256,uint256,uint256,uint256,uint256,bytes32)":"7753ddcf","nextChallengeId()":"fc67aa50","oracle()":"7dc0d1d0","owner()":"8da5cb5b","pause()":"8456cb59","paused()":"5c975abb","renounceOwnership()":"715018a6","setOracle(address)":"7adbf973","setTreasury(address)":"f0f44260","slashPeriodNoOk(uint256,uint256,bytes32)":"e8903954","slashPeriodNoSubmission(uint256,uint256,bytes32)":"953d26e0","token()":"fc0c546a","transferOwnership(address)":"f2fde38b","treasury()":"61d027b3","treasuryBalance()":"313dab20","unpause()":"3f4ba83a","withdrawRemaining(uint256)":"86fc0541","withdrawTreasury(uint256)":"11f1fc99"}}}}}